{
  "contractName": "B",
  "abi": [
    {
      "inputs": [
        {
          "internalType": "uint256",
          "name": "_y",
          "type": "uint256"
        }
      ],
      "payable": false,
      "stateMutability": "nonpayable",
      "type": "constructor"
    },
    {
      "constant": true,
      "inputs": [],
      "name": "a",
      "outputs": [
        {
          "internalType": "uint256",
          "name": "",
          "type": "uint256"
        }
      ],
      "payable": false,
      "stateMutability": "view",
      "type": "function"
    }
  ],
  "bytecode": "0x608060405234801561001057600080fd5b506040516100e23803806100e28339818101604052602081101561003357600080fd5b810190808051906020019092919050505080810280600081905550505060848061005e6000396000f3fe6080604052348015600f57600080fd5b506004361060285760003560e01c80630dbe671f14602d575b600080fd5b60336049565b6040518082815260200191505060405180910390f35b6000548156fea265627a7a72315820054b0872a24062e030167bcfa32462e207cdc0a9a3d18c92a434fbc7de05e61d64736f6c63430005100032",
  "source": "pragma solidity ^0.5.0; \r\n\r\ncontract A {\r\n    uint public a;\r\n    constructor(uint _a) internal {\r\n        a = _a;\r\n    }\r\n}\r\n\r\ncontract B is A {\r\n    constructor(uint _y) A(_y * _y) public {}\r\n}",
  "sourcePath": "C:\\MscAC\\Blockchain\\2125\\Code\\src\\contracts\\NewFarm.sol",
  "compiler": {
    "name": "solc",
    "version": "0.5.16+commit.9c3226ce.Emscripten.clang"
  },
  "schemaVersion": "3.4.5",
  "updatedAt": "2022-03-24T22:04:42.479Z",
  "devdoc": {
    "methods": {}
  },
  "userdoc": {
    "methods": {}
  }
}