{
  "contractName": "FarmExchange",
  "abi": [
    {
      "anonymous": false,
      "inputs": [
        {
          "indexed": false,
          "internalType": "uint256",
          "name": "id",
          "type": "uint256"
        },
        {
          "indexed": false,
          "internalType": "string",
          "name": "name",
          "type": "string"
        },
        {
          "indexed": false,
          "internalType": "uint256",
          "name": "price",
          "type": "uint256"
        },
        {
          "indexed": false,
          "internalType": "address payable",
          "name": "owner",
          "type": "address"
        },
        {
          "indexed": false,
          "internalType": "bool",
          "name": "purchased",
          "type": "bool"
        }
      ],
      "name": "FarmerCreated",
      "type": "event"
    },
    {
      "constant": true,
      "inputs": [],
      "name": "dealCount",
      "outputs": [
        {
          "internalType": "uint256",
          "name": "",
          "type": "uint256"
        }
      ],
      "payable": false,
      "stateMutability": "view",
      "type": "function"
    },
    {
      "constant": true,
      "inputs": [
        {
          "internalType": "uint256",
          "name": "",
          "type": "uint256"
        }
      ],
      "name": "deals",
      "outputs": [
        {
          "internalType": "uint256",
          "name": "farmerID",
          "type": "uint256"
        },
        {
          "internalType": "address",
          "name": "farmerAddress",
          "type": "address"
        },
        {
          "internalType": "address payable",
          "name": "investorAddress",
          "type": "address"
        },
        {
          "internalType": "uint256",
          "name": "amount",
          "type": "uint256"
        },
        {
          "internalType": "uint256",
          "name": "holdingPercent",
          "type": "uint256"
        }
      ],
      "payable": false,
      "stateMutability": "view",
      "type": "function"
    },
    {
      "constant": true,
      "inputs": [],
      "name": "farmerCount",
      "outputs": [
        {
          "internalType": "uint256",
          "name": "",
          "type": "uint256"
        }
      ],
      "payable": false,
      "stateMutability": "view",
      "type": "function"
    },
    {
      "constant": true,
      "inputs": [
        {
          "internalType": "uint256",
          "name": "",
          "type": "uint256"
        }
      ],
      "name": "farmers",
      "outputs": [
        {
          "internalType": "uint256",
          "name": "farmerId",
          "type": "uint256"
        },
        {
          "internalType": "string",
          "name": "farmerName",
          "type": "string"
        },
        {
          "internalType": "string",
          "name": "crop",
          "type": "string"
        },
        {
          "internalType": "uint256",
          "name": "quantity",
          "type": "uint256"
        },
        {
          "internalType": "uint256",
          "name": "expectedPrice",
          "type": "uint256"
        },
        {
          "internalType": "address payable",
          "name": "owner",
          "type": "address"
        },
        {
          "internalType": "address payable",
          "name": "processor",
          "type": "address"
        },
        {
          "internalType": "uint256",
          "name": "holding",
          "type": "uint256"
        },
        {
          "internalType": "uint256",
          "name": "costToProduce",
          "type": "uint256"
        },
        {
          "internalType": "bool",
          "name": "investmentMade",
          "type": "bool"
        },
        {
          "internalType": "bool",
          "name": "boughtByProcessor",
          "type": "bool"
        },
        {
          "internalType": "uint256",
          "name": "processorPrice",
          "type": "uint256"
        }
      ],
      "payable": false,
      "stateMutability": "view",
      "type": "function"
    },
    {
      "constant": true,
      "inputs": [],
      "name": "insuranceCount",
      "outputs": [
        {
          "internalType": "uint256",
          "name": "",
          "type": "uint256"
        }
      ],
      "payable": false,
      "stateMutability": "view",
      "type": "function"
    },
    {
      "constant": true,
      "inputs": [
        {
          "internalType": "uint256",
          "name": "",
          "type": "uint256"
        }
      ],
      "name": "insurances",
      "outputs": [
        {
          "internalType": "uint256",
          "name": "insuranceId",
          "type": "uint256"
        },
        {
          "internalType": "string",
          "name": "farmerName",
          "type": "string"
        },
        {
          "internalType": "string",
          "name": "typeOfInsurance",
          "type": "string"
        },
        {
          "internalType": "uint256",
          "name": "premium",
          "type": "uint256"
        }
      ],
      "payable": false,
      "stateMutability": "view",
      "type": "function"
    },
    {
      "constant": true,
      "inputs": [],
      "name": "marketProductCount",
      "outputs": [
        {
          "internalType": "uint256",
          "name": "",
          "type": "uint256"
        }
      ],
      "payable": false,
      "stateMutability": "view",
      "type": "function"
    },
    {
      "constant": true,
      "inputs": [
        {
          "internalType": "uint256",
          "name": "",
          "type": "uint256"
        }
      ],
      "name": "marketProducts",
      "outputs": [
        {
          "internalType": "uint256",
          "name": "marketProductId",
          "type": "uint256"
        },
        {
          "internalType": "uint256",
          "name": "processorId",
          "type": "uint256"
        },
        {
          "internalType": "uint256",
          "name": "quantity",
          "type": "uint256"
        },
        {
          "internalType": "uint256",
          "name": "price",
          "type": "uint256"
        },
        {
          "internalType": "string",
          "name": "name",
          "type": "string"
        },
        {
          "internalType": "address payable",
          "name": "processorAddress",
          "type": "address"
        },
        {
          "internalType": "address payable",
          "name": "buyerAddress",
          "type": "address"
        }
      ],
      "payable": false,
      "stateMutability": "view",
      "type": "function"
    },
    {
      "constant": true,
      "inputs": [
        {
          "internalType": "uint256",
          "name": "",
          "type": "uint256"
        }
      ],
      "name": "processedItems",
      "outputs": [
        {
          "internalType": "uint256",
          "name": "processorId",
          "type": "uint256"
        },
        {
          "internalType": "string",
          "name": "item",
          "type": "string"
        },
        {
          "internalType": "uint256",
          "name": "quantity",
          "type": "uint256"
        },
        {
          "internalType": "uint256",
          "name": "farmerId",
          "type": "uint256"
        },
        {
          "internalType": "address payable",
          "name": "processorAddress",
          "type": "address"
        },
        {
          "internalType": "bool",
          "name": "productPosted",
          "type": "bool"
        }
      ],
      "payable": false,
      "stateMutability": "view",
      "type": "function"
    },
    {
      "constant": true,
      "inputs": [],
      "name": "processedItemsCount",
      "outputs": [
        {
          "internalType": "uint256",
          "name": "",
          "type": "uint256"
        }
      ],
      "payable": false,
      "stateMutability": "view",
      "type": "function"
    },
    {
      "constant": false,
      "inputs": [
        {
          "internalType": "string",
          "name": "_farmerName",
          "type": "string"
        },
        {
          "internalType": "string",
          "name": "_farmerCrop",
          "type": "string"
        },
        {
          "internalType": "uint256",
          "name": "_farmerQuantity",
          "type": "uint256"
        },
        {
          "internalType": "uint256",
          "name": "_farmerExpectedPrice",
          "type": "uint256"
        },
        {
          "internalType": "uint256",
          "name": "holding",
          "type": "uint256"
        },
        {
          "internalType": "uint256",
          "name": "_costToProduce",
          "type": "uint256"
        }
      ],
      "name": "createFarmer",
      "outputs": [],
      "payable": false,
      "stateMutability": "nonpayable",
      "type": "function"
    },
    {
      "constant": false,
      "inputs": [
        {
          "internalType": "string",
          "name": "_farmerName",
          "type": "string"
        },
        {
          "internalType": "uint256",
          "name": "premium",
          "type": "uint256"
        },
        {
          "internalType": "string",
          "name": "_insuranceType",
          "type": "string"
        }
      ],
      "name": "createInsurance",
      "outputs": [],
      "payable": false,
      "stateMutability": "nonpayable",
      "type": "function"
    },
    {
      "constant": false,
      "inputs": [
        {
          "internalType": "uint256",
          "name": "_id",
          "type": "uint256"
        }
      ],
      "name": "payToInvestor",
      "outputs": [],
      "payable": true,
      "stateMutability": "payable",
      "type": "function"
    },
    {
      "constant": false,
      "inputs": [
        {
          "internalType": "uint256",
          "name": "_id",
          "type": "uint256"
        }
      ],
      "name": "purchaseFarmerShare",
      "outputs": [],
      "payable": true,
      "stateMutability": "payable",
      "type": "function"
    },
    {
      "constant": false,
      "inputs": [
        {
          "internalType": "uint256",
          "name": "_farmerId",
          "type": "uint256"
        },
        {
          "internalType": "uint256",
          "name": "_amount",
          "type": "uint256"
        },
        {
          "internalType": "uint256",
          "name": "_holding",
          "type": "uint256"
        }
      ],
      "name": "createAgreement",
      "outputs": [],
      "payable": false,
      "stateMutability": "nonpayable",
      "type": "function"
    },
    {
      "constant": false,
      "inputs": [
        {
          "internalType": "string",
          "name": "item",
          "type": "string"
        },
        {
          "internalType": "uint256",
          "name": "_id",
          "type": "uint256"
        },
        {
          "internalType": "uint256",
          "name": "pricePerQuantity",
          "type": "uint256"
        },
        {
          "internalType": "uint256",
          "name": "quantity",
          "type": "uint256"
        }
      ],
      "name": "createProcessedItem",
      "outputs": [],
      "payable": false,
      "stateMutability": "nonpayable",
      "type": "function"
    },
    {
      "constant": false,
      "inputs": [
        {
          "internalType": "uint256",
          "name": "_id",
          "type": "uint256"
        },
        {
          "internalType": "uint256",
          "name": "price",
          "type": "uint256"
        },
        {
          "internalType": "uint256",
          "name": "quantity",
          "type": "uint256"
        },
        {
          "internalType": "string",
          "name": "name",
          "type": "string"
        }
      ],
      "name": "createMarketProduct",
      "outputs": [],
      "payable": false,
      "stateMutability": "nonpayable",
      "type": "function"
    },
    {
      "constant": false,
      "inputs": [
        {
          "internalType": "uint256",
          "name": "_id",
          "type": "uint256"
        },
        {
          "internalType": "uint256",
          "name": "quantity",
          "type": "uint256"
        }
      ],
      "name": "purchaseProduct",
      "outputs": [],
      "payable": true,
      "stateMutability": "payable",
      "type": "function"
    },
    {
      "constant": false,
      "inputs": [
        {
          "internalType": "uint256",
          "name": "_id",
          "type": "uint256"
        },
        {
          "internalType": "uint256",
          "name": "quantity",
          "type": "uint256"
        }
      ],
      "name": "purchaseMarketProduct",
      "outputs": [],
      "payable": true,
      "stateMutability": "payable",
      "type": "function"
    }
  ],
  "bytecode": "0x608060405260008055600060015560006002556000600355600060045534801561002857600080fd5b50613283806100386000396000f3fe6080604052600436106101145760003560e01c8063a0440426116100a0578063dc3e6caa11610064578063dc3e6caa14610ac4578063de71f2d214610baa578063eaab5c8714610d13578063eadb3c9c14610d41578063fe8b41ff14610d6c57610114565b8063a0440426146107bc578063ab11b551146107f4578063bd45b3971461082c578063c7dd8ff414610857578063c8378fde1461093d57610114565b8063521a6e94116100e7578063521a6e941461033957806359fb49f91461036457806371ede946146104925780638556543f146104c05780638afdd669146105f657610114565b806303988f84146101195780630b30a84e146101dc5780631a60ed50146102075780635028a0251461030e575b600080fd5b34801561012557600080fd5b506101526004803603602081101561013c57600080fd5b8101908080359060200190929190505050610dbb565b604051808681526020018573ffffffffffffffffffffffffffffffffffffffff1673ffffffffffffffffffffffffffffffffffffffff1681526020018473ffffffffffffffffffffffffffffffffffffffff1673ffffffffffffffffffffffffffffffffffffffff1681526020018381526020018281526020019550505050505060405180910390f35b3480156101e857600080fd5b506101f1610e31565b6040518082815260200191505060405180910390f35b34801561021357600080fd5b506102406004803603602081101561022a57600080fd5b8101908080359060200190929190505050610e37565b60405180878152602001806020018681526020018581526020018473ffffffffffffffffffffffffffffffffffffffff1673ffffffffffffffffffffffffffffffffffffffff16815260200183151515158152602001828103825287818151815260200191508051906020019080838360005b838110156102ce5780820151818401526020810190506102b3565b50505050905090810190601f1680156102fb5780820380516001836020036101000a031916815260200191505b5097505050505050505060405180910390f35b34801561031a57600080fd5b50610323610f38565b6040518082815260200191505060405180910390f35b34801561034557600080fd5b5061034e610f3e565b6040518082815260200191505060405180910390f35b34801561037057600080fd5b5061039d6004803603602081101561038757600080fd5b8101908080359060200190929190505050610f44565b604051808581526020018060200180602001848152602001838103835286818151815260200191508051906020019080838360005b838110156103ed5780820151818401526020810190506103d2565b50505050905090810190601f16801561041a5780820380516001836020036101000a031916815260200191505b50838103825285818151815260200191508051906020019080838360005b83811015610453578082015181840152602081019050610438565b50505050905090810190601f1680156104805780820380516001836020036101000a031916815260200191505b50965050505050505060405180910390f35b6104be600480360360208110156104a857600080fd5b81019080803590602001909291905050506110a4565b005b3480156104cc57600080fd5b506104f9600480360360208110156104e357600080fd5b8101908080359060200190929190505050611589565b60405180888152602001878152602001868152602001858152602001806020018473ffffffffffffffffffffffffffffffffffffffff1673ffffffffffffffffffffffffffffffffffffffff1681526020018373ffffffffffffffffffffffffffffffffffffffff1673ffffffffffffffffffffffffffffffffffffffff168152602001828103825285818151815260200191508051906020019080838360005b838110156105b557808201518184015260208101905061059a565b50505050905090810190601f1680156105e25780820380516001836020036101000a031916815260200191505b509850505050505050505060405180910390f35b34801561060257600080fd5b5061062f6004803603602081101561061957600080fd5b81019080803590602001909291905050506116a3565b604051808d815260200180602001806020018c81526020018b81526020018a73ffffffffffffffffffffffffffffffffffffffff1673ffffffffffffffffffffffffffffffffffffffff1681526020018973ffffffffffffffffffffffffffffffffffffffff1673ffffffffffffffffffffffffffffffffffffffff168152602001888152602001878152602001861515151581526020018515151515815260200184815260200183810383528e818151815260200191508051906020019080838360005b8381101561070f5780820151818401526020810190506106f4565b50505050905090810190601f16801561073c5780820380516001836020036101000a031916815260200191505b5083810382528d818151815260200191508051906020019080838360005b8381101561077557808201518184015260208101905061075a565b50505050905090810190601f1680156107a25780820380516001836020036101000a031916815260200191505b509e50505050505050505050505050505060405180910390f35b6107f2600480360360408110156107d257600080fd5b81019080803590602001909291908035906020019092919050505061188d565b005b61082a6004803603604081101561080a57600080fd5b810190808035906020019092919080359060200190929190505050611d9f565b005b34801561083857600080fd5b50610841612132565b6040518082815260200191505060405180910390f35b34801561086357600080fd5b5061093b6004803603608081101561087a57600080fd5b810190808035906020019064010000000081111561089757600080fd5b8201836020820111156108a957600080fd5b803590602001918460018302840111640100000000831117156108cb57600080fd5b91908080601f016020809104026020016040519081016040528093929190818152602001838380828437600081840152601f19601f820116905080830192505050505050509192919290803590602001909291908035906020019092919080359060200190929190505050612138565b005b34801561094957600080fd5b50610ac2600480360360c081101561096057600080fd5b810190808035906020019064010000000081111561097d57600080fd5b82018360208201111561098f57600080fd5b803590602001918460018302840111640100000000831117156109b157600080fd5b91908080601f016020809104026020016040519081016040528093929190818152602001838380828437600081840152601f19601f82011690508083019250505050505050919291929080359060200190640100000000811115610a1457600080fd5b820183602082011115610a2657600080fd5b80359060200191846001830284011164010000000083111715610a4857600080fd5b91908080601f016020809104026020016040519081016040528093929190818152602001838380828437600081840152601f19601f8201169050808301925050505050505091929192908035906020019092919080359060200190929190803590602001909291908035906020019092919050505061227a565b005b348015610ad057600080fd5b50610ba860048036036080811015610ae757600080fd5b8101908080359060200190929190803590602001909291908035906020019092919080359060200190640100000000811115610b2257600080fd5b820183602082011115610b3457600080fd5b80359060200191846001830284011164010000000083111715610b5657600080fd5b91908080601f016020809104026020016040519081016040528093929190818152602001838380828437600081840152601f19601f8201169050808301925050505050505091929192905050506124bc565b005b348015610bb657600080fd5b50610d1160048036036060811015610bcd57600080fd5b8101908080359060200190640100000000811115610bea57600080fd5b820183602082011115610bfc57600080fd5b80359060200191846001830284011164010000000083111715610c1e57600080fd5b91908080601f016020809104026020016040519081016040528093929190818152602001838380828437600081840152601f19601f8201169050808301925050505050505091929192908035906020019092919080359060200190640100000000811115610c8b57600080fd5b820183602082011115610c9d57600080fd5b80359060200191846001830284011164010000000083111715610cbf57600080fd5b91908080601f016020809104026020016040519081016040528093929190818152602001838380828437600081840152601f19601f82011690508083019250505050505050919291929050505061286b565b005b610d3f60048036036020811015610d2957600080fd5b8101908080359060200190929190505050612934565b005b348015610d4d57600080fd5b50610d56612a7b565b6040518082815260200191505060405180910390f35b348015610d7857600080fd5b50610db960048036036060811015610d8f57600080fd5b81019080803590602001909291908035906020019092919080359060200190929190505050612a81565b005b60086020528060005260406000206000915090508060000154908060010160009054906101000a900473ffffffffffffffffffffffffffffffffffffffff16908060020160009054906101000a900473ffffffffffffffffffffffffffffffffffffffff16908060030154908060040154905085565b60025481565b6006602052806000526040600020600091509050806000015490806001018054600181600116156101000203166002900480601f016020809104026020016040519081016040528092919081815260200182805460018160011615610100020316600290048015610ee95780601f10610ebe57610100808354040283529160200191610ee9565b820191906000526020600020905b815481529060010190602001808311610ecc57829003601f168201915b5050505050908060020154908060030154908060040160009054906101000a900473ffffffffffffffffffffffffffffffffffffffff16908060040160149054906101000a900460ff16905086565b60015481565b60045481565b6009602052806000526040600020600091509050806000015490806001018054600181600116156101000203166002900480601f016020809104026020016040519081016040528092919081815260200182805460018160011615610100020316600290048015610ff65780601f10610fcb57610100808354040283529160200191610ff6565b820191906000526020600020905b815481529060010190602001808311610fd957829003601f168201915b505050505090806002018054600181600116156101000203166002900480601f0160208091040260200160405190810160405280929190818152602001828054600181600116156101000203166002900480156110945780601f1061106957610100808354040283529160200191611094565b820191906000526020600020905b81548152906001019060200180831161107757829003601f168201915b5050505050908060030154905084565b6110ac613006565b600560008381526020019081526020016000206040518061018001604052908160008201548152602001600182018054600181600116156101000203166002900480601f01602080910402602001604051908101604052809291908181526020018280546001816001161561010002031660029004801561116e5780601f106111435761010080835404028352916020019161116e565b820191906000526020600020905b81548152906001019060200180831161115157829003601f168201915b50505050508152602001600282018054600181600116156101000203166002900480601f0160208091040260200160405190810160405280929190818152602001828054600181600116156101000203166002900480156112105780601f106111e557610100808354040283529160200191611210565b820191906000526020600020905b8154815290600101906020018083116111f357829003601f168201915b5050505050815260200160038201548152602001600482015481526020016005820160009054906101000a900473ffffffffffffffffffffffffffffffffffffffff1673ffffffffffffffffffffffffffffffffffffffff1673ffffffffffffffffffffffffffffffffffffffff1681526020016006820160009054906101000a900473ffffffffffffffffffffffffffffffffffffffff1673ffffffffffffffffffffffffffffffffffffffff1673ffffffffffffffffffffffffffffffffffffffff16815260200160078201548152602001600882015481526020016009820160009054906101000a900460ff161515151581526020016009820160019054906101000a900460ff16151515158152602001600a82015481525050905060018161012001901515908115158152505060008160a001519050600082600001511180156113645750600054826000015111155b61136d57600080fd5b3373ffffffffffffffffffffffffffffffffffffffff168173ffffffffffffffffffffffffffffffffffffffff1614156113a657600080fd5b338260c0019073ffffffffffffffffffffffffffffffffffffffff16908173ffffffffffffffffffffffffffffffffffffffff16815250508160056000858152602001908152602001600020600082015181600001556020820151816001019080519060200190611418929190613097565b506040820151816002019080519060200190611435929190613097565b50606082015181600301556080820151816004015560a08201518160050160006101000a81548173ffffffffffffffffffffffffffffffffffffffff021916908373ffffffffffffffffffffffffffffffffffffffff16021790555060c08201518160060160006101000a81548173ffffffffffffffffffffffffffffffffffffffff021916908373ffffffffffffffffffffffffffffffffffffffff16021790555060e0820151816007015561010082015181600801556101208201518160090160006101000a81548160ff0219169083151502179055506101408201518160090160016101000a81548160ff02191690831515021790555061016082015181600a01559050508073ffffffffffffffffffffffffffffffffffffffff166108fc349081150290604051600060405180830381858888f19350505050158015611583573d6000803e3d6000fd5b50505050565b6007602052806000526040600020600091509050806000015490806001015490806002015490806003015490806004018054600181600116156101000203166002900480601f01602080910402602001604051908101604052809291908181526020018280546001816001161561010002031660029004801561164d5780601f106116225761010080835404028352916020019161164d565b820191906000526020600020905b81548152906001019060200180831161163057829003601f168201915b5050505050908060050160009054906101000a900473ffffffffffffffffffffffffffffffffffffffff16908060060160009054906101000a900473ffffffffffffffffffffffffffffffffffffffff16905087565b6005602052806000526040600020600091509050806000015490806001018054600181600116156101000203166002900480601f0160208091040260200160405190810160405280929190818152602001828054600181600116156101000203166002900480156117555780601f1061172a57610100808354040283529160200191611755565b820191906000526020600020905b81548152906001019060200180831161173857829003601f168201915b505050505090806002018054600181600116156101000203166002900480601f0160208091040260200160405190810160405280929190818152602001828054600181600116156101000203166002900480156117f35780601f106117c8576101008083540402835291602001916117f3565b820191906000526020600020905b8154815290600101906020018083116117d657829003601f168201915b5050505050908060030154908060040154908060050160009054906101000a900473ffffffffffffffffffffffffffffffffffffffff16908060060160009054906101000a900473ffffffffffffffffffffffffffffffffffffffff16908060070154908060080154908060090160009054906101000a900460ff16908060090160019054906101000a900460ff169080600a015490508c565b611895613006565b600560008481526020019081526020016000206040518061018001604052908160008201548152602001600182018054600181600116156101000203166002900480601f0160208091040260200160405190810160405280929190818152602001828054600181600116156101000203166002900480156119575780601f1061192c57610100808354040283529160200191611957565b820191906000526020600020905b81548152906001019060200180831161193a57829003601f168201915b50505050508152602001600282018054600181600116156101000203166002900480601f0160208091040260200160405190810160405280929190818152602001828054600181600116156101000203166002900480156119f95780601f106119ce576101008083540402835291602001916119f9565b820191906000526020600020905b8154815290600101906020018083116119dc57829003601f168201915b5050505050815260200160038201548152602001600482015481526020016005820160009054906101000a900473ffffffffffffffffffffffffffffffffffffffff1673ffffffffffffffffffffffffffffffffffffffff1673ffffffffffffffffffffffffffffffffffffffff1681526020016006820160009054906101000a900473ffffffffffffffffffffffffffffffffffffffff1673ffffffffffffffffffffffffffffffffffffffff1673ffffffffffffffffffffffffffffffffffffffff16815260200160078201548152602001600882015481526020016009820160009054906101000a900460ff161515151581526020016009820160019054906101000a900460ff16151515158152602001600a82015481525050905060008160a001519050348261016001818152505060018261014001901515908115158152505060008260000151118015611b585750600054826000015111155b611b6157600080fd5b8282606001511015611b7257600080fd5b3373ffffffffffffffffffffffffffffffffffffffff168173ffffffffffffffffffffffffffffffffffffffff161415611bab57600080fd5b338260c0019073ffffffffffffffffffffffffffffffffffffffff16908173ffffffffffffffffffffffffffffffffffffffff1681525050828260600151038260600181815250508160056000868152602001908152602001600020600082015181600001556020820151816001019080519060200190611c2d929190613097565b506040820151816002019080519060200190611c4a929190613097565b50606082015181600301556080820151816004015560a08201518160050160006101000a81548173ffffffffffffffffffffffffffffffffffffffff021916908373ffffffffffffffffffffffffffffffffffffffff16021790555060c08201518160060160006101000a81548173ffffffffffffffffffffffffffffffffffffffff021916908373ffffffffffffffffffffffffffffffffffffffff16021790555060e0820151816007015561010082015181600801556101208201518160090160006101000a81548160ff0219169083151502179055506101408201518160090160016101000a81548160ff02191690831515021790555061016082015181600a01559050508073ffffffffffffffffffffffffffffffffffffffff166108fc349081150290604051600060405180830381858888f19350505050158015611d98573d6000803e3d6000fd5b5050505050565b611da7613117565b600760008481526020019081526020016000206040518060e001604052908160008201548152602001600182015481526020016002820154815260200160038201548152602001600482018054600181600116156101000203166002900480601f016020809104026020016040519081016040528092919081815260200182805460018160011615610100020316600290048015611e865780601f10611e5b57610100808354040283529160200191611e86565b820191906000526020600020905b815481529060010190602001808311611e6957829003601f168201915b505050505081526020016005820160009054906101000a900473ffffffffffffffffffffffffffffffffffffffff1673ffffffffffffffffffffffffffffffffffffffff1673ffffffffffffffffffffffffffffffffffffffff1681526020016006820160009054906101000a900473ffffffffffffffffffffffffffffffffffffffff1673ffffffffffffffffffffffffffffffffffffffff1673ffffffffffffffffffffffffffffffffffffffff1681525050905060008160a00151905060008260000151118015611f605750600254826000015111155b611f6957600080fd5b8282604001511015611f7a57600080fd5b3373ffffffffffffffffffffffffffffffffffffffff168173ffffffffffffffffffffffffffffffffffffffff161415611fb357600080fd5b338260c0019073ffffffffffffffffffffffffffffffffffffffff16908173ffffffffffffffffffffffffffffffffffffffff1681525050828260400151038260400181815250508160076000868152602001908152602001600020600082015181600001556020820151816001015560408201518160020155606082015181600301556080820151816004019080519060200190612053929190613097565b5060a08201518160050160006101000a81548173ffffffffffffffffffffffffffffffffffffffff021916908373ffffffffffffffffffffffffffffffffffffffff16021790555060c08201518160060160006101000a81548173ffffffffffffffffffffffffffffffffffffffff021916908373ffffffffffffffffffffffffffffffffffffffff1602179055509050508073ffffffffffffffffffffffffffffffffffffffff166108fc349081150290604051600060405180830381858888f1935050505015801561212b573d6000803e3d6000fd5b5050505050565b60005481565b6000821161214557600080fd5b6000811161215257600080fd5b600084511161216057600080fd5b6001600081548092919060010191905055506040518060c0016040528060015481526020018581526020018281526020018481526020013373ffffffffffffffffffffffffffffffffffffffff168152602001600015158152506006600060015481526020019081526020016000206000820151816000015560208201518160010190805190602001906121f5929190613097565b50604082015181600201556060820151816003015560808201518160040160006101000a81548173ffffffffffffffffffffffffffffffffffffffff021916908373ffffffffffffffffffffffffffffffffffffffff16021790555060a08201518160040160146101000a81548160ff02191690831515021790555090505050505050565b600086511161228857600080fd5b6000831161229557600080fd5b600084116122a257600080fd5b60008551116122b057600080fd5b600081116122bd57600080fd5b600080815480929190600101919050555060405180610180016040528060005481526020018781526020018681526020018581526020018481526020013373ffffffffffffffffffffffffffffffffffffffff1681526020013373ffffffffffffffffffffffffffffffffffffffff1681526020018381526020018281526020016000151581526020016000151581526020016000815250600560008054815260200190815260200160002060008201518160000155602082015181600101908051906020019061238f929190613097565b5060408201518160020190805190602001906123ac929190613097565b50606082015181600301556080820151816004015560a08201518160050160006101000a81548173ffffffffffffffffffffffffffffffffffffffff021916908373ffffffffffffffffffffffffffffffffffffffff16021790555060c08201518160060160006101000a81548173ffffffffffffffffffffffffffffffffffffffff021916908373ffffffffffffffffffffffffffffffffffffffff16021790555060e0820151816007015561010082015181600801556101208201518160090160006101000a81548160ff0219169083151502179055506101408201518160090160016101000a81548160ff02191690831515021790555061016082015181600a0155905050505050505050565b6124c4613180565b600660008681526020019081526020016000206040518060c001604052908160008201548152602001600182018054600181600116156101000203166002900480601f0160208091040260200160405190810160405280929190818152602001828054600181600116156101000203166002900480156125855780601f1061255a57610100808354040283529160200191612585565b820191906000526020600020905b81548152906001019060200180831161256857829003601f168201915b5050505050815260200160028201548152602001600382015481526020016004820160009054906101000a900473ffffffffffffffffffffffffffffffffffffffff1673ffffffffffffffffffffffffffffffffffffffff1673ffffffffffffffffffffffffffffffffffffffff1681526020016004820160149054906101000a900460ff161515151581525050905082816040015103816040018181525050806006600087815260200190815260200160002060008201518160000155602082015181600101908051906020019061265f929190613097565b50604082015181600201556060820151816003015560808201518160040160006101000a81548173ffffffffffffffffffffffffffffffffffffffff021916908373ffffffffffffffffffffffffffffffffffffffff16021790555060a08201518160040160146101000a81548160ff021916908315150217905550905050600084116126eb57600080fd5b600083116126f857600080fd5b600082511161270657600080fd5b6002600081548092919060010191905055506040518060e0016040528060025481526020018681526020018481526020018581526020018381526020013373ffffffffffffffffffffffffffffffffffffffff1681526020013373ffffffffffffffffffffffffffffffffffffffff168152506007600060025481526020019081526020016000206000820151816000015560208201518160010155604082015181600201556060820151816003015560808201518160040190805190602001906127d2929190613097565b5060a08201518160050160006101000a81548173ffffffffffffffffffffffffffffffffffffffff021916908373ffffffffffffffffffffffffffffffffffffffff16021790555060c08201518160060160006101000a81548173ffffffffffffffffffffffffffffffffffffffff021916908373ffffffffffffffffffffffffffffffffffffffff1602179055509050505050505050565b600083511161287957600080fd5b6000821161288657600080fd5b600081511161289457600080fd5b6004600081548092919060010191905055506040518060800160405280600454815260200184815260200182815260200183815250600960006004548152602001908152602001600020600082015181600001556020820151816001019080519060200190612904929190613097565b506040820151816002019080519060200190612921929190613097565b5060608201518160030155905050505050565b61293c6131ce565b600860008381526020019081526020016000206040518060a0016040529081600082015481526020016001820160009054906101000a900473ffffffffffffffffffffffffffffffffffffffff1673ffffffffffffffffffffffffffffffffffffffff1673ffffffffffffffffffffffffffffffffffffffff1681526020016002820160009054906101000a900473ffffffffffffffffffffffffffffffffffffffff1673ffffffffffffffffffffffffffffffffffffffff1673ffffffffffffffffffffffffffffffffffffffff1681526020016003820154815260200160048201548152505090506000816040015190508073ffffffffffffffffffffffffffffffffffffffff166108fc349081150290604051600060405180830381858888f19350505050158015612a75573d6000803e3d6000fd5b50505050565b60035481565b612a89613006565b600560008581526020019081526020016000206040518061018001604052908160008201548152602001600182018054600181600116156101000203166002900480601f016020809104026020016040519081016040528092919081815260200182805460018160011615610100020316600290048015612b4b5780601f10612b2057610100808354040283529160200191612b4b565b820191906000526020600020905b815481529060010190602001808311612b2e57829003601f168201915b50505050508152602001600282018054600181600116156101000203166002900480601f016020809104026020016040519081016040528092919081815260200182805460018160011615610100020316600290048015612bed5780601f10612bc257610100808354040283529160200191612bed565b820191906000526020600020905b815481529060010190602001808311612bd057829003601f168201915b5050505050815260200160038201548152602001600482015481526020016005820160009054906101000a900473ffffffffffffffffffffffffffffffffffffffff1673ffffffffffffffffffffffffffffffffffffffff1673ffffffffffffffffffffffffffffffffffffffff1681526020016006820160009054906101000a900473ffffffffffffffffffffffffffffffffffffffff1673ffffffffffffffffffffffffffffffffffffffff1673ffffffffffffffffffffffffffffffffffffffff16815260200160078201548152602001600882015481526020016009820160009054906101000a900460ff161515151581526020016009820160019054906101000a900460ff16151515158152602001600a820154815250509050818160e00151038160e0018181525050338160c0019073ffffffffffffffffffffffffffffffffffffffff16908173ffffffffffffffffffffffffffffffffffffffff168152505060008160a00151905060008411612d6a57600080fd5b8160056000878152602001908152602001600020600082015181600001556020820151816001019080519060200190612da4929190613097565b506040820151816002019080519060200190612dc1929190613097565b50606082015181600301556080820151816004015560a08201518160050160006101000a81548173ffffffffffffffffffffffffffffffffffffffff021916908373ffffffffffffffffffffffffffffffffffffffff16021790555060c08201518160060160006101000a81548173ffffffffffffffffffffffffffffffffffffffff021916908373ffffffffffffffffffffffffffffffffffffffff16021790555060e0820151816007015561010082015181600801556101208201518160090160006101000a81548160ff0219169083151502179055506101408201518160090160016101000a81548160ff02191690831515021790555061016082015181600a015590505060008311612ed657600080fd5b6003600081548092919060010191905055506040518060a001604052808681526020018273ffffffffffffffffffffffffffffffffffffffff1681526020013373ffffffffffffffffffffffffffffffffffffffff168152602001858152602001848152506008600060035481526020019081526020016000206000820151816000015560208201518160010160006101000a81548173ffffffffffffffffffffffffffffffffffffffff021916908373ffffffffffffffffffffffffffffffffffffffff16021790555060408201518160020160006101000a81548173ffffffffffffffffffffffffffffffffffffffff021916908373ffffffffffffffffffffffffffffffffffffffff16021790555060608201518160030155608082015181600401559050505050505050565b6040518061018001604052806000815260200160608152602001606081526020016000815260200160008152602001600073ffffffffffffffffffffffffffffffffffffffff168152602001600073ffffffffffffffffffffffffffffffffffffffff1681526020016000815260200160008152602001600015158152602001600015158152602001600081525090565b828054600181600116156101000203166002900490600052602060002090601f016020900481019282601f106130d857805160ff1916838001178555613106565b82800160010185558215613106579182015b828111156131055782518255916020019190600101906130ea565b5b5090506131139190613229565b5090565b6040518060e001604052806000815260200160008152602001600081526020016000815260200160608152602001600073ffffffffffffffffffffffffffffffffffffffff168152602001600073ffffffffffffffffffffffffffffffffffffffff1681525090565b6040518060c0016040528060008152602001606081526020016000815260200160008152602001600073ffffffffffffffffffffffffffffffffffffffff1681526020016000151581525090565b6040518060a0016040528060008152602001600073ffffffffffffffffffffffffffffffffffffffff168152602001600073ffffffffffffffffffffffffffffffffffffffff16815260200160008152602001600081525090565b61324b91905b8082111561324757600081600090555060010161322f565b5090565b9056fea265627a7a723158203674c206c6c9e08f409a2ea10d4b27e987e14497230f1d35e6e5760afe29593d64736f6c63430005100032",
  "source": "pragma solidity ^0.5.0;\r\n\r\ncontract FarmExchange {\r\n    uint public farmerCount = 0;\r\n    uint public processedItemsCount = 0 ;\r\n    uint public marketProductCount = 0;\r\n    uint public dealCount = 0;\r\n    uint public insuranceCount = 0;\r\n    mapping(uint => Farmer) public farmers;\r\n    mapping(uint => ProcessedItem) public processedItems;\r\n    mapping(uint => MarketProduct) public marketProducts;\r\n    \r\n    mapping(uint => Agreement) public deals;\r\n    mapping(uint => Insurance) public insurances;\r\n\r\n        struct Farmer{\r\n        uint farmerId;\r\n        string farmerName;\r\n        string crop;\r\n        uint256 quantity;\r\n        uint256 expectedPrice;\r\n        address payable owner;\r\n        address payable processor;\r\n        uint holding;\r\n        uint costToProduce;\r\n        bool investmentMade;\r\n        bool boughtByProcessor;\r\n        uint processorPrice;\r\n    }\r\n\r\n        struct Insurance {\r\n        uint insuranceId;\r\n        string farmerName;\r\n        string typeOfInsurance;\r\n        uint premium;\r\n    }\r\n\r\n    struct Agreement{\r\n        uint farmerID;\r\n        address farmerAddress;\r\n        address payable investorAddress;\r\n        uint256 amount;\r\n        uint256 holdingPercent;\r\n    }\r\n  \r\n    struct ProcessedItem {\r\n        uint processorId;\r\n        string item;\r\n        uint256 quantity;\r\n        uint farmerId;\r\n        address payable processorAddress;\r\n        bool productPosted;\r\n    }\r\n\r\n    struct MarketProduct {\r\n        uint marketProductId;\r\n        uint processorId;\r\n        uint quantity;\r\n        uint price;\r\n        string name;\r\n        address payable processorAddress;\r\n        address payable buyerAddress;\r\n    }\r\n\r\n    event FarmerCreated(\r\n        uint id,\r\n        string name,\r\n        uint price,\r\n        address payable owner,\r\n        bool purchased\r\n    );\r\n\r\n    function createFarmer(\r\n                        string memory _farmerName,\r\n                        string memory _farmerCrop,\r\n                        uint _farmerQuantity,\r\n                        uint _farmerExpectedPrice,\r\n                        uint holding,\r\n                        uint _costToProduce) public  {\r\n        \r\n        //Require a valid name\r\n        require(bytes(_farmerName).length > 0);\r\n        // Require a valid price\r\n        require(_farmerExpectedPrice > 0);\r\n        // Require a valid quantity\r\n        require(_farmerQuantity > 0);\r\n        // Require a crop\r\n        require(bytes(_farmerCrop).length > 0);\r\n        // require cost to produce to be greater than 0\r\n        require(_costToProduce > 0);\r\n        //Increment product count\r\n        farmerCount ++;\r\n        // Create the farmer\r\n        farmers[farmerCount] = Farmer(farmerCount, _farmerName,\r\n                                    _farmerCrop, _farmerQuantity, _farmerExpectedPrice,\r\n                                     msg.sender, msg.sender, holding, _costToProduce, false, false, 0);\r\n    }\r\n\r\n\r\n    function createInsurance(\r\n                        string memory _farmerName,\r\n                        uint premium,\r\n                        string memory _insuranceType\r\n                        ) public  {\r\n        \r\n        //Require a valid name\r\n        require(bytes(_farmerName).length > 0);\r\n        // Require a valid price\r\n        require(premium > 0);\r\n        // Require a valid quantity\r\n        require(bytes(_insuranceType).length > 0);\r\n        //Increment product count\r\n        insuranceCount ++;\r\n        // Create the farmer\r\n        insurances[insuranceCount] = Insurance(insuranceCount, _farmerName,_insuranceType, premium);\r\n    }\r\n\r\n\r\n\r\n        function payToInvestor(uint _id) public payable {\r\n        Agreement memory _deal = deals[_id];\r\n        address payable _seller = _deal.investorAddress;\r\n        address(_seller).transfer(msg.value);\r\n        }\r\n\r\n        function purchaseFarmerShare(uint _id) public payable {\r\n        // Fetch the product\r\n        Farmer memory _farmer = farmers[_id];\r\n\r\n        _farmer.investmentMade = true;\r\n        // Fetch the owner\r\n        address payable _seller = _farmer.owner;\r\n        // Make sure the product has a valid id\r\n        require(_farmer.farmerId > 0 && _farmer.farmerId <= farmerCount);\r\n        // Require that there is enough Ether in the transaction\r\n        // require(msg.value >= _product.price);\r\n        // Require that the product has not been purchased already\r\n        // require(!_product.purchased);\r\n        // Require that the buyer is not the seller\r\n        require(_seller != msg.sender);\r\n        // Transfer ownership to the buyer\r\n        // Mark as purchased\r\n        _farmer.processor = msg.sender;\r\n        // Update the product\r\n        farmers[_id] = _farmer;\r\n        // Pay the seller by sending them Ether\r\n        address(_seller).transfer(msg.value);\r\n    }\r\n\r\n    function createAgreement(\r\n                        uint _farmerId,\r\n                        uint _amount,\r\n                        uint _holding) public  {\r\n        \r\n               // Fetch the product\r\n        Farmer memory _farmer = farmers[_farmerId];\r\n\r\n        _farmer.holding = _farmer.holding - _holding;\r\n        _farmer.processor = msg.sender;\r\n        // Fetch the owner\r\n        address payable _farmerAddress = _farmer.owner;\r\n        // Require a valid amount\r\n        require(_amount > 0);\r\n\r\n        farmers[_farmerId] = _farmer;\r\n        // Require a valid holding\r\n        require(_holding > 0);\r\n\r\n        dealCount++;\r\n        // Create the agreement\r\n        deals[dealCount] = Agreement(_farmerId, _farmerAddress, msg.sender, \r\n                                    _amount, _holding);\r\n    }\r\n\r\n    function createProcessedItem( string memory item,\r\n                            uint _id, uint pricePerQuantity, uint quantity) public {\r\n        // Require a valid price\r\n        require(pricePerQuantity > 0);\r\n        // Require a valid quantity\r\n        require(quantity > 0);\r\n        // Require a crop\r\n        require(bytes(item).length > 0);\r\n        //Increment product count\r\n        processedItemsCount ++;\r\n        // Create the farmer\r\n        processedItems[processedItemsCount] = ProcessedItem(processedItemsCount, \r\n                                            item, quantity,\r\n                                            _id, msg.sender,false);\r\n\r\n    }\r\n\r\n    function createMarketProduct(uint _id, uint price, uint quantity, string memory name) public {\r\n        \r\n        ProcessedItem memory item = processedItems[_id];\r\n\r\n        item.quantity = item.quantity - quantity;\r\n\r\n        processedItems[_id] = item;\r\n\r\n        require(price > 0);\r\n        // Require a valid quantity\r\n        require(quantity > 0);\r\n        // Require a crop\r\n        require(bytes(name).length > 0);\r\n        //Increment product count\r\n        marketProductCount ++;\r\n        // Create the farmer\r\n        marketProducts[marketProductCount] = MarketProduct( marketProductCount,\r\n                                                _id, quantity, price, name, msg.sender, msg.sender);\r\n    }\r\n\r\n    function purchaseProduct(uint _id, uint quantity) public payable {\r\n        // Fetch the product\r\n        Farmer memory _farmer = farmers[_id];\r\n        // Fetch the owner\r\n        address payable _seller = _farmer.owner;\r\n        _farmer.processorPrice = msg.value;\r\n        _farmer.boughtByProcessor = true;\r\n        // Make sure the product has a valid id\r\n        require(_farmer.farmerId > 0 && _farmer.farmerId <= farmerCount);\r\n        require(_farmer.quantity >= quantity);        \r\n        // Require that there is enough Ether in the transaction\r\n        // require(msg.value >= _product.price);\r\n        // Require that the product has not been purchased already\r\n        // require(!_product.purchased);\r\n        // Require that the buyer is not the seller\r\n        require(_seller != msg.sender);\r\n        // Transfer ownership to the buyer\r\n        _farmer.processor = msg.sender;\r\n        _farmer.quantity = _farmer.quantity - quantity;\r\n        // Update the product\r\n        farmers[_id] = _farmer;\r\n        // Pay the seller by sending them Ether\r\n        address(_seller).transfer(msg.value);\r\n        // Trigger an event\r\n    }\r\n\r\n        function purchaseMarketProduct(uint _id, uint quantity) public payable {\r\n        // Fetch the product\r\n        MarketProduct memory _product = marketProducts[_id];\r\n        // Fetch the owner\r\n        address payable _seller = _product.processorAddress;\r\n        // Make sure the product has a valid id\r\n        require(_product.marketProductId > 0 && _product.marketProductId <= marketProductCount);\r\n        require(_product.quantity >= quantity);        \r\n        // Require that there is enough Ether in the transaction\r\n        // require(msg.value >= _product.price);\r\n        // Require that the product has not been purchased already\r\n        // require(!_product.purchased);\r\n        // Require that the buyer is not the seller\r\n        require(_seller != msg.sender);\r\n        // Transfer ownership to the buyer\r\n        _product.buyerAddress = msg.sender;\r\n        _product.quantity = _product.quantity - quantity;\r\n        // Update the product\r\n        marketProducts[_id] = _product;\r\n        // Pay the seller by sending them Ether\r\n        address(_seller).transfer(msg.value);\r\n        // Trigger an event\r\n    }\r\n}\r\n",
  "sourcePath": "C:\\MscAC\\Blockchain\\2125\\Code\\src\\contracts\\FarmExchange.sol",
  "compiler": {
    "name": "solc",
    "version": "0.5.16+commit.9c3226ce.Emscripten.clang"
  },
  "schemaVersion": "3.4.5",
  "updatedAt": "2022-03-27T00:13:36.150Z",
  "devdoc": {
    "methods": {}
  },
  "userdoc": {
    "methods": {}
  }
}