{
  "contractName": "FarmExchange",
  "abi": [
    {
      "anonymous": false,
      "inputs": [
        {
          "indexed": false,
          "internalType": "uint256",
          "name": "id",
          "type": "uint256"
        },
        {
          "indexed": false,
          "internalType": "string",
          "name": "name",
          "type": "string"
        },
        {
          "indexed": false,
          "internalType": "uint256",
          "name": "price",
          "type": "uint256"
        },
        {
          "indexed": false,
          "internalType": "address payable",
          "name": "owner",
          "type": "address"
        },
        {
          "indexed": false,
          "internalType": "bool",
          "name": "purchased",
          "type": "bool"
        }
      ],
      "name": "FarmerCreated",
      "type": "event"
    },
    {
      "constant": true,
      "inputs": [],
      "name": "farmerCount",
      "outputs": [
        {
          "internalType": "uint256",
          "name": "",
          "type": "uint256"
        }
      ],
      "payable": false,
      "stateMutability": "view",
      "type": "function"
    },
    {
      "constant": true,
      "inputs": [
        {
          "internalType": "uint256",
          "name": "",
          "type": "uint256"
        }
      ],
      "name": "farmers",
      "outputs": [
        {
          "internalType": "uint256",
          "name": "farmerId",
          "type": "uint256"
        },
        {
          "internalType": "string",
          "name": "farmerName",
          "type": "string"
        },
        {
          "internalType": "string",
          "name": "landLocation",
          "type": "string"
        },
        {
          "internalType": "string",
          "name": "crop",
          "type": "string"
        },
        {
          "internalType": "uint256",
          "name": "quantity",
          "type": "uint256"
        },
        {
          "internalType": "uint256",
          "name": "expectedPrice",
          "type": "uint256"
        },
        {
          "internalType": "string",
          "name": "expDate",
          "type": "string"
        },
        {
          "internalType": "address payable",
          "name": "owner",
          "type": "address"
        },
        {
          "internalType": "address payable",
          "name": "investor",
          "type": "address"
        },
        {
          "internalType": "uint256",
          "name": "holding",
          "type": "uint256"
        },
        {
          "internalType": "uint256",
          "name": "costToProduce",
          "type": "uint256"
        }
      ],
      "payable": false,
      "stateMutability": "view",
      "type": "function"
    },
    {
      "constant": true,
      "inputs": [
        {
          "internalType": "uint256",
          "name": "",
          "type": "uint256"
        }
      ],
      "name": "processedItems",
      "outputs": [
        {
          "internalType": "uint256",
          "name": "processorId",
          "type": "uint256"
        },
        {
          "internalType": "string",
          "name": "item",
          "type": "string"
        },
        {
          "internalType": "uint256",
          "name": "quantity",
          "type": "uint256"
        },
        {
          "internalType": "uint256",
          "name": "farmerId",
          "type": "uint256"
        },
        {
          "internalType": "address payable",
          "name": "processorAddress",
          "type": "address"
        },
        {
          "internalType": "bool",
          "name": "productPosted",
          "type": "bool"
        }
      ],
      "payable": false,
      "stateMutability": "view",
      "type": "function"
    },
    {
      "constant": true,
      "inputs": [],
      "name": "processedItemsCount",
      "outputs": [
        {
          "internalType": "uint256",
          "name": "",
          "type": "uint256"
        }
      ],
      "payable": false,
      "stateMutability": "view",
      "type": "function"
    },
    {
      "constant": false,
      "inputs": [
        {
          "internalType": "string",
          "name": "_farmerName",
          "type": "string"
        },
        {
          "internalType": "string",
          "name": "_farmerLandLocation",
          "type": "string"
        },
        {
          "internalType": "string",
          "name": "_farmerCrop",
          "type": "string"
        },
        {
          "internalType": "uint256",
          "name": "_farmerQuantity",
          "type": "uint256"
        },
        {
          "internalType": "uint256",
          "name": "_farmerExpectedPrice",
          "type": "uint256"
        },
        {
          "internalType": "string",
          "name": "_farmerExpiryDate",
          "type": "string"
        },
        {
          "internalType": "uint256",
          "name": "holding",
          "type": "uint256"
        },
        {
          "internalType": "uint256",
          "name": "_costToProduce",
          "type": "uint256"
        }
      ],
      "name": "createFarmer",
      "outputs": [],
      "payable": false,
      "stateMutability": "nonpayable",
      "type": "function"
    },
    {
      "constant": false,
      "inputs": [
        {
          "internalType": "string",
          "name": "item",
          "type": "string"
        },
        {
          "internalType": "uint256",
          "name": "_id",
          "type": "uint256"
        },
        {
          "internalType": "uint256",
          "name": "pricePerQuantity",
          "type": "uint256"
        },
        {
          "internalType": "uint256",
          "name": "quantity",
          "type": "uint256"
        }
      ],
      "name": "createProcessedItem",
      "outputs": [],
      "payable": false,
      "stateMutability": "nonpayable",
      "type": "function"
    },
    {
      "constant": false,
      "inputs": [
        {
          "internalType": "uint256",
          "name": "_id",
          "type": "uint256"
        },
        {
          "internalType": "uint256",
          "name": "quantity",
          "type": "uint256"
        }
      ],
      "name": "purchaseProduct",
      "outputs": [],
      "payable": true,
      "stateMutability": "payable",
      "type": "function"
    }
  ],
  "bytecode": "0x608060405260008055600060015534801561001957600080fd5b506116de806100296000396000f3fe6080604052600436106100705760003560e01c8063a04404261161004e578063a044042614610428578063b168f4fc14610460578063bd45b39714610716578063c7dd8ff41461074157610070565b80631a60ed50146100755780635028a0251461017c5780638afdd669146101a7575b600080fd5b34801561008157600080fd5b506100ae6004803603602081101561009857600080fd5b8101908080359060200190929190505050610827565b60405180878152602001806020018681526020018581526020018473ffffffffffffffffffffffffffffffffffffffff1673ffffffffffffffffffffffffffffffffffffffff16815260200183151515158152602001828103825287818151815260200191508051906020019080838360005b8381101561013c578082015181840152602081019050610121565b50505050905090810190601f1680156101695780820380516001836020036101000a031916815260200191505b5097505050505050505060405180910390f35b34801561018857600080fd5b50610191610928565b6040518082815260200191505060405180910390f35b3480156101b357600080fd5b506101e0600480360360208110156101ca57600080fd5b810190808035906020019092919050505061092e565b604051808c81526020018060200180602001806020018b81526020018a8152602001806020018973ffffffffffffffffffffffffffffffffffffffff1673ffffffffffffffffffffffffffffffffffffffff1681526020018873ffffffffffffffffffffffffffffffffffffffff1673ffffffffffffffffffffffffffffffffffffffff16815260200187815260200186815260200185810385528f818151815260200191508051906020019080838360005b838110156102ae578082015181840152602081019050610293565b50505050905090810190601f1680156102db5780820380516001836020036101000a031916815260200191505b5085810384528e818151815260200191508051906020019080838360005b838110156103145780820151818401526020810190506102f9565b50505050905090810190601f1680156103415780820380516001836020036101000a031916815260200191505b5085810383528d818151815260200191508051906020019080838360005b8381101561037a57808201518184015260208101905061035f565b50505050905090810190601f1680156103a75780820380516001836020036101000a031916815260200191505b5085810382528a818151815260200191508051906020019080838360005b838110156103e05780820151818401526020810190506103c5565b50505050905090810190601f16801561040d5780820380516001836020036101000a031916815260200191505b509f5050505050505050505050505050505060405180910390f35b61045e6004803603604081101561043e57600080fd5b810190808035906020019092919080359060200190929190505050610c28565b005b34801561046c57600080fd5b50610714600480360361010081101561048457600080fd5b81019080803590602001906401000000008111156104a157600080fd5b8201836020820111156104b357600080fd5b803590602001918460018302840111640100000000831117156104d557600080fd5b91908080601f016020809104026020016040519081016040528093929190818152602001838380828437600081840152601f19601f8201169050808301925050505050505091929192908035906020019064010000000081111561053857600080fd5b82018360208201111561054a57600080fd5b8035906020019184600183028401116401000000008311171561056c57600080fd5b91908080601f016020809104026020016040519081016040528093929190818152602001838380828437600081840152601f19601f820116905080830192505050505050509192919290803590602001906401000000008111156105cf57600080fd5b8201836020820111156105e157600080fd5b8035906020019184600183028401116401000000008311171561060357600080fd5b91908080601f016020809104026020016040519081016040528093929190818152602001838380828437600081840152601f19601f82011690508083019250505050505050919291929080359060200190929190803590602001909291908035906020019064010000000081111561067a57600080fd5b82018360208201111561068c57600080fd5b803590602001918460018302840111640100000000831117156106ae57600080fd5b91908080601f016020809104026020016040519081016040528093929190818152602001838380828437600081840152601f19601f8201169050808301925050505050505091929192908035906020019092919080359060200190929190505050611210565b005b34801561072257600080fd5b5061072b611436565b6040518082815260200191505060405180910390f35b34801561074d57600080fd5b506108256004803603608081101561076457600080fd5b810190808035906020019064010000000081111561078157600080fd5b82018360208201111561079357600080fd5b803590602001918460018302840111640100000000831117156107b557600080fd5b91908080601f016020809104026020016040519081016040528093929190818152602001838380828437600081840152601f19601f82011690508083019250505050505050919291929080359060200190929190803590602001909291908035906020019092919050505061143c565b005b6003602052806000526040600020600091509050806000015490806001018054600181600116156101000203166002900480601f0160208091040260200160405190810160405280929190818152602001828054600181600116156101000203166002900480156108d95780601f106108ae576101008083540402835291602001916108d9565b820191906000526020600020905b8154815290600101906020018083116108bc57829003601f168201915b5050505050908060020154908060030154908060040160009054906101000a900473ffffffffffffffffffffffffffffffffffffffff16908060040160149054906101000a900460ff16905086565b60015481565b6002602052806000526040600020600091509050806000015490806001018054600181600116156101000203166002900480601f0160208091040260200160405190810160405280929190818152602001828054600181600116156101000203166002900480156109e05780601f106109b5576101008083540402835291602001916109e0565b820191906000526020600020905b8154815290600101906020018083116109c357829003601f168201915b505050505090806002018054600181600116156101000203166002900480601f016020809104026020016040519081016040528092919081815260200182805460018160011615610100020316600290048015610a7e5780601f10610a5357610100808354040283529160200191610a7e565b820191906000526020600020905b815481529060010190602001808311610a6157829003601f168201915b505050505090806003018054600181600116156101000203166002900480601f016020809104026020016040519081016040528092919081815260200182805460018160011615610100020316600290048015610b1c5780601f10610af157610100808354040283529160200191610b1c565b820191906000526020600020905b815481529060010190602001808311610aff57829003601f168201915b505050505090806004015490806005015490806006018054600181600116156101000203166002900480601f016020809104026020016040519081016040528092919081815260200182805460018160011615610100020316600290048015610bc65780601f10610b9b57610100808354040283529160200191610bc6565b820191906000526020600020905b815481529060010190602001808311610ba957829003601f168201915b5050505050908060070160009054906101000a900473ffffffffffffffffffffffffffffffffffffffff16908060080160009054906101000a900473ffffffffffffffffffffffffffffffffffffffff169080600901549080600a015490508b565b610c3061157e565b600260008481526020019081526020016000206040518061016001604052908160008201548152602001600182018054600181600116156101000203166002900480601f016020809104026020016040519081016040528092919081815260200182805460018160011615610100020316600290048015610cf25780601f10610cc757610100808354040283529160200191610cf2565b820191906000526020600020905b815481529060010190602001808311610cd557829003601f168201915b50505050508152602001600282018054600181600116156101000203166002900480601f016020809104026020016040519081016040528092919081815260200182805460018160011615610100020316600290048015610d945780601f10610d6957610100808354040283529160200191610d94565b820191906000526020600020905b815481529060010190602001808311610d7757829003601f168201915b50505050508152602001600382018054600181600116156101000203166002900480601f016020809104026020016040519081016040528092919081815260200182805460018160011615610100020316600290048015610e365780601f10610e0b57610100808354040283529160200191610e36565b820191906000526020600020905b815481529060010190602001808311610e1957829003601f168201915b505050505081526020016004820154815260200160058201548152602001600682018054600181600116156101000203166002900480601f016020809104026020016040519081016040528092919081815260200182805460018160011615610100020316600290048015610eec5780601f10610ec157610100808354040283529160200191610eec565b820191906000526020600020905b815481529060010190602001808311610ecf57829003601f168201915b505050505081526020016007820160009054906101000a900473ffffffffffffffffffffffffffffffffffffffff1673ffffffffffffffffffffffffffffffffffffffff1673ffffffffffffffffffffffffffffffffffffffff1681526020016008820160009054906101000a900473ffffffffffffffffffffffffffffffffffffffff1673ffffffffffffffffffffffffffffffffffffffff1673ffffffffffffffffffffffffffffffffffffffff16815260200160098201548152602001600a82015481525050905060008160e00151905060008260000151118015610fda5750600054826000015111155b610fe357600080fd5b8282608001511015610ff457600080fd5b3373ffffffffffffffffffffffffffffffffffffffff168173ffffffffffffffffffffffffffffffffffffffff16141561102d57600080fd5b338260e0019073ffffffffffffffffffffffffffffffffffffffff16908173ffffffffffffffffffffffffffffffffffffffff16815250508282608001510382608001818152505081600260008681526020019081526020016000206000820151816000015560208201518160010190805190602001906110af929190611604565b5060408201518160020190805190602001906110cc929190611604565b5060608201518160030190805190602001906110e9929190611604565b506080820151816004015560a0820151816005015560c082015181600601908051906020019061111a929190611604565b5060e08201518160070160006101000a81548173ffffffffffffffffffffffffffffffffffffffff021916908373ffffffffffffffffffffffffffffffffffffffff1602179055506101008201518160080160006101000a81548173ffffffffffffffffffffffffffffffffffffffff021916908373ffffffffffffffffffffffffffffffffffffffff160217905550610120820151816009015561014082015181600a01559050508073ffffffffffffffffffffffffffffffffffffffff166108fc349081150290604051600060405180830381858888f19350505050158015611209573d6000803e3d6000fd5b5050505050565b600088511161121e57600080fd5b6000841161122b57600080fd5b6000851161123857600080fd5b600086511161124657600080fd5b6000811161125357600080fd5b600080815480929190600101919050555060405180610160016040528060005481526020018981526020018881526020018781526020018681526020018581526020018481526020013373ffffffffffffffffffffffffffffffffffffffff1681526020013373ffffffffffffffffffffffffffffffffffffffff168152602001838152602001828152506002600080548152602001908152602001600020600082015181600001556020820151816001019080519060200190611318929190611604565b506040820151816002019080519060200190611335929190611604565b506060820151816003019080519060200190611352929190611604565b506080820151816004015560a0820151816005015560c0820151816006019080519060200190611383929190611604565b5060e08201518160070160006101000a81548173ffffffffffffffffffffffffffffffffffffffff021916908373ffffffffffffffffffffffffffffffffffffffff1602179055506101008201518160080160006101000a81548173ffffffffffffffffffffffffffffffffffffffff021916908373ffffffffffffffffffffffffffffffffffffffff160217905550610120820151816009015561014082015181600a01559050505050505050505050565b60005481565b6000821161144957600080fd5b6000811161145657600080fd5b600084511161146457600080fd5b6001600081548092919060010191905055506040518060c0016040528060015481526020018581526020018281526020018481526020013373ffffffffffffffffffffffffffffffffffffffff168152602001600015158152506003600060015481526020019081526020016000206000820151816000015560208201518160010190805190602001906114f9929190611604565b50604082015181600201556060820151816003015560808201518160040160006101000a81548173ffffffffffffffffffffffffffffffffffffffff021916908373ffffffffffffffffffffffffffffffffffffffff16021790555060a08201518160040160146101000a81548160ff02191690831515021790555090505050505050565b60405180610160016040528060008152602001606081526020016060815260200160608152602001600081526020016000815260200160608152602001600073ffffffffffffffffffffffffffffffffffffffff168152602001600073ffffffffffffffffffffffffffffffffffffffff16815260200160008152602001600081525090565b828054600181600116156101000203166002900490600052602060002090601f016020900481019282601f1061164557805160ff1916838001178555611673565b82800160010185558215611673579182015b82811115611672578251825591602001919060010190611657565b5b5090506116809190611684565b5090565b6116a691905b808211156116a257600081600090555060010161168a565b5090565b9056fea265627a7a72315820364479dc6688836c443908b6d01196c1459d198aa2df1f25b3969724df2ba4b464736f6c63430005100032",
  "source": "pragma solidity ^0.5.0;\r\n\r\ncontract FarmExchange {\r\n    uint public farmerCount = 0;\r\n    uint public processedItemsCount = 0 ;\r\n    mapping(uint => Farmer) public farmers;\r\n    mapping(uint => ProcessedItem) public processedItems;\r\n\r\n        struct Farmer{\r\n        uint farmerId;\r\n        string farmerName;\r\n        string landLocation;\r\n        string crop;\r\n        uint256 quantity;\r\n        uint256 expectedPrice;\r\n        string expDate;\r\n        address payable owner;\r\n        address payable investor;\r\n        uint holding;\r\n        uint costToProduce;\r\n    }\r\n\r\n    struct ProcessedItem {\r\n        uint processorId;\r\n        string item;\r\n        uint256 quantity;\r\n        uint farmerId;\r\n        address payable processorAddress;\r\n        bool productPosted;\r\n    }\r\n\r\n    event FarmerCreated(\r\n        uint id,\r\n        string name,\r\n        uint price,\r\n        address payable owner,\r\n        bool purchased\r\n    );\r\n\r\n    // event ProductPurchased(\r\n    //     uint id,\r\n    //     string name,\r\n    //     uint price,\r\n    //     address payable owner,\r\n    //     bool purchased\r\n    // );\r\n\r\n\r\n    function createFarmer(\r\n                        string memory _farmerName,\r\n                        string memory _farmerLandLocation,\r\n                        string memory _farmerCrop,\r\n                        uint _farmerQuantity,\r\n                        uint _farmerExpectedPrice,\r\n                        string memory _farmerExpiryDate,\r\n                        uint holding,\r\n                        uint _costToProduce) public  {\r\n        \r\n        //Require a valid name\r\n        require(bytes(_farmerName).length > 0);\r\n        // Require a valid price\r\n        require(_farmerExpectedPrice > 0);\r\n        // Require a valid quantity\r\n        require(_farmerQuantity > 0);\r\n        // Require a crop\r\n        require(bytes(_farmerCrop).length > 0);\r\n        // require cost to produce to be greater than 0\r\n        require(_costToProduce > 0);\r\n        //Increment product count\r\n        farmerCount ++;\r\n        // Create the farmer\r\n        farmers[farmerCount] = Farmer(farmerCount, _farmerName, _farmerLandLocation, \r\n                                    _farmerCrop, _farmerQuantity, _farmerExpectedPrice,\r\n                                    _farmerExpiryDate, msg.sender, msg.sender, holding, _costToProduce);\r\n    }\r\n\r\n\r\n    function createProcessedItem( string memory item,\r\n                            uint _id, uint pricePerQuantity, uint quantity) public {\r\n        // Require a valid price\r\n        require(pricePerQuantity > 0);\r\n        // Require a valid quantity\r\n        require(quantity > 0);\r\n        // Require a crop\r\n        require(bytes(item).length > 0);\r\n        //Increment product count\r\n        processedItemsCount ++;\r\n        // Create the farmer\r\n        processedItems[processedItemsCount] = ProcessedItem(processedItemsCount, \r\n                                            item, quantity,\r\n                                            _id, msg.sender,false);\r\n\r\n    }\r\n\r\n    function purchaseProduct(uint _id, uint quantity) public payable {\r\n        // Fetch the product\r\n        Farmer memory _farmer = farmers[_id];\r\n        // Fetch the owner\r\n        address payable _seller = _farmer.owner;\r\n        // Make sure the product has a valid id\r\n        require(_farmer.farmerId > 0 && _farmer.farmerId <= farmerCount);\r\n        require(_farmer.quantity >= quantity);\r\n\r\n\r\n        \r\n        \r\n        // Require that there is enough Ether in the transaction\r\n        // require(msg.value >= _product.price);\r\n        // Require that the product has not been purchased already\r\n        // require(!_product.purchased);\r\n        // Require that the buyer is not the seller\r\n        require(_seller != msg.sender);\r\n        // Transfer ownership to the buyer\r\n        _farmer.owner = msg.sender;\r\n        _farmer.quantity = _farmer.quantity - quantity;\r\n        // Update the product\r\n        farmers[_id] = _farmer;\r\n        // Pay the seller by sending them Ether\r\n        address(_seller).transfer(msg.value);\r\n        // Trigger an event\r\n    }\r\n}\r\n",
  "sourcePath": "C:\\MscAC\\Blockchain\\2125\\Code\\src\\contracts\\FarmExchange.sol",
  "compiler": {
    "name": "solc",
    "version": "0.5.16+commit.9c3226ce.Emscripten.clang"
  },
  "schemaVersion": "3.4.5",
  "updatedAt": "2022-03-23T03:34:26.843Z",
  "devdoc": {
    "methods": {}
  },
  "userdoc": {
    "methods": {}
  }
}