{
  "contractName": "FarmExchange",
  "abi": [
    {
      "anonymous": false,
      "inputs": [
        {
          "indexed": false,
          "internalType": "uint256",
          "name": "id",
          "type": "uint256"
        },
        {
          "indexed": false,
          "internalType": "string",
          "name": "name",
          "type": "string"
        },
        {
          "indexed": false,
          "internalType": "uint256",
          "name": "price",
          "type": "uint256"
        },
        {
          "indexed": false,
          "internalType": "address payable",
          "name": "owner",
          "type": "address"
        },
        {
          "indexed": false,
          "internalType": "bool",
          "name": "purchased",
          "type": "bool"
        }
      ],
      "name": "FarmerCreated",
      "type": "event"
    },
    {
      "constant": true,
      "inputs": [],
      "name": "dealCount",
      "outputs": [
        {
          "internalType": "uint256",
          "name": "",
          "type": "uint256"
        }
      ],
      "payable": false,
      "stateMutability": "view",
      "type": "function"
    },
    {
      "constant": true,
      "inputs": [
        {
          "internalType": "uint256",
          "name": "",
          "type": "uint256"
        }
      ],
      "name": "deals",
      "outputs": [
        {
          "internalType": "uint256",
          "name": "farmerID",
          "type": "uint256"
        },
        {
          "internalType": "address",
          "name": "farmerAddress",
          "type": "address"
        },
        {
          "internalType": "address payable",
          "name": "investorAddress",
          "type": "address"
        },
        {
          "internalType": "uint256",
          "name": "amount",
          "type": "uint256"
        },
        {
          "internalType": "uint256",
          "name": "holdingPercent",
          "type": "uint256"
        }
      ],
      "payable": false,
      "stateMutability": "view",
      "type": "function"
    },
    {
      "constant": true,
      "inputs": [],
      "name": "farmerCount",
      "outputs": [
        {
          "internalType": "uint256",
          "name": "",
          "type": "uint256"
        }
      ],
      "payable": false,
      "stateMutability": "view",
      "type": "function"
    },
    {
      "constant": true,
      "inputs": [
        {
          "internalType": "uint256",
          "name": "",
          "type": "uint256"
        }
      ],
      "name": "farmers",
      "outputs": [
        {
          "internalType": "uint256",
          "name": "farmerId",
          "type": "uint256"
        },
        {
          "internalType": "string",
          "name": "crop",
          "type": "string"
        },
        {
          "internalType": "uint256",
          "name": "quantity",
          "type": "uint256"
        },
        {
          "internalType": "uint256",
          "name": "expectedPrice",
          "type": "uint256"
        },
        {
          "internalType": "address payable",
          "name": "owner",
          "type": "address"
        },
        {
          "internalType": "address payable",
          "name": "processor",
          "type": "address"
        },
        {
          "internalType": "uint256",
          "name": "holding",
          "type": "uint256"
        },
        {
          "internalType": "uint256",
          "name": "costToProduce",
          "type": "uint256"
        },
        {
          "internalType": "bool",
          "name": "investmentMade",
          "type": "bool"
        },
        {
          "internalType": "bool",
          "name": "boughtByProcessor",
          "type": "bool"
        },
        {
          "internalType": "uint256",
          "name": "processorPrice",
          "type": "uint256"
        },
        {
          "internalType": "uint256",
          "name": "farmerRating",
          "type": "uint256"
        },
        {
          "internalType": "uint256",
          "name": "totalRatings",
          "type": "uint256"
        }
      ],
      "payable": false,
      "stateMutability": "view",
      "type": "function"
    },
    {
      "constant": true,
      "inputs": [],
      "name": "insuranceCount",
      "outputs": [
        {
          "internalType": "uint256",
          "name": "",
          "type": "uint256"
        }
      ],
      "payable": false,
      "stateMutability": "view",
      "type": "function"
    },
    {
      "constant": true,
      "inputs": [
        {
          "internalType": "uint256",
          "name": "",
          "type": "uint256"
        }
      ],
      "name": "insurances",
      "outputs": [
        {
          "internalType": "uint256",
          "name": "insuranceId",
          "type": "uint256"
        },
        {
          "internalType": "string",
          "name": "farmerName",
          "type": "string"
        },
        {
          "internalType": "string",
          "name": "typeOfInsurance",
          "type": "string"
        },
        {
          "internalType": "uint256",
          "name": "premium",
          "type": "uint256"
        }
      ],
      "payable": false,
      "stateMutability": "view",
      "type": "function"
    },
    {
      "constant": true,
      "inputs": [],
      "name": "marketProductCount",
      "outputs": [
        {
          "internalType": "uint256",
          "name": "",
          "type": "uint256"
        }
      ],
      "payable": false,
      "stateMutability": "view",
      "type": "function"
    },
    {
      "constant": true,
      "inputs": [
        {
          "internalType": "uint256",
          "name": "",
          "type": "uint256"
        }
      ],
      "name": "marketProducts",
      "outputs": [
        {
          "internalType": "uint256",
          "name": "marketProductId",
          "type": "uint256"
        },
        {
          "internalType": "uint256",
          "name": "processorId",
          "type": "uint256"
        },
        {
          "internalType": "uint256",
          "name": "quantity",
          "type": "uint256"
        },
        {
          "internalType": "uint256",
          "name": "price",
          "type": "uint256"
        },
        {
          "internalType": "string",
          "name": "name",
          "type": "string"
        },
        {
          "internalType": "address payable",
          "name": "processorAddress",
          "type": "address"
        },
        {
          "internalType": "address payable",
          "name": "buyerAddress",
          "type": "address"
        },
        {
          "internalType": "uint256",
          "name": "productRating",
          "type": "uint256"
        },
        {
          "internalType": "uint256",
          "name": "productTotalRatings",
          "type": "uint256"
        }
      ],
      "payable": false,
      "stateMutability": "view",
      "type": "function"
    },
    {
      "constant": true,
      "inputs": [
        {
          "internalType": "uint256",
          "name": "",
          "type": "uint256"
        }
      ],
      "name": "processedItems",
      "outputs": [
        {
          "internalType": "uint256",
          "name": "processorId",
          "type": "uint256"
        },
        {
          "internalType": "string",
          "name": "item",
          "type": "string"
        },
        {
          "internalType": "uint256",
          "name": "quantity",
          "type": "uint256"
        },
        {
          "internalType": "uint256",
          "name": "farmerId",
          "type": "uint256"
        },
        {
          "internalType": "address payable",
          "name": "processorAddress",
          "type": "address"
        },
        {
          "internalType": "bool",
          "name": "productPosted",
          "type": "bool"
        }
      ],
      "payable": false,
      "stateMutability": "view",
      "type": "function"
    },
    {
      "constant": true,
      "inputs": [],
      "name": "processedItemsCount",
      "outputs": [
        {
          "internalType": "uint256",
          "name": "",
          "type": "uint256"
        }
      ],
      "payable": false,
      "stateMutability": "view",
      "type": "function"
    },
    {
      "constant": false,
      "inputs": [
        {
          "internalType": "string",
          "name": "_farmerName",
          "type": "string"
        },
        {
          "internalType": "string",
          "name": "_farmerCrop",
          "type": "string"
        },
        {
          "internalType": "uint256",
          "name": "_farmerQuantity",
          "type": "uint256"
        },
        {
          "internalType": "uint256",
          "name": "_farmerExpectedPrice",
          "type": "uint256"
        },
        {
          "internalType": "uint256",
          "name": "holding",
          "type": "uint256"
        },
        {
          "internalType": "uint256",
          "name": "_costToProduce",
          "type": "uint256"
        }
      ],
      "name": "createFarmer",
      "outputs": [],
      "payable": false,
      "stateMutability": "nonpayable",
      "type": "function"
    },
    {
      "constant": false,
      "inputs": [
        {
          "internalType": "string",
          "name": "_farmerName",
          "type": "string"
        },
        {
          "internalType": "uint256",
          "name": "premium",
          "type": "uint256"
        },
        {
          "internalType": "string",
          "name": "_insuranceType",
          "type": "string"
        }
      ],
      "name": "createInsurance",
      "outputs": [],
      "payable": false,
      "stateMutability": "nonpayable",
      "type": "function"
    },
    {
      "constant": false,
      "inputs": [
        {
          "internalType": "uint256",
          "name": "_id",
          "type": "uint256"
        }
      ],
      "name": "payToInvestor",
      "outputs": [],
      "payable": true,
      "stateMutability": "payable",
      "type": "function"
    },
    {
      "constant": false,
      "inputs": [
        {
          "internalType": "uint256",
          "name": "_id",
          "type": "uint256"
        }
      ],
      "name": "purchaseFarmerShare",
      "outputs": [],
      "payable": true,
      "stateMutability": "payable",
      "type": "function"
    },
    {
      "constant": false,
      "inputs": [
        {
          "internalType": "uint256",
          "name": "_farmerId",
          "type": "uint256"
        },
        {
          "internalType": "uint256",
          "name": "_amount",
          "type": "uint256"
        },
        {
          "internalType": "uint256",
          "name": "_holding",
          "type": "uint256"
        }
      ],
      "name": "createAgreement",
      "outputs": [],
      "payable": false,
      "stateMutability": "nonpayable",
      "type": "function"
    },
    {
      "constant": false,
      "inputs": [
        {
          "internalType": "string",
          "name": "item",
          "type": "string"
        },
        {
          "internalType": "uint256",
          "name": "_id",
          "type": "uint256"
        },
        {
          "internalType": "uint256",
          "name": "pricePerQuantity",
          "type": "uint256"
        },
        {
          "internalType": "uint256",
          "name": "quantity",
          "type": "uint256"
        }
      ],
      "name": "createProcessedItem",
      "outputs": [],
      "payable": false,
      "stateMutability": "nonpayable",
      "type": "function"
    },
    {
      "constant": false,
      "inputs": [
        {
          "internalType": "uint256",
          "name": "_id",
          "type": "uint256"
        },
        {
          "internalType": "uint256",
          "name": "price",
          "type": "uint256"
        },
        {
          "internalType": "uint256",
          "name": "quantity",
          "type": "uint256"
        },
        {
          "internalType": "string",
          "name": "name",
          "type": "string"
        }
      ],
      "name": "createMarketProduct",
      "outputs": [],
      "payable": false,
      "stateMutability": "nonpayable",
      "type": "function"
    },
    {
      "constant": false,
      "inputs": [
        {
          "internalType": "uint256",
          "name": "_id",
          "type": "uint256"
        },
        {
          "internalType": "uint256",
          "name": "quantity",
          "type": "uint256"
        }
      ],
      "name": "purchaseProduct",
      "outputs": [],
      "payable": true,
      "stateMutability": "payable",
      "type": "function"
    },
    {
      "constant": false,
      "inputs": [
        {
          "internalType": "uint256",
          "name": "_id",
          "type": "uint256"
        },
        {
          "internalType": "uint256",
          "name": "quantity",
          "type": "uint256"
        }
      ],
      "name": "purchaseMarketProduct",
      "outputs": [],
      "payable": true,
      "stateMutability": "payable",
      "type": "function"
    },
    {
      "constant": false,
      "inputs": [
        {
          "internalType": "uint256",
          "name": "_farmerId",
          "type": "uint256"
        },
        {
          "internalType": "uint256",
          "name": "_farmerRating",
          "type": "uint256"
        }
      ],
      "name": "createFarmerRating",
      "outputs": [],
      "payable": false,
      "stateMutability": "nonpayable",
      "type": "function"
    },
    {
      "constant": false,
      "inputs": [
        {
          "internalType": "uint256",
          "name": "_marketProductId",
          "type": "uint256"
        },
        {
          "internalType": "uint256",
          "name": "_marketProductRating",
          "type": "uint256"
        }
      ],
      "name": "createMarketProductRating",
      "outputs": [],
      "payable": false,
      "stateMutability": "nonpayable",
      "type": "function"
    }
  ],
  "bytecode": "0x608060405260008055600060015560006002556000600355600060045534801561002857600080fd5b50613806806100386000396000f3fe60806040526004361061012a5760003560e01c80638afdd669116100ab578063c8378fde1161006f578063c8378fde1461098d578063dc3e6caa14610b14578063de71f2d214610bfa578063eaab5c8714610d63578063eadb3c9c14610d91578063fe8b41ff14610dbc5761012a565b80638afdd669146106a4578063a04404261461080c578063ab11b55114610844578063bd45b3971461087c578063c7dd8ff4146108a75761012a565b8063521a6e94116100f2578063521a6e941461039457806359fb49f9146103bf5780635ad801c3146104ed57806371ede946146105325780638556543f146105605761012a565b806303988f841461012f5780630b30a84e146101f25780631a60ed501461021d578063371ff5b5146103245780635028a02514610369575b600080fd5b34801561013b57600080fd5b506101686004803603602081101561015257600080fd5b8101908080359060200190929190505050610e0b565b604051808681526020018573ffffffffffffffffffffffffffffffffffffffff1673ffffffffffffffffffffffffffffffffffffffff1681526020018473ffffffffffffffffffffffffffffffffffffffff1673ffffffffffffffffffffffffffffffffffffffff1681526020018381526020018281526020019550505050505060405180910390f35b3480156101fe57600080fd5b50610207610e81565b6040518082815260200191505060405180910390f35b34801561022957600080fd5b506102566004803603602081101561024057600080fd5b8101908080359060200190929190505050610e87565b60405180878152602001806020018681526020018581526020018473ffffffffffffffffffffffffffffffffffffffff1673ffffffffffffffffffffffffffffffffffffffff16815260200183151515158152602001828103825287818151815260200191508051906020019080838360005b838110156102e45780820151818401526020810190506102c9565b50505050905090810190601f1680156103115780820380516001836020036101000a031916815260200191505b5097505050505050505060405180910390f35b34801561033057600080fd5b506103676004803603604081101561034757600080fd5b810190808035906020019092919080359060200190929190505050610f88565b005b34801561037557600080fd5b5061037e611366565b6040518082815260200191505060405180910390f35b3480156103a057600080fd5b506103a961136c565b6040518082815260200191505060405180910390f35b3480156103cb57600080fd5b506103f8600480360360208110156103e257600080fd5b8101908080359060200190929190505050611372565b604051808581526020018060200180602001848152602001838103835286818151815260200191508051906020019080838360005b8381101561044857808201518184015260208101905061042d565b50505050905090810190601f1680156104755780820380516001836020036101000a031916815260200191505b50838103825285818151815260200191508051906020019080838360005b838110156104ae578082015181840152602081019050610493565b50505050905090810190601f1680156104db5780820380516001836020036101000a031916815260200191505b50965050505050505060405180910390f35b3480156104f957600080fd5b506105306004803603604081101561051057600080fd5b8101908080359060200190929190803590602001909291905050506114d2565b005b61055e6004803603602081101561054857600080fd5b810190808035906020019092919050505061180b565b005b34801561056c57600080fd5b506105996004803603602081101561058357600080fd5b8101908080359060200190929190505050611c5a565b604051808a8152602001898152602001888152602001878152602001806020018673ffffffffffffffffffffffffffffffffffffffff1673ffffffffffffffffffffffffffffffffffffffff1681526020018573ffffffffffffffffffffffffffffffffffffffff1673ffffffffffffffffffffffffffffffffffffffff168152602001848152602001838152602001828103825287818151815260200191508051906020019080838360005b83811015610661578082015181840152602081019050610646565b50505050905090810190601f16801561068e5780820380516001836020036101000a031916815260200191505b509a505050505050505050505060405180910390f35b3480156106b057600080fd5b506106dd600480360360208110156106c757600080fd5b8101908080359060200190929190505050611d80565b604051808e8152602001806020018d81526020018c81526020018b73ffffffffffffffffffffffffffffffffffffffff1673ffffffffffffffffffffffffffffffffffffffff1681526020018a73ffffffffffffffffffffffffffffffffffffffff1673ffffffffffffffffffffffffffffffffffffffff168152602001898152602001888152602001871515151581526020018615151515815260200185815260200184815260200183815260200182810382528e818151815260200191508051906020019080838360005b838110156107c55780820151818401526020810190506107aa565b50505050905090810190601f1680156107f25780820380516001836020036101000a031916815260200191505b509e50505050505050505050505050505060405180910390f35b6108426004803603604081101561082257600080fd5b810190808035906020019092919080359060200190929190505050611ed8565b005b61087a6004803603604081101561085a57600080fd5b810190808035906020019092919080359060200190929190505050612354565b005b34801561088857600080fd5b50610891612711565b6040518082815260200191505060405180910390f35b3480156108b357600080fd5b5061098b600480360360808110156108ca57600080fd5b81019080803590602001906401000000008111156108e757600080fd5b8201836020820111156108f957600080fd5b8035906020019184600183028401116401000000008311171561091b57600080fd5b91908080601f016020809104026020016040519081016040528093929190818152602001838380828437600081840152601f19601f820116905080830192505050505050509192919290803590602001909291908035906020019092919080359060200190929190505050612717565b005b34801561099957600080fd5b50610b12600480360360c08110156109b057600080fd5b81019080803590602001906401000000008111156109cd57600080fd5b8201836020820111156109df57600080fd5b80359060200191846001830284011164010000000083111715610a0157600080fd5b91908080601f016020809104026020016040519081016040528093929190818152602001838380828437600081840152601f19601f82011690508083019250505050505050919291929080359060200190640100000000811115610a6457600080fd5b820183602082011115610a7657600080fd5b80359060200191846001830284011164010000000083111715610a9857600080fd5b91908080601f016020809104026020016040519081016040528093929190818152602001838380828437600081840152601f19601f82011690508083019250505050505050919291929080359060200190929190803590602001909291908035906020019092919080359060200190929190505050612859565b005b348015610b2057600080fd5b50610bf860048036036080811015610b3757600080fd5b8101908080359060200190929190803590602001909291908035906020019092919080359060200190640100000000811115610b7257600080fd5b820183602082011115610b8457600080fd5b80359060200191846001830284011164010000000083111715610ba657600080fd5b91908080601f016020809104026020016040519081016040528093929190818152602001838380828437600081840152601f19601f820116905080830192505050505050509192919290505050612a9b565b005b348015610c0657600080fd5b50610d6160048036036060811015610c1d57600080fd5b8101908080359060200190640100000000811115610c3a57600080fd5b820183602082011115610c4c57600080fd5b80359060200191846001830284011164010000000083111715610c6e57600080fd5b91908080601f016020809104026020016040519081016040528093929190818152602001838380828437600081840152601f19601f8201169050808301925050505050505091929192908035906020019092919080359060200190640100000000811115610cdb57600080fd5b820183602082011115610ced57600080fd5b80359060200191846001830284011164010000000083111715610d0f57600080fd5b91908080601f016020809104026020016040519081016040528093929190818152602001838380828437600081840152601f19601f820116905080830192505050505050509192919290505050612e6e565b005b610d8f60048036036020811015610d7957600080fd5b8101908080359060200190929190505050612f37565b005b348015610d9d57600080fd5b50610da661307e565b6040518082815260200191505060405180910390f35b348015610dc857600080fd5b50610e0960048036036060811015610ddf57600080fd5b81019080803590602001909291908035906020019092919080359060200190929190505050613084565b005b60086020528060005260406000206000915090508060000154908060010160009054906101000a900473ffffffffffffffffffffffffffffffffffffffff16908060020160009054906101000a900473ffffffffffffffffffffffffffffffffffffffff16908060030154908060040154905085565b60025481565b6006602052806000526040600020600091509050806000015490806001018054600181600116156101000203166002900480601f016020809104026020016040519081016040528092919081815260200182805460018160011615610100020316600290048015610f395780601f10610f0e57610100808354040283529160200191610f39565b820191906000526020600020905b815481529060010190602001808311610f1c57829003601f168201915b5050505050908060020154908060030154908060040160009054906101000a900473ffffffffffffffffffffffffffffffffffffffff16908060040160149054906101000a900460ff16905086565b60008211610f9557600080fd5b60008111610fa257600080fd5b610faa613573565b60056000848152602001908152602001600020604051806101a001604052908160008201548152602001600182018054600181600116156101000203166002900480601f01602080910402602001604051908101604052809291908181526020018280546001816001161561010002031660029004801561106c5780601f106110415761010080835404028352916020019161106c565b820191906000526020600020905b81548152906001019060200180831161104f57829003601f168201915b5050505050815260200160028201548152602001600382015481526020016004820160009054906101000a900473ffffffffffffffffffffffffffffffffffffffff1673ffffffffffffffffffffffffffffffffffffffff1673ffffffffffffffffffffffffffffffffffffffff1681526020016005820160009054906101000a900473ffffffffffffffffffffffffffffffffffffffff1673ffffffffffffffffffffffffffffffffffffffff1673ffffffffffffffffffffffffffffffffffffffff16815260200160068201548152602001600782015481526020016008820160009054906101000a900460ff161515151581526020016008820160019054906101000a900460ff1615151515815260200160098201548152602001600a8201548152602001600b820154815250509050600081610180015114156111c957600181610180018181525050818161016001818152505061120a565b600081610180015182610160015102905060018261018001510182610180018181525050816101800151838201816111fd57fe5b0482610160018181525050505b806005600085815260200190815260200160002060008201518160000155602082015181600101908051906020019061124492919061360b565b50604082015181600201556060820151816003015560808201518160040160006101000a81548173ffffffffffffffffffffffffffffffffffffffff021916908373ffffffffffffffffffffffffffffffffffffffff16021790555060a08201518160050160006101000a81548173ffffffffffffffffffffffffffffffffffffffff021916908373ffffffffffffffffffffffffffffffffffffffff16021790555060c0820151816006015560e082015181600701556101008201518160080160006101000a81548160ff0219169083151502179055506101208201518160080160016101000a81548160ff021916908315150217905550610140820151816009015561016082015181600a015561018082015181600b0155905050505050565b60015481565b60045481565b6009602052806000526040600020600091509050806000015490806001018054600181600116156101000203166002900480601f0160208091040260200160405190810160405280929190818152602001828054600181600116156101000203166002900480156114245780601f106113f957610100808354040283529160200191611424565b820191906000526020600020905b81548152906001019060200180831161140757829003601f168201915b505050505090806002018054600181600116156101000203166002900480601f0160208091040260200160405190810160405280929190818152602001828054600181600116156101000203166002900480156114c25780601f10611497576101008083540402835291602001916114c2565b820191906000526020600020905b8154815290600101906020018083116114a557829003601f168201915b5050505050908060030154905084565b600082116114df57600080fd5b600081116114ec57600080fd5b6114f461368b565b600760008481526020019081526020016000206040518061012001604052908160008201548152602001600182015481526020016002820154815260200160038201548152602001600482018054600181600116156101000203166002900480601f0160208091040260200160405190810160405280929190818152602001828054600181600116156101000203166002900480156115d45780601f106115a9576101008083540402835291602001916115d4565b820191906000526020600020905b8154815290600101906020018083116115b757829003601f168201915b505050505081526020016005820160009054906101000a900473ffffffffffffffffffffffffffffffffffffffff1673ffffffffffffffffffffffffffffffffffffffff1673ffffffffffffffffffffffffffffffffffffffff1681526020016006820160009054906101000a900473ffffffffffffffffffffffffffffffffffffffff1673ffffffffffffffffffffffffffffffffffffffff1673ffffffffffffffffffffffffffffffffffffffff168152602001600782015481526020016008820154815250509050600081610100015114156116c857600181610100018181525050818160e0018181525050611707565b60008161010001518260e0015102905060018261010001510182610100018181525050816101000151838201816116fb57fe5b048260e0018181525050505b806007600085815260200190815260200160002060008201518160000155602082015181600101556040820151816002015560608201518160030155608082015181600401908051906020019061175f92919061360b565b5060a08201518160050160006101000a81548173ffffffffffffffffffffffffffffffffffffffff021916908373ffffffffffffffffffffffffffffffffffffffff16021790555060c08201518160060160006101000a81548173ffffffffffffffffffffffffffffffffffffffff021916908373ffffffffffffffffffffffffffffffffffffffff16021790555060e082015181600701556101008201518160080155905050505050565b611813613573565b60056000838152602001908152602001600020604051806101a001604052908160008201548152602001600182018054600181600116156101000203166002900480601f0160208091040260200160405190810160405280929190818152602001828054600181600116156101000203166002900480156118d55780601f106118aa576101008083540402835291602001916118d5565b820191906000526020600020905b8154815290600101906020018083116118b857829003601f168201915b5050505050815260200160028201548152602001600382015481526020016004820160009054906101000a900473ffffffffffffffffffffffffffffffffffffffff1673ffffffffffffffffffffffffffffffffffffffff1673ffffffffffffffffffffffffffffffffffffffff1681526020016005820160009054906101000a900473ffffffffffffffffffffffffffffffffffffffff1673ffffffffffffffffffffffffffffffffffffffff1673ffffffffffffffffffffffffffffffffffffffff16815260200160068201548152602001600782015481526020016008820160009054906101000a900460ff161515151581526020016008820160019054906101000a900460ff1615151515815260200160098201548152602001600a8201548152602001600b82015481525050905060018161010001901515908115158152505060008160800151905060008260000151118015611a3d5750600054826000015111155b611a4657600080fd5b3373ffffffffffffffffffffffffffffffffffffffff168173ffffffffffffffffffffffffffffffffffffffff161415611a7f57600080fd5b338260a0019073ffffffffffffffffffffffffffffffffffffffff16908173ffffffffffffffffffffffffffffffffffffffff16815250508160056000858152602001908152602001600020600082015181600001556020820151816001019080519060200190611af192919061360b565b50604082015181600201556060820151816003015560808201518160040160006101000a81548173ffffffffffffffffffffffffffffffffffffffff021916908373ffffffffffffffffffffffffffffffffffffffff16021790555060a08201518160050160006101000a81548173ffffffffffffffffffffffffffffffffffffffff021916908373ffffffffffffffffffffffffffffffffffffffff16021790555060c0820151816006015560e082015181600701556101008201518160080160006101000a81548160ff0219169083151502179055506101208201518160080160016101000a81548160ff021916908315150217905550610140820151816009015561016082015181600a015561018082015181600b01559050508073ffffffffffffffffffffffffffffffffffffffff166108fc349081150290604051600060405180830381858888f19350505050158015611c54573d6000803e3d6000fd5b50505050565b6007602052806000526040600020600091509050806000015490806001015490806002015490806003015490806004018054600181600116156101000203166002900480601f016020809104026020016040519081016040528092919081815260200182805460018160011615610100020316600290048015611d1e5780601f10611cf357610100808354040283529160200191611d1e565b820191906000526020600020905b815481529060010190602001808311611d0157829003601f168201915b5050505050908060050160009054906101000a900473ffffffffffffffffffffffffffffffffffffffff16908060060160009054906101000a900473ffffffffffffffffffffffffffffffffffffffff16908060070154908060080154905089565b6005602052806000526040600020600091509050806000015490806001018054600181600116156101000203166002900480601f016020809104026020016040519081016040528092919081815260200182805460018160011615610100020316600290048015611e325780601f10611e0757610100808354040283529160200191611e32565b820191906000526020600020905b815481529060010190602001808311611e1557829003601f168201915b5050505050908060020154908060030154908060040160009054906101000a900473ffffffffffffffffffffffffffffffffffffffff16908060050160009054906101000a900473ffffffffffffffffffffffffffffffffffffffff16908060060154908060070154908060080160009054906101000a900460ff16908060080160019054906101000a900460ff169080600901549080600a01549080600b015490508d565b611ee0613573565b60056000848152602001908152602001600020604051806101a001604052908160008201548152602001600182018054600181600116156101000203166002900480601f016020809104026020016040519081016040528092919081815260200182805460018160011615610100020316600290048015611fa25780601f10611f7757610100808354040283529160200191611fa2565b820191906000526020600020905b815481529060010190602001808311611f8557829003601f168201915b5050505050815260200160028201548152602001600382015481526020016004820160009054906101000a900473ffffffffffffffffffffffffffffffffffffffff1673ffffffffffffffffffffffffffffffffffffffff1673ffffffffffffffffffffffffffffffffffffffff1681526020016005820160009054906101000a900473ffffffffffffffffffffffffffffffffffffffff1673ffffffffffffffffffffffffffffffffffffffff1673ffffffffffffffffffffffffffffffffffffffff16815260200160068201548152602001600782015481526020016008820160009054906101000a900460ff161515151581526020016008820160019054906101000a900460ff1615151515815260200160098201548152602001600a8201548152602001600b8201548152505090506000816080015190503482610140018181525050600182610120019015159081151581525050600082600001511180156121155750600054826000015111155b61211e57600080fd5b828260400151101561212f57600080fd5b3373ffffffffffffffffffffffffffffffffffffffff168173ffffffffffffffffffffffffffffffffffffffff16141561216857600080fd5b338260a0019073ffffffffffffffffffffffffffffffffffffffff16908173ffffffffffffffffffffffffffffffffffffffff16815250508282604001510382604001818152505081600560008681526020019081526020016000206000820151816000015560208201518160010190805190602001906121ea92919061360b565b50604082015181600201556060820151816003015560808201518160040160006101000a81548173ffffffffffffffffffffffffffffffffffffffff021916908373ffffffffffffffffffffffffffffffffffffffff16021790555060a08201518160050160006101000a81548173ffffffffffffffffffffffffffffffffffffffff021916908373ffffffffffffffffffffffffffffffffffffffff16021790555060c0820151816006015560e082015181600701556101008201518160080160006101000a81548160ff0219169083151502179055506101208201518160080160016101000a81548160ff021916908315150217905550610140820151816009015561016082015181600a015561018082015181600b01559050508073ffffffffffffffffffffffffffffffffffffffff166108fc349081150290604051600060405180830381858888f1935050505015801561234d573d6000803e3d6000fd5b5050505050565b61235c61368b565b600760008481526020019081526020016000206040518061012001604052908160008201548152602001600182015481526020016002820154815260200160038201548152602001600482018054600181600116156101000203166002900480601f01602080910402602001604051908101604052809291908181526020018280546001816001161561010002031660029004801561243c5780601f106124115761010080835404028352916020019161243c565b820191906000526020600020905b81548152906001019060200180831161241f57829003601f168201915b505050505081526020016005820160009054906101000a900473ffffffffffffffffffffffffffffffffffffffff1673ffffffffffffffffffffffffffffffffffffffff1673ffffffffffffffffffffffffffffffffffffffff1681526020016006820160009054906101000a900473ffffffffffffffffffffffffffffffffffffffff1673ffffffffffffffffffffffffffffffffffffffff1673ffffffffffffffffffffffffffffffffffffffff16815260200160078201548152602001600882015481525050905060008160a0015190506000826000015111801561252a5750600254826000015111155b61253357600080fd5b828260400151101561254457600080fd5b3373ffffffffffffffffffffffffffffffffffffffff168173ffffffffffffffffffffffffffffffffffffffff16141561257d57600080fd5b338260c0019073ffffffffffffffffffffffffffffffffffffffff16908173ffffffffffffffffffffffffffffffffffffffff168152505082826040015103826040018181525050816007600086815260200190815260200160002060008201518160000155602082015181600101556040820151816002015560608201518160030155608082015181600401908051906020019061261d92919061360b565b5060a08201518160050160006101000a81548173ffffffffffffffffffffffffffffffffffffffff021916908373ffffffffffffffffffffffffffffffffffffffff16021790555060c08201518160060160006101000a81548173ffffffffffffffffffffffffffffffffffffffff021916908373ffffffffffffffffffffffffffffffffffffffff16021790555060e0820151816007015561010082015181600801559050508073ffffffffffffffffffffffffffffffffffffffff166108fc349081150290604051600060405180830381858888f1935050505015801561270a573d6000803e3d6000fd5b5050505050565b60005481565b6000821161272457600080fd5b6000811161273157600080fd5b600084511161273f57600080fd5b6001600081548092919060010191905055506040518060c0016040528060015481526020018581526020018281526020018481526020013373ffffffffffffffffffffffffffffffffffffffff168152602001600015158152506006600060015481526020019081526020016000206000820151816000015560208201518160010190805190602001906127d492919061360b565b50604082015181600201556060820151816003015560808201518160040160006101000a81548173ffffffffffffffffffffffffffffffffffffffff021916908373ffffffffffffffffffffffffffffffffffffffff16021790555060a08201518160040160146101000a81548160ff02191690831515021790555090505050505050565b600086511161286757600080fd5b6000831161287457600080fd5b6000841161288157600080fd5b600085511161288f57600080fd5b6000811161289c57600080fd5b6000808154809291906001019190505550604051806101a0016040528060005481526020018681526020018581526020018481526020013373ffffffffffffffffffffffffffffffffffffffff1681526020013373ffffffffffffffffffffffffffffffffffffffff16815260200183815260200182815260200160001515815260200160001515815260200160008152602001600081526020016000815250600560008054815260200190815260200160002060008201518160000155602082015181600101908051906020019061297692919061360b565b50604082015181600201556060820151816003015560808201518160040160006101000a81548173ffffffffffffffffffffffffffffffffffffffff021916908373ffffffffffffffffffffffffffffffffffffffff16021790555060a08201518160050160006101000a81548173ffffffffffffffffffffffffffffffffffffffff021916908373ffffffffffffffffffffffffffffffffffffffff16021790555060c0820151816006015560e082015181600701556101008201518160080160006101000a81548160ff0219169083151502179055506101208201518160080160016101000a81548160ff021916908315150217905550610140820151816009015561016082015181600a015561018082015181600b0155905050505050505050565b612aa3613703565b600660008681526020019081526020016000206040518060c001604052908160008201548152602001600182018054600181600116156101000203166002900480601f016020809104026020016040519081016040528092919081815260200182805460018160011615610100020316600290048015612b645780601f10612b3957610100808354040283529160200191612b64565b820191906000526020600020905b815481529060010190602001808311612b4757829003601f168201915b5050505050815260200160028201548152602001600382015481526020016004820160009054906101000a900473ffffffffffffffffffffffffffffffffffffffff1673ffffffffffffffffffffffffffffffffffffffff1673ffffffffffffffffffffffffffffffffffffffff1681526020016004820160149054906101000a900460ff1615151515815250509050828160400151038160400181815250508060066000878152602001908152602001600020600082015181600001556020820151816001019080519060200190612c3e92919061360b565b50604082015181600201556060820151816003015560808201518160040160006101000a81548173ffffffffffffffffffffffffffffffffffffffff021916908373ffffffffffffffffffffffffffffffffffffffff16021790555060a08201518160040160146101000a81548160ff02191690831515021790555090505060008411612cca57600080fd5b60008311612cd757600080fd5b6000825111612ce557600080fd5b60026000815480929190600101919050555060405180610120016040528060025481526020018681526020018481526020018581526020018381526020013373ffffffffffffffffffffffffffffffffffffffff1681526020013373ffffffffffffffffffffffffffffffffffffffff168152602001600081526020016000815250600760006002548152602001908152602001600020600082015181600001556020820151816001015560408201518160020155606082015181600301556080820151816004019080519060200190612dc092919061360b565b5060a08201518160050160006101000a81548173ffffffffffffffffffffffffffffffffffffffff021916908373ffffffffffffffffffffffffffffffffffffffff16021790555060c08201518160060160006101000a81548173ffffffffffffffffffffffffffffffffffffffff021916908373ffffffffffffffffffffffffffffffffffffffff16021790555060e0820151816007015561010082015181600801559050505050505050565b6000835111612e7c57600080fd5b60008211612e8957600080fd5b6000815111612e9757600080fd5b6004600081548092919060010191905055506040518060800160405280600454815260200184815260200182815260200183815250600960006004548152602001908152602001600020600082015181600001556020820151816001019080519060200190612f0792919061360b565b506040820151816002019080519060200190612f2492919061360b565b5060608201518160030155905050505050565b612f3f613751565b600860008381526020019081526020016000206040518060a0016040529081600082015481526020016001820160009054906101000a900473ffffffffffffffffffffffffffffffffffffffff1673ffffffffffffffffffffffffffffffffffffffff1673ffffffffffffffffffffffffffffffffffffffff1681526020016002820160009054906101000a900473ffffffffffffffffffffffffffffffffffffffff1673ffffffffffffffffffffffffffffffffffffffff1673ffffffffffffffffffffffffffffffffffffffff1681526020016003820154815260200160048201548152505090506000816040015190508073ffffffffffffffffffffffffffffffffffffffff166108fc349081150290604051600060405180830381858888f19350505050158015613078573d6000803e3d6000fd5b50505050565b60035481565b61308c613573565b60056000858152602001908152602001600020604051806101a001604052908160008201548152602001600182018054600181600116156101000203166002900480601f01602080910402602001604051908101604052809291908181526020018280546001816001161561010002031660029004801561314e5780601f106131235761010080835404028352916020019161314e565b820191906000526020600020905b81548152906001019060200180831161313157829003601f168201915b5050505050815260200160028201548152602001600382015481526020016004820160009054906101000a900473ffffffffffffffffffffffffffffffffffffffff1673ffffffffffffffffffffffffffffffffffffffff1673ffffffffffffffffffffffffffffffffffffffff1681526020016005820160009054906101000a900473ffffffffffffffffffffffffffffffffffffffff1673ffffffffffffffffffffffffffffffffffffffff1673ffffffffffffffffffffffffffffffffffffffff16815260200160068201548152602001600782015481526020016008820160009054906101000a900460ff161515151581526020016008820160019054906101000a900460ff1615151515815260200160098201548152602001600a8201548152602001600b820154815250509050818160c00151038160c0018181525050338160a0019073ffffffffffffffffffffffffffffffffffffffff16908173ffffffffffffffffffffffffffffffffffffffff1681525050600081608001519050600084116132df57600080fd5b816005600087815260200190815260200160002060008201518160000155602082015181600101908051906020019061331992919061360b565b50604082015181600201556060820151816003015560808201518160040160006101000a81548173ffffffffffffffffffffffffffffffffffffffff021916908373ffffffffffffffffffffffffffffffffffffffff16021790555060a08201518160050160006101000a81548173ffffffffffffffffffffffffffffffffffffffff021916908373ffffffffffffffffffffffffffffffffffffffff16021790555060c0820151816006015560e082015181600701556101008201518160080160006101000a81548160ff0219169083151502179055506101208201518160080160016101000a81548160ff021916908315150217905550610140820151816009015561016082015181600a015561018082015181600b01559050506000831161344357600080fd5b6003600081548092919060010191905055506040518060a001604052808681526020018273ffffffffffffffffffffffffffffffffffffffff1681526020013373ffffffffffffffffffffffffffffffffffffffff168152602001858152602001848152506008600060035481526020019081526020016000206000820151816000015560208201518160010160006101000a81548173ffffffffffffffffffffffffffffffffffffffff021916908373ffffffffffffffffffffffffffffffffffffffff16021790555060408201518160020160006101000a81548173ffffffffffffffffffffffffffffffffffffffff021916908373ffffffffffffffffffffffffffffffffffffffff16021790555060608201518160030155608082015181600401559050505050505050565b604051806101a0016040528060008152602001606081526020016000815260200160008152602001600073ffffffffffffffffffffffffffffffffffffffff168152602001600073ffffffffffffffffffffffffffffffffffffffff16815260200160008152602001600081526020016000151581526020016000151581526020016000815260200160008152602001600081525090565b828054600181600116156101000203166002900490600052602060002090601f016020900481019282601f1061364c57805160ff191683800117855561367a565b8280016001018555821561367a579182015b8281111561367957825182559160200191906001019061365e565b5b50905061368791906137ac565b5090565b6040518061012001604052806000815260200160008152602001600081526020016000815260200160608152602001600073ffffffffffffffffffffffffffffffffffffffff168152602001600073ffffffffffffffffffffffffffffffffffffffff16815260200160008152602001600081525090565b6040518060c0016040528060008152602001606081526020016000815260200160008152602001600073ffffffffffffffffffffffffffffffffffffffff1681526020016000151581525090565b6040518060a0016040528060008152602001600073ffffffffffffffffffffffffffffffffffffffff168152602001600073ffffffffffffffffffffffffffffffffffffffff16815260200160008152602001600081525090565b6137ce91905b808211156137ca5760008160009055506001016137b2565b5090565b9056fea265627a7a72315820030ecfb39fe1875f83107b8b7e8feed0747ba40e9c0ad4f8a616206004dfac6464736f6c63430005100032",
  "source": "pragma solidity ^0.5.0;\r\n\r\nimport \"./ConsumerRole.sol\";\r\n\r\n\r\ncontract FarmExchange  {\r\n    uint public farmerCount = 0;\r\n    uint public processedItemsCount = 0 ;\r\n    uint public marketProductCount = 0;\r\n    uint public dealCount = 0;\r\n    uint public insuranceCount = 0;\r\n    mapping(uint => Farmer) public farmers;\r\n    mapping(uint => ProcessedItem) public processedItems;\r\n    mapping(uint => MarketProduct) public marketProducts;\r\n    \r\n    mapping(uint => Agreement) public deals;\r\n    mapping(uint => Insurance) public insurances;\r\n\r\n        struct Farmer{\r\n        uint farmerId;\r\n        string crop;\r\n        uint256 quantity;\r\n        uint256 expectedPrice;\r\n        address payable owner;\r\n        address payable processor;\r\n        uint holding;\r\n        uint costToProduce;\r\n        bool investmentMade;\r\n        bool boughtByProcessor;\r\n        uint processorPrice;\r\n        uint farmerRating;\r\n        uint totalRatings;\r\n    }\r\n\r\n        struct Insurance {\r\n        uint insuranceId;\r\n        string farmerName;\r\n        string typeOfInsurance;\r\n        uint premium;\r\n    }\r\n\r\n    struct Agreement{\r\n        uint farmerID;\r\n        address farmerAddress;\r\n        address payable investorAddress;\r\n        uint256 amount;\r\n        uint256 holdingPercent;\r\n    }\r\n  \r\n    struct ProcessedItem {\r\n        uint processorId;\r\n        string item;\r\n        uint256 quantity;\r\n        uint farmerId;\r\n        address payable processorAddress;\r\n        bool productPosted;\r\n    }\r\n\r\n    struct MarketProduct {\r\n        uint marketProductId;\r\n        uint processorId;\r\n        uint quantity;\r\n        uint price;\r\n        string name;\r\n        address payable processorAddress;\r\n        address payable buyerAddress;\r\n        uint productRating;\r\n        uint productTotalRatings;\r\n    }\r\n\r\n    event FarmerCreated(\r\n        uint id,\r\n        string name,\r\n        uint price,\r\n        address payable owner,\r\n        bool purchased\r\n    );\r\n\r\n    function createFarmer(\r\n                        string memory _farmerName,\r\n                        string memory _farmerCrop,\r\n                        uint _farmerQuantity,\r\n                        uint _farmerExpectedPrice,\r\n                        uint holding,\r\n                        uint _costToProduce) public  {\r\n        \r\n        //Require a valid name\r\n        require(bytes(_farmerName).length > 0);\r\n\r\n        // Require a valid price\r\n        require(_farmerExpectedPrice > 0);\r\n        // Require a valid quantity\r\n        require(_farmerQuantity > 0);\r\n        // Require a crop\r\n        require(bytes(_farmerCrop).length > 0);\r\n        // require cost to produce to be greater than 0\r\n        require(_costToProduce > 0);\r\n        //Increment product count\r\n        farmerCount ++;\r\n        // Create the farmer\r\n        farmers[farmerCount] = Farmer(farmerCount,\r\n                                    _farmerCrop, _farmerQuantity, _farmerExpectedPrice,\r\n                                     msg.sender, msg.sender, holding, _costToProduce, false, false, 0, 0, 0);\r\n    }\r\n\r\n\r\n    function createInsurance(\r\n                        string memory _farmerName,\r\n                        uint premium,\r\n                        string memory _insuranceType\r\n                        ) public  {\r\n        \r\n        //Require a valid name\r\n        require(bytes(_farmerName).length > 0);\r\n        // Require a valid price\r\n        require(premium > 0);\r\n        // Require a valid quantity\r\n        require(bytes(_insuranceType).length > 0);\r\n        //Increment product count\r\n        insuranceCount ++;\r\n        // Create the farmer\r\n        insurances[insuranceCount] = Insurance(insuranceCount, _farmerName,_insuranceType, premium);\r\n    }\r\n\r\n\r\n\r\n        function payToInvestor(uint _id) public payable {\r\n        Agreement memory _deal = deals[_id];\r\n        address payable _seller = _deal.investorAddress;\r\n        address(_seller).transfer(msg.value);\r\n        }\r\n\r\n        function purchaseFarmerShare(uint _id) public payable {\r\n        // Fetch the product\r\n        Farmer memory _farmer = farmers[_id];\r\n\r\n        _farmer.investmentMade = true;\r\n        // Fetch the owner\r\n        address payable _seller = _farmer.owner;\r\n        // Make sure the product has a valid id\r\n        require(_farmer.farmerId > 0 && _farmer.farmerId <= farmerCount);\r\n        // Require that there is enough Ether in the transaction\r\n        // require(msg.value >= _product.price);\r\n        // Require that the product has not been purchased already\r\n        // require(!_product.purchased);\r\n        // Require that the buyer is not the seller\r\n        require(_seller != msg.sender);\r\n        // Transfer ownership to the buyer\r\n        // Mark as purchased\r\n        _farmer.processor = msg.sender;\r\n        // Update the product\r\n        farmers[_id] = _farmer;\r\n        // Pay the seller by sending them Ether\r\n        address(_seller).transfer(msg.value);\r\n    }\r\n\r\n    function createAgreement(\r\n                        uint _farmerId,\r\n                        uint _amount,\r\n                        uint _holding) public  {\r\n        \r\n               // Fetch the product\r\n        Farmer memory _farmer = farmers[_farmerId];\r\n\r\n        _farmer.holding = _farmer.holding - _holding;\r\n        _farmer.processor = msg.sender;\r\n        // Fetch the owner\r\n        address payable _farmerAddress = _farmer.owner;\r\n        // Require a valid amount\r\n        require(_amount > 0);\r\n\r\n        farmers[_farmerId] = _farmer;\r\n        // Require a valid holding\r\n        require(_holding > 0);\r\n\r\n        dealCount++;\r\n        // Create the agreement\r\n        deals[dealCount] = Agreement(_farmerId, _farmerAddress, msg.sender, \r\n                                    _amount, _holding);\r\n    }\r\n\r\n    function createProcessedItem( string memory item,\r\n                            uint _id, uint pricePerQuantity, uint quantity) public {\r\n        // Require a valid price\r\n        require(pricePerQuantity > 0);\r\n        // Require a valid quantity\r\n        require(quantity > 0);\r\n        // Require a crop\r\n        require(bytes(item).length > 0);\r\n        //Increment product count\r\n        processedItemsCount ++;\r\n        // Create the farmer\r\n        processedItems[processedItemsCount] = ProcessedItem(processedItemsCount, \r\n                                            item, quantity,\r\n                                            _id, msg.sender,false);\r\n\r\n    }\r\n\r\n    function createMarketProduct(uint _id, uint price, uint quantity, string memory name) public {\r\n        \r\n        ProcessedItem memory item = processedItems[_id];\r\n        item.quantity = item.quantity - quantity;\r\n\r\n        processedItems[_id] = item;\r\n        require(price > 0);\r\n        // Require a valid quantity\r\n        require(quantity > 0);\r\n        // Require a crop\r\n        require(bytes(name).length > 0);\r\n        //Increment product count\r\n        marketProductCount ++;\r\n        // Create the farmer\r\n        marketProducts[marketProductCount] = MarketProduct( marketProductCount,\r\n                                                _id, quantity, price, name, msg.sender, msg.sender, 0, 0);\r\n    }\r\n\r\n    function purchaseProduct(uint _id, uint quantity) public payable   {\r\n        // Fetch the product\r\n        Farmer memory _farmer = farmers[_id];\r\n        // Fetch the owner\r\n        address payable _seller = _farmer.owner;\r\n        _farmer.processorPrice = msg.value;\r\n        _farmer.boughtByProcessor = true;\r\n        // Make sure the product has a valid id\r\n        require(_farmer.farmerId > 0 && _farmer.farmerId <= farmerCount);\r\n        require(_farmer.quantity >= quantity);        \r\n        // Require that there is enough Ether in the transaction\r\n        // require(msg.value >= _product.price);\r\n        // Require that the product has not been purchased already\r\n        // require(!_product.purchased);\r\n        // Require that the buyer is not the seller\r\n        require(_seller != msg.sender);\r\n        // Transfer ownership to the buyer\r\n        _farmer.processor = msg.sender;\r\n        _farmer.quantity = _farmer.quantity - quantity;\r\n        // Update the product\r\n        farmers[_id] = _farmer;\r\n        // Pay the seller by sending them Ether\r\n        address(_seller).transfer(msg.value);\r\n        // Trigger an event\r\n    }\r\n\r\n        function purchaseMarketProduct(uint _id, uint quantity) public payable {\r\n        // Fetch the product\r\n        MarketProduct memory _product = marketProducts[_id];\r\n        // Fetch the owner\r\n        address payable _seller = _product.processorAddress;\r\n        // Make sure the product has a valid id\r\n        require(_product.marketProductId > 0 && _product.marketProductId <= marketProductCount);\r\n        require(_product.quantity >= quantity);        \r\n        // Require that there is enough Ether in the transaction\r\n        // require(msg.value >= _product.price);\r\n        // Require that the product has not been purchased already\r\n        // require(!_product.purchased);\r\n        // Require that the buyer is not the seller\r\n        require(_seller != msg.sender);\r\n        // Transfer ownership to the buyer\r\n        _product.buyerAddress = msg.sender;\r\n        _product.quantity = _product.quantity - quantity;\r\n        // Update the product\r\n        marketProducts[_id] = _product;\r\n        // Pay the seller by sending them Ether\r\n        address(_seller).transfer(msg.value);\r\n        // Trigger an event\r\n    }\r\n\r\n        function createFarmerRating(\r\n                        uint _farmerId,\r\n                        uint _farmerRating) public  {\r\n        \r\n        //Require a valid name\r\n        require( _farmerId > 0);\r\n\r\n        // Require a valid price\r\n        require(_farmerRating > 0);\r\n\r\n        Farmer memory _farmer = farmers[_farmerId];\r\n\r\n        if (_farmer.totalRatings == 0) {\r\n            _farmer.totalRatings = 1;\r\n            _farmer.farmerRating = _farmerRating;\r\n        } else {\r\n\r\n        uint total = _farmer.farmerRating * _farmer.totalRatings;\r\n        _farmer.totalRatings = _farmer.totalRatings + 1;\r\n        _farmer.farmerRating = (total + _farmerRating)/_farmer.totalRatings;\r\n        }\r\n\r\n        farmers[_farmerId] = _farmer;\r\n\r\n}\r\n\r\n        function createMarketProductRating(\r\n                        uint _marketProductId,\r\n                        uint _marketProductRating) public  {\r\n        \r\n        //Require a valid name\r\n        require( _marketProductId > 0);\r\n\r\n        // Require a valid price\r\n        require(_marketProductRating > 0);\r\n\r\n        MarketProduct memory _marketProduct = marketProducts[_marketProductId];\r\n\r\n        if (_marketProduct.productTotalRatings == 0) {\r\n            _marketProduct.productTotalRatings = 1;\r\n            _marketProduct.productRating = _marketProductRating;\r\n        } else {\r\n        uint total = _marketProduct.productRating * _marketProduct.productTotalRatings;\r\n        _marketProduct.productTotalRatings = _marketProduct.productTotalRatings + 1;\r\n        _marketProduct.productRating = (total + _marketProductRating)/_marketProduct.productTotalRatings;\r\n        }\r\n\r\n        marketProducts[_marketProductId] = _marketProduct;\r\n}\r\n}\r\n",
  "sourcePath": "C:\\MscAC\\Blockchain\\2125\\Code\\src\\contracts\\FarmExchange.sol",
  "compiler": {
    "name": "solc",
    "version": "0.5.16+commit.9c3226ce.Emscripten.clang"
  },
  "schemaVersion": "3.4.5",
  "updatedAt": "2022-04-02T20:32:16.945Z",
  "devdoc": {
    "methods": {}
  },
  "userdoc": {
    "methods": {}
  }
}