{
  "contractName": "FarmExchange",
  "abi": [
    {
      "anonymous": false,
      "inputs": [
        {
          "indexed": false,
          "internalType": "uint256",
          "name": "id",
          "type": "uint256"
        },
        {
          "indexed": false,
          "internalType": "string",
          "name": "name",
          "type": "string"
        },
        {
          "indexed": false,
          "internalType": "uint256",
          "name": "price",
          "type": "uint256"
        },
        {
          "indexed": false,
          "internalType": "address payable",
          "name": "owner",
          "type": "address"
        },
        {
          "indexed": false,
          "internalType": "bool",
          "name": "purchased",
          "type": "bool"
        }
      ],
      "name": "FarmerCreated",
      "type": "event"
    },
    {
      "constant": true,
      "inputs": [],
      "name": "farmerCount",
      "outputs": [
        {
          "internalType": "uint256",
          "name": "",
          "type": "uint256"
        }
      ],
      "payable": false,
      "stateMutability": "view",
      "type": "function"
    },
    {
      "constant": true,
      "inputs": [
        {
          "internalType": "uint256",
          "name": "",
          "type": "uint256"
        }
      ],
      "name": "farmers",
      "outputs": [
        {
          "internalType": "uint256",
          "name": "farmerId",
          "type": "uint256"
        },
        {
          "internalType": "string",
          "name": "farmerName",
          "type": "string"
        },
        {
          "internalType": "string",
          "name": "landLocation",
          "type": "string"
        },
        {
          "internalType": "string",
          "name": "crop",
          "type": "string"
        },
        {
          "internalType": "uint256",
          "name": "quantity",
          "type": "uint256"
        },
        {
          "internalType": "uint256",
          "name": "expectedPrice",
          "type": "uint256"
        },
        {
          "internalType": "string",
          "name": "expDate",
          "type": "string"
        },
        {
          "internalType": "address payable",
          "name": "owner",
          "type": "address"
        },
        {
          "internalType": "address payable",
          "name": "processor",
          "type": "address"
        },
        {
          "internalType": "uint256",
          "name": "holding",
          "type": "uint256"
        },
        {
          "internalType": "uint256",
          "name": "costToProduce",
          "type": "uint256"
        }
      ],
      "payable": false,
      "stateMutability": "view",
      "type": "function"
    },
    {
      "constant": true,
      "inputs": [],
      "name": "marketProductCount",
      "outputs": [
        {
          "internalType": "uint256",
          "name": "",
          "type": "uint256"
        }
      ],
      "payable": false,
      "stateMutability": "view",
      "type": "function"
    },
    {
      "constant": true,
      "inputs": [
        {
          "internalType": "uint256",
          "name": "",
          "type": "uint256"
        }
      ],
      "name": "marketProducts",
      "outputs": [
        {
          "internalType": "uint256",
          "name": "marketProductId",
          "type": "uint256"
        },
        {
          "internalType": "uint256",
          "name": "processorId",
          "type": "uint256"
        },
        {
          "internalType": "uint256",
          "name": "quantity",
          "type": "uint256"
        },
        {
          "internalType": "uint256",
          "name": "price",
          "type": "uint256"
        },
        {
          "internalType": "string",
          "name": "name",
          "type": "string"
        },
        {
          "internalType": "address payable",
          "name": "processorAddress",
          "type": "address"
        },
        {
          "internalType": "address payable",
          "name": "buyerAddress",
          "type": "address"
        }
      ],
      "payable": false,
      "stateMutability": "view",
      "type": "function"
    },
    {
      "constant": true,
      "inputs": [
        {
          "internalType": "uint256",
          "name": "",
          "type": "uint256"
        }
      ],
      "name": "processedItems",
      "outputs": [
        {
          "internalType": "uint256",
          "name": "processorId",
          "type": "uint256"
        },
        {
          "internalType": "string",
          "name": "item",
          "type": "string"
        },
        {
          "internalType": "uint256",
          "name": "quantity",
          "type": "uint256"
        },
        {
          "internalType": "uint256",
          "name": "farmerId",
          "type": "uint256"
        },
        {
          "internalType": "address payable",
          "name": "processorAddress",
          "type": "address"
        },
        {
          "internalType": "bool",
          "name": "productPosted",
          "type": "bool"
        }
      ],
      "payable": false,
      "stateMutability": "view",
      "type": "function"
    },
    {
      "constant": true,
      "inputs": [],
      "name": "processedItemsCount",
      "outputs": [
        {
          "internalType": "uint256",
          "name": "",
          "type": "uint256"
        }
      ],
      "payable": false,
      "stateMutability": "view",
      "type": "function"
    },
    {
      "constant": false,
      "inputs": [
        {
          "internalType": "string",
          "name": "_farmerName",
          "type": "string"
        },
        {
          "internalType": "string",
          "name": "_farmerLandLocation",
          "type": "string"
        },
        {
          "internalType": "string",
          "name": "_farmerCrop",
          "type": "string"
        },
        {
          "internalType": "uint256",
          "name": "_farmerQuantity",
          "type": "uint256"
        },
        {
          "internalType": "uint256",
          "name": "_farmerExpectedPrice",
          "type": "uint256"
        },
        {
          "internalType": "string",
          "name": "_farmerExpiryDate",
          "type": "string"
        },
        {
          "internalType": "uint256",
          "name": "holding",
          "type": "uint256"
        },
        {
          "internalType": "uint256",
          "name": "_costToProduce",
          "type": "uint256"
        }
      ],
      "name": "createFarmer",
      "outputs": [],
      "payable": false,
      "stateMutability": "nonpayable",
      "type": "function"
    },
    {
      "constant": false,
      "inputs": [
        {
          "internalType": "string",
          "name": "item",
          "type": "string"
        },
        {
          "internalType": "uint256",
          "name": "_id",
          "type": "uint256"
        },
        {
          "internalType": "uint256",
          "name": "pricePerQuantity",
          "type": "uint256"
        },
        {
          "internalType": "uint256",
          "name": "quantity",
          "type": "uint256"
        }
      ],
      "name": "createProcessedItem",
      "outputs": [],
      "payable": false,
      "stateMutability": "nonpayable",
      "type": "function"
    },
    {
      "constant": false,
      "inputs": [
        {
          "internalType": "uint256",
          "name": "_id",
          "type": "uint256"
        },
        {
          "internalType": "uint256",
          "name": "price",
          "type": "uint256"
        },
        {
          "internalType": "uint256",
          "name": "quantity",
          "type": "uint256"
        },
        {
          "internalType": "string",
          "name": "name",
          "type": "string"
        }
      ],
      "name": "createMarketProduct",
      "outputs": [],
      "payable": false,
      "stateMutability": "nonpayable",
      "type": "function"
    },
    {
      "constant": false,
      "inputs": [
        {
          "internalType": "uint256",
          "name": "_id",
          "type": "uint256"
        },
        {
          "internalType": "uint256",
          "name": "quantity",
          "type": "uint256"
        }
      ],
      "name": "purchaseProduct",
      "outputs": [],
      "payable": true,
      "stateMutability": "payable",
      "type": "function"
    },
    {
      "constant": false,
      "inputs": [
        {
          "internalType": "uint256",
          "name": "_id",
          "type": "uint256"
        },
        {
          "internalType": "uint256",
          "name": "quantity",
          "type": "uint256"
        }
      ],
      "name": "purchaseMarketProduct",
      "outputs": [],
      "payable": true,
      "stateMutability": "payable",
      "type": "function"
    }
  ],
  "bytecode": "0x6080604052600080556000600155600060025534801561001e57600080fd5b506120328061002e6000396000f3fe60806040526004361061009c5760003560e01c8063a044042611610064578063a0440426146105b5578063ab11b551146105ed578063b168f4fc14610625578063bd45b397146108db578063c7dd8ff414610906578063dc3e6caa146109ec5761009c565b80630b30a84e146100a15780631a60ed50146100cc5780635028a025146101d35780638556543f146101fe5780638afdd66914610334575b600080fd5b3480156100ad57600080fd5b506100b6610ad2565b6040518082815260200191505060405180910390f35b3480156100d857600080fd5b50610105600480360360208110156100ef57600080fd5b8101908080359060200190929190505050610ad8565b60405180878152602001806020018681526020018581526020018473ffffffffffffffffffffffffffffffffffffffff1673ffffffffffffffffffffffffffffffffffffffff16815260200183151515158152602001828103825287818151815260200191508051906020019080838360005b83811015610193578082015181840152602081019050610178565b50505050905090810190601f1680156101c05780820380516001836020036101000a031916815260200191505b5097505050505050505060405180910390f35b3480156101df57600080fd5b506101e8610bd9565b6040518082815260200191505060405180910390f35b34801561020a57600080fd5b506102376004803603602081101561022157600080fd5b8101908080359060200190929190505050610bdf565b60405180888152602001878152602001868152602001858152602001806020018473ffffffffffffffffffffffffffffffffffffffff1673ffffffffffffffffffffffffffffffffffffffff1681526020018373ffffffffffffffffffffffffffffffffffffffff1673ffffffffffffffffffffffffffffffffffffffff168152602001828103825285818151815260200191508051906020019080838360005b838110156102f35780820151818401526020810190506102d8565b50505050905090810190601f1680156103205780820380516001836020036101000a031916815260200191505b509850505050505050505060405180910390f35b34801561034057600080fd5b5061036d6004803603602081101561035757600080fd5b8101908080359060200190929190505050610cf9565b604051808c81526020018060200180602001806020018b81526020018a8152602001806020018973ffffffffffffffffffffffffffffffffffffffff1673ffffffffffffffffffffffffffffffffffffffff1681526020018873ffffffffffffffffffffffffffffffffffffffff1673ffffffffffffffffffffffffffffffffffffffff16815260200187815260200186815260200185810385528f818151815260200191508051906020019080838360005b8381101561043b578082015181840152602081019050610420565b50505050905090810190601f1680156104685780820380516001836020036101000a031916815260200191505b5085810384528e818151815260200191508051906020019080838360005b838110156104a1578082015181840152602081019050610486565b50505050905090810190601f1680156104ce5780820380516001836020036101000a031916815260200191505b5085810383528d818151815260200191508051906020019080838360005b838110156105075780820151818401526020810190506104ec565b50505050905090810190601f1680156105345780820380516001836020036101000a031916815260200191505b5085810382528a818151815260200191508051906020019080838360005b8381101561056d578082015181840152602081019050610552565b50505050905090810190601f16801561059a5780820380516001836020036101000a031916815260200191505b509f5050505050505050505050505050505060405180910390f35b6105eb600480360360408110156105cb57600080fd5b810190808035906020019092919080359060200190929190505050610ff3565b005b6106236004803603604081101561060357600080fd5b8101908080359060200190929190803590602001909291905050506115dc565b005b34801561063157600080fd5b506108d9600480360361010081101561064957600080fd5b810190808035906020019064010000000081111561066657600080fd5b82018360208201111561067857600080fd5b8035906020019184600183028401116401000000008311171561069a57600080fd5b91908080601f016020809104026020016040519081016040528093929190818152602001838380828437600081840152601f19601f820116905080830192505050505050509192919290803590602001906401000000008111156106fd57600080fd5b82018360208201111561070f57600080fd5b8035906020019184600183028401116401000000008311171561073157600080fd5b91908080601f016020809104026020016040519081016040528093929190818152602001838380828437600081840152601f19601f8201169050808301925050505050505091929192908035906020019064010000000081111561079457600080fd5b8201836020820111156107a657600080fd5b803590602001918460018302840111640100000000831117156107c857600080fd5b91908080601f016020809104026020016040519081016040528093929190818152602001838380828437600081840152601f19601f82011690508083019250505050505050919291929080359060200190929190803590602001909291908035906020019064010000000081111561083f57600080fd5b82018360208201111561085157600080fd5b8035906020019184600183028401116401000000008311171561087357600080fd5b91908080601f016020809104026020016040519081016040528093929190818152602001838380828437600081840152601f19601f820116905080830192505050505050509192919290803590602001909291908035906020019092919050505061196f565b005b3480156108e757600080fd5b506108f0611b95565b6040518082815260200191505060405180910390f35b34801561091257600080fd5b506109ea6004803603608081101561092957600080fd5b810190808035906020019064010000000081111561094657600080fd5b82018360208201111561095857600080fd5b8035906020019184600183028401116401000000008311171561097a57600080fd5b91908080601f016020809104026020016040519081016040528093929190818152602001838380828437600081840152601f19601f820116905080830192505050505050509192919290803590602001909291908035906020019092919080359060200190929190505050611b9b565b005b3480156109f857600080fd5b50610ad060048036036080811015610a0f57600080fd5b8101908080359060200190929190803590602001909291908035906020019092919080359060200190640100000000811115610a4a57600080fd5b820183602082011115610a5c57600080fd5b80359060200191846001830284011164010000000083111715610a7e57600080fd5b91908080601f016020809104026020016040519081016040528093929190818152602001838380828437600081840152601f19601f820116905080830192505050505050509192919290505050611cdd565b005b60025481565b6004602052806000526040600020600091509050806000015490806001018054600181600116156101000203166002900480601f016020809104026020016040519081016040528092919081815260200182805460018160011615610100020316600290048015610b8a5780601f10610b5f57610100808354040283529160200191610b8a565b820191906000526020600020905b815481529060010190602001808311610b6d57829003601f168201915b5050505050908060020154908060030154908060040160009054906101000a900473ffffffffffffffffffffffffffffffffffffffff16908060040160149054906101000a900460ff16905086565b60015481565b6005602052806000526040600020600091509050806000015490806001015490806002015490806003015490806004018054600181600116156101000203166002900480601f016020809104026020016040519081016040528092919081815260200182805460018160011615610100020316600290048015610ca35780601f10610c7857610100808354040283529160200191610ca3565b820191906000526020600020905b815481529060010190602001808311610c8657829003601f168201915b5050505050908060050160009054906101000a900473ffffffffffffffffffffffffffffffffffffffff16908060060160009054906101000a900473ffffffffffffffffffffffffffffffffffffffff16905087565b6003602052806000526040600020600091509050806000015490806001018054600181600116156101000203166002900480601f016020809104026020016040519081016040528092919081815260200182805460018160011615610100020316600290048015610dab5780601f10610d8057610100808354040283529160200191610dab565b820191906000526020600020905b815481529060010190602001808311610d8e57829003601f168201915b505050505090806002018054600181600116156101000203166002900480601f016020809104026020016040519081016040528092919081815260200182805460018160011615610100020316600290048015610e495780601f10610e1e57610100808354040283529160200191610e49565b820191906000526020600020905b815481529060010190602001808311610e2c57829003601f168201915b505050505090806003018054600181600116156101000203166002900480601f016020809104026020016040519081016040528092919081815260200182805460018160011615610100020316600290048015610ee75780601f10610ebc57610100808354040283529160200191610ee7565b820191906000526020600020905b815481529060010190602001808311610eca57829003601f168201915b505050505090806004015490806005015490806006018054600181600116156101000203166002900480601f016020809104026020016040519081016040528092919081815260200182805460018160011615610100020316600290048015610f915780601f10610f6657610100808354040283529160200191610f91565b820191906000526020600020905b815481529060010190602001808311610f7457829003601f168201915b5050505050908060070160009054906101000a900473ffffffffffffffffffffffffffffffffffffffff16908060080160009054906101000a900473ffffffffffffffffffffffffffffffffffffffff169080600901549080600a015490508b565b610ffb611e69565b600360008481526020019081526020016000206040518061016001604052908160008201548152602001600182018054600181600116156101000203166002900480601f0160208091040260200160405190810160405280929190818152602001828054600181600116156101000203166002900480156110bd5780601f10611092576101008083540402835291602001916110bd565b820191906000526020600020905b8154815290600101906020018083116110a057829003601f168201915b50505050508152602001600282018054600181600116156101000203166002900480601f01602080910402602001604051908101604052809291908181526020018280546001816001161561010002031660029004801561115f5780601f106111345761010080835404028352916020019161115f565b820191906000526020600020905b81548152906001019060200180831161114257829003601f168201915b50505050508152602001600382018054600181600116156101000203166002900480601f0160208091040260200160405190810160405280929190818152602001828054600181600116156101000203166002900480156112015780601f106111d657610100808354040283529160200191611201565b820191906000526020600020905b8154815290600101906020018083116111e457829003601f168201915b505050505081526020016004820154815260200160058201548152602001600682018054600181600116156101000203166002900480601f0160208091040260200160405190810160405280929190818152602001828054600181600116156101000203166002900480156112b75780601f1061128c576101008083540402835291602001916112b7565b820191906000526020600020905b81548152906001019060200180831161129a57829003601f168201915b505050505081526020016007820160009054906101000a900473ffffffffffffffffffffffffffffffffffffffff1673ffffffffffffffffffffffffffffffffffffffff1673ffffffffffffffffffffffffffffffffffffffff1681526020016008820160009054906101000a900473ffffffffffffffffffffffffffffffffffffffff1673ffffffffffffffffffffffffffffffffffffffff1673ffffffffffffffffffffffffffffffffffffffff16815260200160098201548152602001600a82015481525050905060008160e001519050600082600001511180156113a55750600054826000015111155b6113ae57600080fd5b82826080015110156113bf57600080fd5b3373ffffffffffffffffffffffffffffffffffffffff168173ffffffffffffffffffffffffffffffffffffffff1614156113f857600080fd5b3382610100019073ffffffffffffffffffffffffffffffffffffffff16908173ffffffffffffffffffffffffffffffffffffffff168152505082826080015103826080018181525050816003600086815260200190815260200160002060008201518160000155602082015181600101908051906020019061147b929190611eef565b506040820151816002019080519060200190611498929190611eef565b5060608201518160030190805190602001906114b5929190611eef565b506080820151816004015560a0820151816005015560c08201518160060190805190602001906114e6929190611eef565b5060e08201518160070160006101000a81548173ffffffffffffffffffffffffffffffffffffffff021916908373ffffffffffffffffffffffffffffffffffffffff1602179055506101008201518160080160006101000a81548173ffffffffffffffffffffffffffffffffffffffff021916908373ffffffffffffffffffffffffffffffffffffffff160217905550610120820151816009015561014082015181600a01559050508073ffffffffffffffffffffffffffffffffffffffff166108fc349081150290604051600060405180830381858888f193505050501580156115d5573d6000803e3d6000fd5b5050505050565b6115e4611f6f565b600560008481526020019081526020016000206040518060e001604052908160008201548152602001600182015481526020016002820154815260200160038201548152602001600482018054600181600116156101000203166002900480601f0160208091040260200160405190810160405280929190818152602001828054600181600116156101000203166002900480156116c35780601f10611698576101008083540402835291602001916116c3565b820191906000526020600020905b8154815290600101906020018083116116a657829003601f168201915b505050505081526020016005820160009054906101000a900473ffffffffffffffffffffffffffffffffffffffff1673ffffffffffffffffffffffffffffffffffffffff1673ffffffffffffffffffffffffffffffffffffffff1681526020016006820160009054906101000a900473ffffffffffffffffffffffffffffffffffffffff1673ffffffffffffffffffffffffffffffffffffffff1673ffffffffffffffffffffffffffffffffffffffff1681525050905060008160a0015190506000826000015111801561179d5750600254826000015111155b6117a657600080fd5b82826040015110156117b757600080fd5b3373ffffffffffffffffffffffffffffffffffffffff168173ffffffffffffffffffffffffffffffffffffffff1614156117f057600080fd5b338260c0019073ffffffffffffffffffffffffffffffffffffffff16908173ffffffffffffffffffffffffffffffffffffffff1681525050828260400151038260400181815250508160056000868152602001908152602001600020600082015181600001556020820151816001015560408201518160020155606082015181600301556080820151816004019080519060200190611890929190611eef565b5060a08201518160050160006101000a81548173ffffffffffffffffffffffffffffffffffffffff021916908373ffffffffffffffffffffffffffffffffffffffff16021790555060c08201518160060160006101000a81548173ffffffffffffffffffffffffffffffffffffffff021916908373ffffffffffffffffffffffffffffffffffffffff1602179055509050508073ffffffffffffffffffffffffffffffffffffffff166108fc349081150290604051600060405180830381858888f19350505050158015611968573d6000803e3d6000fd5b5050505050565b600088511161197d57600080fd5b6000841161198a57600080fd5b6000851161199757600080fd5b60008651116119a557600080fd5b600081116119b257600080fd5b600080815480929190600101919050555060405180610160016040528060005481526020018981526020018881526020018781526020018681526020018581526020018481526020013373ffffffffffffffffffffffffffffffffffffffff1681526020013373ffffffffffffffffffffffffffffffffffffffff168152602001838152602001828152506003600080548152602001908152602001600020600082015181600001556020820151816001019080519060200190611a77929190611eef565b506040820151816002019080519060200190611a94929190611eef565b506060820151816003019080519060200190611ab1929190611eef565b506080820151816004015560a0820151816005015560c0820151816006019080519060200190611ae2929190611eef565b5060e08201518160070160006101000a81548173ffffffffffffffffffffffffffffffffffffffff021916908373ffffffffffffffffffffffffffffffffffffffff1602179055506101008201518160080160006101000a81548173ffffffffffffffffffffffffffffffffffffffff021916908373ffffffffffffffffffffffffffffffffffffffff160217905550610120820151816009015561014082015181600a01559050505050505050505050565b60005481565b60008211611ba857600080fd5b60008111611bb557600080fd5b6000845111611bc357600080fd5b6001600081548092919060010191905055506040518060c0016040528060015481526020018581526020018281526020018481526020013373ffffffffffffffffffffffffffffffffffffffff16815260200160001515815250600460006001548152602001908152602001600020600082015181600001556020820151816001019080519060200190611c58929190611eef565b50604082015181600201556060820151816003015560808201518160040160006101000a81548173ffffffffffffffffffffffffffffffffffffffff021916908373ffffffffffffffffffffffffffffffffffffffff16021790555060a08201518160040160146101000a81548160ff02191690831515021790555090505050505050565b60008311611cea57600080fd5b60008211611cf757600080fd5b6000815111611d0557600080fd5b6002600081548092919060010191905055506040518060e0016040528060025481526020018581526020018381526020018481526020018281526020013373ffffffffffffffffffffffffffffffffffffffff1681526020013373ffffffffffffffffffffffffffffffffffffffff16815250600560006002548152602001908152602001600020600082015181600001556020820151816001015560408201518160020155606082015181600301556080820151816004019080519060200190611dd1929190611eef565b5060a08201518160050160006101000a81548173ffffffffffffffffffffffffffffffffffffffff021916908373ffffffffffffffffffffffffffffffffffffffff16021790555060c08201518160060160006101000a81548173ffffffffffffffffffffffffffffffffffffffff021916908373ffffffffffffffffffffffffffffffffffffffff16021790555090505050505050565b60405180610160016040528060008152602001606081526020016060815260200160608152602001600081526020016000815260200160608152602001600073ffffffffffffffffffffffffffffffffffffffff168152602001600073ffffffffffffffffffffffffffffffffffffffff16815260200160008152602001600081525090565b828054600181600116156101000203166002900490600052602060002090601f016020900481019282601f10611f3057805160ff1916838001178555611f5e565b82800160010185558215611f5e579182015b82811115611f5d578251825591602001919060010190611f42565b5b509050611f6b9190611fd8565b5090565b6040518060e001604052806000815260200160008152602001600081526020016000815260200160608152602001600073ffffffffffffffffffffffffffffffffffffffff168152602001600073ffffffffffffffffffffffffffffffffffffffff1681525090565b611ffa91905b80821115611ff6576000816000905550600101611fde565b5090565b9056fea265627a7a72315820e2fbe74c767000ffa857842f694757cc8e8bc2520d206d9db4607d1ab93ab29364736f6c63430005100032",
  "source": "pragma solidity ^0.5.0;\r\n\r\ncontract FarmExchange {\r\n    uint public farmerCount = 0;\r\n    uint public processedItemsCount = 0 ;\r\n    uint public marketProductCount = 0;\r\n    mapping(uint => Farmer) public farmers;\r\n    mapping(uint => ProcessedItem) public processedItems;\r\n    mapping(uint => MarketProduct) public marketProducts;\r\n\r\n        struct Farmer{\r\n        uint farmerId;\r\n        string farmerName;\r\n        string landLocation;\r\n        string crop;\r\n        uint256 quantity;\r\n        uint256 expectedPrice;\r\n        string expDate;\r\n        address payable owner;\r\n        address payable processor;\r\n        uint holding;\r\n        uint costToProduce;\r\n    }\r\n\r\n    struct ProcessedItem {\r\n        uint processorId;\r\n        string item;\r\n        uint256 quantity;\r\n        uint farmerId;\r\n        address payable processorAddress;\r\n        bool productPosted;\r\n    }\r\n\r\n    struct MarketProduct {\r\n        uint marketProductId;\r\n        uint processorId;\r\n        uint quantity;\r\n        uint price;\r\n        string name;\r\n        address payable processorAddress;\r\n        address payable buyerAddress;\r\n    }\r\n\r\n    event FarmerCreated(\r\n        uint id,\r\n        string name,\r\n        uint price,\r\n        address payable owner,\r\n        bool purchased\r\n    );\r\n\r\n    function createFarmer(\r\n                        string memory _farmerName,\r\n                        string memory _farmerLandLocation,\r\n                        string memory _farmerCrop,\r\n                        uint _farmerQuantity,\r\n                        uint _farmerExpectedPrice,\r\n                        string memory _farmerExpiryDate,\r\n                        uint holding,\r\n                        uint _costToProduce) public  {\r\n        \r\n        //Require a valid name\r\n        require(bytes(_farmerName).length > 0);\r\n        // Require a valid price\r\n        require(_farmerExpectedPrice > 0);\r\n        // Require a valid quantity\r\n        require(_farmerQuantity > 0);\r\n        // Require a crop\r\n        require(bytes(_farmerCrop).length > 0);\r\n        // require cost to produce to be greater than 0\r\n        require(_costToProduce > 0);\r\n        //Increment product count\r\n        farmerCount ++;\r\n        // Create the farmer\r\n        farmers[farmerCount] = Farmer(farmerCount, _farmerName, _farmerLandLocation, \r\n                                    _farmerCrop, _farmerQuantity, _farmerExpectedPrice,\r\n                                    _farmerExpiryDate, msg.sender, msg.sender, holding, _costToProduce);\r\n    }\r\n\r\n\r\n    function createProcessedItem( string memory item,\r\n                            uint _id, uint pricePerQuantity, uint quantity) public {\r\n        // Require a valid price\r\n        require(pricePerQuantity > 0);\r\n        // Require a valid quantity\r\n        require(quantity > 0);\r\n        // Require a crop\r\n        require(bytes(item).length > 0);\r\n        //Increment product count\r\n        processedItemsCount ++;\r\n        // Create the farmer\r\n        processedItems[processedItemsCount] = ProcessedItem(processedItemsCount, \r\n                                            item, quantity,\r\n                                            _id, msg.sender,false);\r\n\r\n    }\r\n\r\n    function createMarketProduct(uint _id, uint price, uint quantity, string memory name) public {\r\n        \r\n        require(price > 0);\r\n        // Require a valid quantity\r\n        require(quantity > 0);\r\n        // Require a crop\r\n        require(bytes(name).length > 0);\r\n        //Increment product count\r\n        marketProductCount ++;\r\n        // Create the farmer\r\n        marketProducts[marketProductCount] = MarketProduct( marketProductCount,\r\n                                                _id, quantity, price, name, msg.sender, msg.sender);\r\n    }\r\n\r\n    function purchaseProduct(uint _id, uint quantity) public payable {\r\n        // Fetch the product\r\n        Farmer memory _farmer = farmers[_id];\r\n        // Fetch the owner\r\n        address payable _seller = _farmer.owner;\r\n        // Make sure the product has a valid id\r\n        require(_farmer.farmerId > 0 && _farmer.farmerId <= farmerCount);\r\n        require(_farmer.quantity >= quantity);        \r\n        // Require that there is enough Ether in the transaction\r\n        // require(msg.value >= _product.price);\r\n        // Require that the product has not been purchased already\r\n        // require(!_product.purchased);\r\n        // Require that the buyer is not the seller\r\n        require(_seller != msg.sender);\r\n        // Transfer ownership to the buyer\r\n        _farmer.processor = msg.sender;\r\n        _farmer.quantity = _farmer.quantity - quantity;\r\n        // Update the product\r\n        farmers[_id] = _farmer;\r\n        // Pay the seller by sending them Ether\r\n        address(_seller).transfer(msg.value);\r\n        // Trigger an event\r\n    }\r\n\r\n        function purchaseMarketProduct(uint _id, uint quantity) public payable {\r\n        // Fetch the product\r\n        MarketProduct memory _product = marketProducts[_id];\r\n        // Fetch the owner\r\n        address payable _seller = _product.processorAddress;\r\n        // Make sure the product has a valid id\r\n        require(_product.marketProductId > 0 && _product.marketProductId <= marketProductCount);\r\n        require(_product.quantity >= quantity);        \r\n        // Require that there is enough Ether in the transaction\r\n        // require(msg.value >= _product.price);\r\n        // Require that the product has not been purchased already\r\n        // require(!_product.purchased);\r\n        // Require that the buyer is not the seller\r\n        require(_seller != msg.sender);\r\n        // Transfer ownership to the buyer\r\n        _product.buyerAddress = msg.sender;\r\n        _product.quantity = _product.quantity - quantity;\r\n        // Update the product\r\n        marketProducts[_id] = _product;\r\n        // Pay the seller by sending them Ether\r\n        address(_seller).transfer(msg.value);\r\n        // Trigger an event\r\n    }\r\n}\r\n",
  "sourcePath": "C:\\MscAC\\Blockchain\\2125\\styled\\src\\contracts\\FarmExchange.sol",
  "compiler": {
    "name": "solc",
    "version": "0.5.16+commit.9c3226ce.Emscripten.clang"
  },
  "schemaVersion": "3.4.5",
  "updatedAt": "2022-03-23T21:59:31.231Z",
  "devdoc": {
    "methods": {}
  },
  "userdoc": {
    "methods": {}
  }
}