{
  "contractName": "Insurance",
  "abi": [
    {
      "constant": true,
      "inputs": [
        {
          "internalType": "uint256",
          "name": "",
          "type": "uint256"
        }
      ],
      "name": "insuranceCompanies",
      "outputs": [
        {
          "internalType": "uint256",
          "name": "insuranceCompanyId",
          "type": "uint256"
        },
        {
          "internalType": "string",
          "name": "name",
          "type": "string"
        },
        {
          "internalType": "string",
          "name": "typeOf",
          "type": "string"
        },
        {
          "internalType": "uint256",
          "name": "trigger",
          "type": "uint256"
        },
        {
          "internalType": "uint256",
          "name": "payoutValue",
          "type": "uint256"
        },
        {
          "internalType": "address payable",
          "name": "insuranceCompanyAddress",
          "type": "address"
        }
      ],
      "payable": false,
      "stateMutability": "view",
      "type": "function"
    },
    {
      "constant": true,
      "inputs": [],
      "name": "insuranceCompanyCount",
      "outputs": [
        {
          "internalType": "uint256",
          "name": "",
          "type": "uint256"
        }
      ],
      "payable": false,
      "stateMutability": "view",
      "type": "function"
    },
    {
      "constant": true,
      "inputs": [],
      "name": "insuranceFarmerCount",
      "outputs": [
        {
          "internalType": "uint256",
          "name": "",
          "type": "uint256"
        }
      ],
      "payable": false,
      "stateMutability": "view",
      "type": "function"
    },
    {
      "constant": true,
      "inputs": [
        {
          "internalType": "uint256",
          "name": "",
          "type": "uint256"
        }
      ],
      "name": "insuranceFarmers",
      "outputs": [
        {
          "internalType": "uint256",
          "name": "insuranceFarmerId",
          "type": "uint256"
        },
        {
          "internalType": "uint256",
          "name": "farmerId",
          "type": "uint256"
        },
        {
          "internalType": "uint256",
          "name": "insuranceCompanyId",
          "type": "uint256"
        },
        {
          "internalType": "address payable",
          "name": "farmerAddress",
          "type": "address"
        },
        {
          "internalType": "uint256",
          "name": "premium",
          "type": "uint256"
        },
        {
          "internalType": "bool",
          "name": "triggered",
          "type": "bool"
        }
      ],
      "payable": false,
      "stateMutability": "view",
      "type": "function"
    },
    {
      "constant": false,
      "inputs": [
        {
          "internalType": "string",
          "name": "_name",
          "type": "string"
        },
        {
          "internalType": "string",
          "name": "_type",
          "type": "string"
        },
        {
          "internalType": "uint256",
          "name": "trigger",
          "type": "uint256"
        },
        {
          "internalType": "uint256",
          "name": "payback",
          "type": "uint256"
        }
      ],
      "name": "createInsuranceCompany",
      "outputs": [],
      "payable": false,
      "stateMutability": "nonpayable",
      "type": "function"
    },
    {
      "constant": false,
      "inputs": [
        {
          "internalType": "uint256",
          "name": "_insuranceId",
          "type": "uint256"
        },
        {
          "internalType": "uint256",
          "name": "_farmerId",
          "type": "uint256"
        }
      ],
      "name": "purchaseProduct",
      "outputs": [],
      "payable": true,
      "stateMutability": "payable",
      "type": "function"
    },
    {
      "constant": false,
      "inputs": [
        {
          "internalType": "uint256",
          "name": "_id",
          "type": "uint256"
        }
      ],
      "name": "payToInvestor",
      "outputs": [],
      "payable": true,
      "stateMutability": "payable",
      "type": "function"
    }
  ],
  "bytecode": "0x608060405260008055600060015534801561001957600080fd5b50610d90806100296000396000f3fe6080604052600436106100705760003560e01c80637a03ebc01161004e5780637a03ebc01461023e578063a0440426146103a6578063e889e593146103de578063eaab5c871461048057610070565b80630445541914610075578063315cc1d4146100a0578063482e610714610213575b600080fd5b34801561008157600080fd5b5061008a6104ae565b6040518082815260200191505060405180910390f35b3480156100ac57600080fd5b50610211600480360360808110156100c357600080fd5b81019080803590602001906401000000008111156100e057600080fd5b8201836020820111156100f257600080fd5b8035906020019184600183028401116401000000008311171561011457600080fd5b91908080601f016020809104026020016040519081016040528093929190818152602001838380828437600081840152601f19601f8201169050808301925050505050505091929192908035906020019064010000000081111561017757600080fd5b82018360208201111561018957600080fd5b803590602001918460018302840111640100000000831117156101ab57600080fd5b91908080601f016020809104026020016040519081016040528093929190818152602001838380828437600081840152601f19601f82011690508083019250505050505050919291929080359060200190929190803590602001909291905050506104b4565b005b34801561021f57600080fd5b506102286105d4565b6040518082815260200191505060405180910390f35b34801561024a57600080fd5b506102776004803603602081101561026157600080fd5b81019080803590602001909291905050506105da565b6040518087815260200180602001806020018681526020018581526020018473ffffffffffffffffffffffffffffffffffffffff1673ffffffffffffffffffffffffffffffffffffffff168152602001838103835288818151815260200191508051906020019080838360005b838110156102ff5780820151818401526020810190506102e4565b50505050905090810190601f16801561032c5780820380516001836020036101000a031916815260200191505b50838103825287818151815260200191508051906020019080838360005b8381101561036557808201518184015260208101905061034a565b50505050905090810190601f1680156103925780820380516001836020036101000a031916815260200191505b509850505050505050505060405180910390f35b6103dc600480360360408110156103bc57600080fd5b810190808035906020019092919080359060200190929190505050610766565b005b3480156103ea57600080fd5b506104176004803603602081101561040157600080fd5b8101908080359060200190929190505050610a9d565b604051808781526020018681526020018581526020018473ffffffffffffffffffffffffffffffffffffffff1673ffffffffffffffffffffffffffffffffffffffff16815260200183815260200182151515158152602001965050505050505060405180910390f35b6104ac6004803603602081101561049657600080fd5b8101908080359060200190929190505050610b06565b005b60005481565b60008451116104c257600080fd5b60008081548092919060010191905055506040518060c0016040528060005481526020018581526020018481526020018381526020018281526020013373ffffffffffffffffffffffffffffffffffffffff168152506002600080548152602001908152602001600020600082015181600001556020820151816001019080519060200190610552929190610c1c565b50604082015181600201908051906020019061056f929190610c1c565b50606082015181600301556080820151816004015560a08201518160050160006101000a81548173ffffffffffffffffffffffffffffffffffffffff021916908373ffffffffffffffffffffffffffffffffffffffff16021790555090505050505050565b60015481565b6002602052806000526040600020600091509050806000015490806001018054600181600116156101000203166002900480601f01602080910402602001604051908101604052809291908181526020018280546001816001161561010002031660029004801561068c5780601f106106615761010080835404028352916020019161068c565b820191906000526020600020905b81548152906001019060200180831161066f57829003601f168201915b505050505090806002018054600181600116156101000203166002900480601f01602080910402602001604051908101604052809291908181526020018280546001816001161561010002031660029004801561072a5780601f106106ff5761010080835404028352916020019161072a565b820191906000526020600020905b81548152906001019060200180831161070d57829003601f168201915b5050505050908060030154908060040154908060050160009054906101000a900473ffffffffffffffffffffffffffffffffffffffff16905086565b61076e610c9c565b600260008481526020019081526020016000206040518060c001604052908160008201548152602001600182018054600181600116156101000203166002900480601f01602080910402602001604051908101604052809291908181526020018280546001816001161561010002031660029004801561082f5780601f106108045761010080835404028352916020019161082f565b820191906000526020600020905b81548152906001019060200180831161081257829003601f168201915b50505050508152602001600282018054600181600116156101000203166002900480601f0160208091040260200160405190810160405280929190818152602001828054600181600116156101000203166002900480156108d15780601f106108a6576101008083540402835291602001916108d1565b820191906000526020600020905b8154815290600101906020018083116108b457829003601f168201915b5050505050815260200160038201548152602001600482015481526020016005820160009054906101000a900473ffffffffffffffffffffffffffffffffffffffff1673ffffffffffffffffffffffffffffffffffffffff1673ffffffffffffffffffffffffffffffffffffffff1681525050905060008160a0015190506001600081548092919060010191905055506040518060c0016040528060015481526020018581526020018481526020013373ffffffffffffffffffffffffffffffffffffffff1681526020013481526020016000151581525060036000600154815260200190815260200160002060008201518160000155602082015181600101556040820151816002015560608201518160030160006101000a81548173ffffffffffffffffffffffffffffffffffffffff021916908373ffffffffffffffffffffffffffffffffffffffff1602179055506080820151816004015560a08201518160050160006101000a81548160ff0219169083151502179055509050508073ffffffffffffffffffffffffffffffffffffffff166108fc349081150290604051600060405180830381858888f19350505050158015610a96573d6000803e3d6000fd5b5050505050565b60036020528060005260406000206000915090508060000154908060010154908060020154908060030160009054906101000a900473ffffffffffffffffffffffffffffffffffffffff16908060040154908060050160009054906101000a900460ff16905086565b610b0e610ce8565b600360008381526020019081526020016000206040518060c00160405290816000820154815260200160018201548152602001600282015481526020016003820160009054906101000a900473ffffffffffffffffffffffffffffffffffffffff1673ffffffffffffffffffffffffffffffffffffffff1673ffffffffffffffffffffffffffffffffffffffff168152602001600482015481526020016005820160009054906101000a900460ff16151515158152505090506000816060015190508073ffffffffffffffffffffffffffffffffffffffff166108fc349081150290604051600060405180830381858888f19350505050158015610c16573d6000803e3d6000fd5b50505050565b828054600181600116156101000203166002900490600052602060002090601f016020900481019282601f10610c5d57805160ff1916838001178555610c8b565b82800160010185558215610c8b579182015b82811115610c8a578251825591602001919060010190610c6f565b5b509050610c989190610d36565b5090565b6040518060c001604052806000815260200160608152602001606081526020016000815260200160008152602001600073ffffffffffffffffffffffffffffffffffffffff1681525090565b6040518060c00160405280600081526020016000815260200160008152602001600073ffffffffffffffffffffffffffffffffffffffff168152602001600081526020016000151581525090565b610d5891905b80821115610d54576000816000905550600101610d3c565b5090565b9056fea265627a7a7231582081be847bad83279fbe5c3faa275daced9ba630f3265494de1f1a975f14f6379464736f6c63430005100032",
  "source": "pragma solidity ^0.5.0;\r\n\r\ncontract Insurance {\r\n\r\n    uint public insuranceCompanyCount = 0;\r\n    uint public insuranceFarmerCount = 0;\r\n\r\n    struct InsuranceCompany {\r\n        uint insuranceCompanyId;\r\n        string name;\r\n        string typeOf;\r\n        uint trigger;\r\n        uint payoutValue;\r\n        address payable insuranceCompanyAddress;\r\n    }\r\n\r\n    struct InsuranceFarmer{\r\n\r\n        uint insuranceFarmerId;\r\n        uint farmerId;\r\n        uint insuranceCompanyId;\r\n        address payable farmerAddress;\r\n        uint premium;\r\n        bool triggered;\r\n    }\r\n\r\n\r\n    mapping(uint => InsuranceCompany) public insuranceCompanies;\r\n    mapping(uint => InsuranceFarmer) public insuranceFarmers;\r\n \r\n    function createInsuranceCompany(\r\n                        string memory _name,\r\n                        string memory _type,\r\n                        uint trigger,\r\n                        uint payback\r\n                        ) public  {\r\n        \r\n        //Require a valid name\r\n        require(bytes(_name).length > 0);\r\n        insuranceCompanyCount ++;\r\n        // Create the farmer\r\n        insuranceCompanies[insuranceCompanyCount] = InsuranceCompany(insuranceCompanyCount, _name, _type, trigger, payback, msg.sender);\r\n    }\r\n\r\n        function purchaseProduct(uint _insuranceId, uint _farmerId) public payable {\r\n        // Fetch the product\r\n        InsuranceCompany memory _insuranceCompany = insuranceCompanies[_insuranceId];\r\n        // Fetch the owner\r\n        address payable _seller = _insuranceCompany.insuranceCompanyAddress;\r\n        insuranceFarmerCount++;\r\n        insuranceFarmers[insuranceFarmerCount] = InsuranceFarmer(insuranceFarmerCount, _insuranceId,\r\n        _farmerId, msg.sender, msg.value, false);\r\n        // Pay the seller by sending them Ether\r\n        address(_seller).transfer(msg.value);\r\n        // Trigger an event\r\n    }\r\n\r\n    function payToInvestor(uint _id) public payable {\r\n        InsuranceFarmer memory _insurance = insuranceFarmers[_id];\r\n        address payable _seller = _insurance.farmerAddress;\r\n        address(_seller).transfer(msg.value);\r\n        }\r\n}\r\n\r\n\r\n",
  "sourcePath": "C:\\MscAC\\Blockchain\\2125\\Code\\src\\contracts\\Insurance.sol",
  "compiler": {
    "name": "solc",
    "version": "0.5.16+commit.9c3226ce.Emscripten.clang"
  },
  "schemaVersion": "3.4.5",
  "updatedAt": "2022-04-02T20:32:16.955Z",
  "devdoc": {
    "methods": {}
  },
  "userdoc": {
    "methods": {}
  }
}