{
  "contractName": "Investment",
  "abi": [
    {
      "constant": true,
      "inputs": [],
      "name": "dealCount",
      "outputs": [
        {
          "internalType": "uint256",
          "name": "",
          "type": "uint256"
        }
      ],
      "payable": false,
      "stateMutability": "view",
      "type": "function"
    },
    {
      "constant": true,
      "inputs": [
        {
          "internalType": "uint256",
          "name": "",
          "type": "uint256"
        }
      ],
      "name": "deals",
      "outputs": [
        {
          "internalType": "uint256",
          "name": "farmerID",
          "type": "uint256"
        },
        {
          "internalType": "address",
          "name": "farmerAddress",
          "type": "address"
        },
        {
          "internalType": "address",
          "name": "investorAddress",
          "type": "address"
        },
        {
          "internalType": "uint256",
          "name": "amount",
          "type": "uint256"
        },
        {
          "internalType": "uint256",
          "name": "holdingPercent",
          "type": "uint256"
        }
      ],
      "payable": false,
      "stateMutability": "view",
      "type": "function"
    },
    {
      "constant": true,
      "inputs": [],
      "name": "farmerCount",
      "outputs": [
        {
          "internalType": "uint256",
          "name": "",
          "type": "uint256"
        }
      ],
      "payable": false,
      "stateMutability": "view",
      "type": "function"
    },
    {
      "constant": true,
      "inputs": [
        {
          "internalType": "uint256",
          "name": "",
          "type": "uint256"
        }
      ],
      "name": "farmers",
      "outputs": [
        {
          "internalType": "uint256",
          "name": "farmerId",
          "type": "uint256"
        },
        {
          "internalType": "string",
          "name": "farmerName",
          "type": "string"
        },
        {
          "internalType": "string",
          "name": "landLocation",
          "type": "string"
        },
        {
          "internalType": "string",
          "name": "crop",
          "type": "string"
        },
        {
          "internalType": "uint256",
          "name": "quantity",
          "type": "uint256"
        },
        {
          "internalType": "uint256",
          "name": "expectedPrice",
          "type": "uint256"
        },
        {
          "internalType": "string",
          "name": "expDate",
          "type": "string"
        },
        {
          "internalType": "address payable",
          "name": "owner",
          "type": "address"
        },
        {
          "internalType": "address payable",
          "name": "investor",
          "type": "address"
        },
        {
          "internalType": "uint256",
          "name": "holding",
          "type": "uint256"
        },
        {
          "internalType": "uint256",
          "name": "costToProduce",
          "type": "uint256"
        }
      ],
      "payable": false,
      "stateMutability": "view",
      "type": "function"
    },
    {
      "constant": true,
      "inputs": [],
      "name": "insuranceCount",
      "outputs": [
        {
          "internalType": "uint256",
          "name": "",
          "type": "uint256"
        }
      ],
      "payable": false,
      "stateMutability": "view",
      "type": "function"
    },
    {
      "constant": true,
      "inputs": [
        {
          "internalType": "uint256",
          "name": "",
          "type": "uint256"
        }
      ],
      "name": "insurances",
      "outputs": [
        {
          "internalType": "uint256",
          "name": "insuranceId",
          "type": "uint256"
        },
        {
          "internalType": "string",
          "name": "farmerName",
          "type": "string"
        },
        {
          "internalType": "string",
          "name": "typeOfInsurance",
          "type": "string"
        },
        {
          "internalType": "uint256",
          "name": "premium",
          "type": "uint256"
        }
      ],
      "payable": false,
      "stateMutability": "view",
      "type": "function"
    },
    {
      "constant": true,
      "inputs": [],
      "name": "name",
      "outputs": [
        {
          "internalType": "string",
          "name": "",
          "type": "string"
        }
      ],
      "payable": false,
      "stateMutability": "view",
      "type": "function"
    },
    {
      "constant": false,
      "inputs": [
        {
          "internalType": "string",
          "name": "_farmerName",
          "type": "string"
        },
        {
          "internalType": "uint256",
          "name": "premium",
          "type": "uint256"
        },
        {
          "internalType": "string",
          "name": "_insuranceType",
          "type": "string"
        }
      ],
      "name": "createInsurance",
      "outputs": [],
      "payable": false,
      "stateMutability": "nonpayable",
      "type": "function"
    },
    {
      "constant": false,
      "inputs": [
        {
          "internalType": "string",
          "name": "_farmerName",
          "type": "string"
        },
        {
          "internalType": "string",
          "name": "_farmerLandLocation",
          "type": "string"
        },
        {
          "internalType": "string",
          "name": "_farmerCrop",
          "type": "string"
        },
        {
          "internalType": "uint256",
          "name": "_farmerQuantity",
          "type": "uint256"
        },
        {
          "internalType": "uint256",
          "name": "_farmerExpectedPrice",
          "type": "uint256"
        },
        {
          "internalType": "string",
          "name": "_farmerExpiryDate",
          "type": "string"
        },
        {
          "internalType": "uint256",
          "name": "holding",
          "type": "uint256"
        },
        {
          "internalType": "uint256",
          "name": "_costToProduce",
          "type": "uint256"
        }
      ],
      "name": "createFarmer",
      "outputs": [],
      "payable": false,
      "stateMutability": "nonpayable",
      "type": "function"
    },
    {
      "constant": false,
      "inputs": [
        {
          "internalType": "uint256",
          "name": "_farmerId",
          "type": "uint256"
        },
        {
          "internalType": "uint256",
          "name": "_amount",
          "type": "uint256"
        },
        {
          "internalType": "uint256",
          "name": "_holding",
          "type": "uint256"
        }
      ],
      "name": "createAgreement",
      "outputs": [],
      "payable": false,
      "stateMutability": "nonpayable",
      "type": "function"
    },
    {
      "constant": false,
      "inputs": [
        {
          "internalType": "uint256",
          "name": "_id",
          "type": "uint256"
        }
      ],
      "name": "purchaseProduct",
      "outputs": [],
      "payable": true,
      "stateMutability": "payable",
      "type": "function"
    },
    {
      "constant": false,
      "inputs": [
        {
          "internalType": "uint256",
          "name": "_id",
          "type": "uint256"
        }
      ],
      "name": "repay",
      "outputs": [],
      "payable": true,
      "stateMutability": "payable",
      "type": "function"
    }
  ],
  "bytecode": "0x608060405260006001556000600255600060035534801561001f57600080fd5b506125148061002f6000396000f3fe6080604052600436106100a75760003560e01c80638afdd669116100645780638afdd669146103b4578063b168f4fc14610635578063bd45b397146108eb578063de71f2d214610916578063eadb3c9c14610a7f578063fe8b41ff14610aaa576100a7565b806303988f84146100ac57806306fdde031461016f578063371fd8e6146101ff57806338e76a031461022d578063521a6e941461025b57806359fb49f914610286575b600080fd5b3480156100b857600080fd5b506100e5600480360360208110156100cf57600080fd5b8101908080359060200190929190505050610af9565b604051808681526020018573ffffffffffffffffffffffffffffffffffffffff1673ffffffffffffffffffffffffffffffffffffffff1681526020018473ffffffffffffffffffffffffffffffffffffffff1673ffffffffffffffffffffffffffffffffffffffff1681526020018381526020018281526020019550505050505060405180910390f35b34801561017b57600080fd5b50610184610b6f565b6040518080602001828103825283818151815260200191508051906020019080838360005b838110156101c45780820151818401526020810190506101a9565b50505050905090810190601f1680156101f15780820380516001836020036101000a031916815260200191505b509250505060405180910390f35b61022b6004803603602081101561021557600080fd5b8101908080359060200190929190505050610c0d565b005b6102596004803603602081101561024357600080fd5b8101908080359060200190929190505050611015565b005b34801561026757600080fd5b506102706115dc565b6040518082815260200191505060405180910390f35b34801561029257600080fd5b506102bf600480360360208110156102a957600080fd5b81019080803590602001909291905050506115e2565b604051808581526020018060200180602001848152602001838103835286818151815260200191508051906020019080838360005b8381101561030f5780820151818401526020810190506102f4565b50505050905090810190601f16801561033c5780820380516001836020036101000a031916815260200191505b50838103825285818151815260200191508051906020019080838360005b8381101561037557808201518184015260208101905061035a565b50505050905090810190601f1680156103a25780820380516001836020036101000a031916815260200191505b50965050505050505060405180910390f35b3480156103c057600080fd5b506103ed600480360360208110156103d757600080fd5b8101908080359060200190929190505050611742565b604051808c81526020018060200180602001806020018b81526020018a8152602001806020018973ffffffffffffffffffffffffffffffffffffffff1673ffffffffffffffffffffffffffffffffffffffff1681526020018873ffffffffffffffffffffffffffffffffffffffff1673ffffffffffffffffffffffffffffffffffffffff16815260200187815260200186815260200185810385528f818151815260200191508051906020019080838360005b838110156104bb5780820151818401526020810190506104a0565b50505050905090810190601f1680156104e85780820380516001836020036101000a031916815260200191505b5085810384528e818151815260200191508051906020019080838360005b83811015610521578082015181840152602081019050610506565b50505050905090810190601f16801561054e5780820380516001836020036101000a031916815260200191505b5085810383528d818151815260200191508051906020019080838360005b8381101561058757808201518184015260208101905061056c565b50505050905090810190601f1680156105b45780820380516001836020036101000a031916815260200191505b5085810382528a818151815260200191508051906020019080838360005b838110156105ed5780820151818401526020810190506105d2565b50505050905090810190601f16801561061a5780820380516001836020036101000a031916815260200191505b509f5050505050505050505050505050505060405180910390f35b34801561064157600080fd5b506108e9600480360361010081101561065957600080fd5b810190808035906020019064010000000081111561067657600080fd5b82018360208201111561068857600080fd5b803590602001918460018302840111640100000000831117156106aa57600080fd5b91908080601f016020809104026020016040519081016040528093929190818152602001838380828437600081840152601f19601f8201169050808301925050505050505091929192908035906020019064010000000081111561070d57600080fd5b82018360208201111561071f57600080fd5b8035906020019184600183028401116401000000008311171561074157600080fd5b91908080601f016020809104026020016040519081016040528093929190818152602001838380828437600081840152601f19601f820116905080830192505050505050509192919290803590602001906401000000008111156107a457600080fd5b8201836020820111156107b657600080fd5b803590602001918460018302840111640100000000831117156107d857600080fd5b91908080601f016020809104026020016040519081016040528093929190818152602001838380828437600081840152601f19601f82011690508083019250505050505050919291929080359060200190929190803590602001909291908035906020019064010000000081111561084f57600080fd5b82018360208201111561086157600080fd5b8035906020019184600183028401116401000000008311171561088357600080fd5b91908080601f016020809104026020016040519081016040528093929190818152602001838380828437600081840152601f19601f8201169050808301925050505050505091929192908035906020019092919080359060200190929190505050611a3c565b005b3480156108f757600080fd5b50610900611c64565b6040518082815260200191505060405180910390f35b34801561092257600080fd5b50610a7d6004803603606081101561093957600080fd5b810190808035906020019064010000000081111561095657600080fd5b82018360208201111561096857600080fd5b8035906020019184600183028401116401000000008311171561098a57600080fd5b91908080601f016020809104026020016040519081016040528093929190818152602001838380828437600081840152601f19601f82011690508083019250505050505050919291929080359060200190929190803590602001906401000000008111156109f757600080fd5b820183602082011115610a0957600080fd5b80359060200191846001830284011164010000000083111715610a2b57600080fd5b91908080601f016020809104026020016040519081016040528093929190818152602001838380828437600081840152601f19601f820116905080830192505050505050509192919290505050611c6a565b005b348015610a8b57600080fd5b50610a94611d33565b6040518082815260200191505060405180910390f35b348015610ab657600080fd5b50610af760048036036060811015610acd57600080fd5b81019080803590602001909291908035906020019092919080359060200190929190505050611d39565b005b60056020528060005260406000206000915090508060000154908060010160009054906101000a900473ffffffffffffffffffffffffffffffffffffffff16908060020160009054906101000a900473ffffffffffffffffffffffffffffffffffffffff16908060030154908060040154905085565b60008054600181600116156101000203166002900480601f016020809104026020016040519081016040528092919081815260200182805460018160011615610100020316600290048015610c055780601f10610bda57610100808354040283529160200191610c05565b820191906000526020600020905b815481529060010190602001808311610be857829003601f168201915b505050505081565b610c156123b4565b600460008381526020019081526020016000206040518061016001604052908160008201548152602001600182018054600181600116156101000203166002900480601f016020809104026020016040519081016040528092919081815260200182805460018160011615610100020316600290048015610cd75780601f10610cac57610100808354040283529160200191610cd7565b820191906000526020600020905b815481529060010190602001808311610cba57829003601f168201915b50505050508152602001600282018054600181600116156101000203166002900480601f016020809104026020016040519081016040528092919081815260200182805460018160011615610100020316600290048015610d795780601f10610d4e57610100808354040283529160200191610d79565b820191906000526020600020905b815481529060010190602001808311610d5c57829003601f168201915b50505050508152602001600382018054600181600116156101000203166002900480601f016020809104026020016040519081016040528092919081815260200182805460018160011615610100020316600290048015610e1b5780601f10610df057610100808354040283529160200191610e1b565b820191906000526020600020905b815481529060010190602001808311610dfe57829003601f168201915b505050505081526020016004820154815260200160058201548152602001600682018054600181600116156101000203166002900480601f016020809104026020016040519081016040528092919081815260200182805460018160011615610100020316600290048015610ed15780601f10610ea657610100808354040283529160200191610ed1565b820191906000526020600020905b815481529060010190602001808311610eb457829003601f168201915b505050505081526020016007820160009054906101000a900473ffffffffffffffffffffffffffffffffffffffff1673ffffffffffffffffffffffffffffffffffffffff1673ffffffffffffffffffffffffffffffffffffffff1681526020016008820160009054906101000a900473ffffffffffffffffffffffffffffffffffffffff1673ffffffffffffffffffffffffffffffffffffffff1673ffffffffffffffffffffffffffffffffffffffff16815260200160098201548152602001600a8201548152505090506000816101000151905060008260000151118015610fc05750600154826000015111155b610fc957600080fd5b8073ffffffffffffffffffffffffffffffffffffffff166108fc349081150290604051600060405180830381858888f1935050505015801561100f573d6000803e3d6000fd5b50505050565b61101d6123b4565b600460008381526020019081526020016000206040518061016001604052908160008201548152602001600182018054600181600116156101000203166002900480601f0160208091040260200160405190810160405280929190818152602001828054600181600116156101000203166002900480156110df5780601f106110b4576101008083540402835291602001916110df565b820191906000526020600020905b8154815290600101906020018083116110c257829003601f168201915b50505050508152602001600282018054600181600116156101000203166002900480601f0160208091040260200160405190810160405280929190818152602001828054600181600116156101000203166002900480156111815780601f1061115657610100808354040283529160200191611181565b820191906000526020600020905b81548152906001019060200180831161116457829003601f168201915b50505050508152602001600382018054600181600116156101000203166002900480601f0160208091040260200160405190810160405280929190818152602001828054600181600116156101000203166002900480156112235780601f106111f857610100808354040283529160200191611223565b820191906000526020600020905b81548152906001019060200180831161120657829003601f168201915b505050505081526020016004820154815260200160058201548152602001600682018054600181600116156101000203166002900480601f0160208091040260200160405190810160405280929190818152602001828054600181600116156101000203166002900480156112d95780601f106112ae576101008083540402835291602001916112d9565b820191906000526020600020905b8154815290600101906020018083116112bc57829003601f168201915b505050505081526020016007820160009054906101000a900473ffffffffffffffffffffffffffffffffffffffff1673ffffffffffffffffffffffffffffffffffffffff1673ffffffffffffffffffffffffffffffffffffffff1681526020016008820160009054906101000a900473ffffffffffffffffffffffffffffffffffffffff1673ffffffffffffffffffffffffffffffffffffffff1673ffffffffffffffffffffffffffffffffffffffff16815260200160098201548152602001600a82015481525050905060008160e001519050600082600001511180156113c75750600154826000015111155b6113d057600080fd5b3373ffffffffffffffffffffffffffffffffffffffff168173ffffffffffffffffffffffffffffffffffffffff16141561140957600080fd5b3382610100019073ffffffffffffffffffffffffffffffffffffffff16908173ffffffffffffffffffffffffffffffffffffffff1681525050816004600085815260200190815260200160002060008201518160000155602082015181600101908051906020019061147c92919061243a565b50604082015181600201908051906020019061149992919061243a565b5060608201518160030190805190602001906114b692919061243a565b506080820151816004015560a0820151816005015560c08201518160060190805190602001906114e792919061243a565b5060e08201518160070160006101000a81548173ffffffffffffffffffffffffffffffffffffffff021916908373ffffffffffffffffffffffffffffffffffffffff1602179055506101008201518160080160006101000a81548173ffffffffffffffffffffffffffffffffffffffff021916908373ffffffffffffffffffffffffffffffffffffffff160217905550610120820151816009015561014082015181600a01559050508073ffffffffffffffffffffffffffffffffffffffff166108fc349081150290604051600060405180830381858888f193505050501580156115d6573d6000803e3d6000fd5b50505050565b60035481565b6006602052806000526040600020600091509050806000015490806001018054600181600116156101000203166002900480601f0160208091040260200160405190810160405280929190818152602001828054600181600116156101000203166002900480156116945780601f1061166957610100808354040283529160200191611694565b820191906000526020600020905b81548152906001019060200180831161167757829003601f168201915b505050505090806002018054600181600116156101000203166002900480601f0160208091040260200160405190810160405280929190818152602001828054600181600116156101000203166002900480156117325780601f1061170757610100808354040283529160200191611732565b820191906000526020600020905b81548152906001019060200180831161171557829003601f168201915b5050505050908060030154905084565b6004602052806000526040600020600091509050806000015490806001018054600181600116156101000203166002900480601f0160208091040260200160405190810160405280929190818152602001828054600181600116156101000203166002900480156117f45780601f106117c9576101008083540402835291602001916117f4565b820191906000526020600020905b8154815290600101906020018083116117d757829003601f168201915b505050505090806002018054600181600116156101000203166002900480601f0160208091040260200160405190810160405280929190818152602001828054600181600116156101000203166002900480156118925780601f1061186757610100808354040283529160200191611892565b820191906000526020600020905b81548152906001019060200180831161187557829003601f168201915b505050505090806003018054600181600116156101000203166002900480601f0160208091040260200160405190810160405280929190818152602001828054600181600116156101000203166002900480156119305780601f1061190557610100808354040283529160200191611930565b820191906000526020600020905b81548152906001019060200180831161191357829003601f168201915b505050505090806004015490806005015490806006018054600181600116156101000203166002900480601f0160208091040260200160405190810160405280929190818152602001828054600181600116156101000203166002900480156119da5780601f106119af576101008083540402835291602001916119da565b820191906000526020600020905b8154815290600101906020018083116119bd57829003601f168201915b5050505050908060070160009054906101000a900473ffffffffffffffffffffffffffffffffffffffff16908060080160009054906101000a900473ffffffffffffffffffffffffffffffffffffffff169080600901549080600a015490508b565b6000885111611a4a57600080fd5b60008411611a5757600080fd5b60008511611a6457600080fd5b6000865111611a7257600080fd5b60008111611a7f57600080fd5b60016000815480929190600101919050555060405180610160016040528060015481526020018981526020018881526020018781526020018681526020018581526020018481526020013373ffffffffffffffffffffffffffffffffffffffff1681526020013373ffffffffffffffffffffffffffffffffffffffff16815260200183815260200182815250600460006001548152602001908152602001600020600082015181600001556020820151816001019080519060200190611b4692919061243a565b506040820151816002019080519060200190611b6392919061243a565b506060820151816003019080519060200190611b8092919061243a565b506080820151816004015560a0820151816005015560c0820151816006019080519060200190611bb192919061243a565b5060e08201518160070160006101000a81548173ffffffffffffffffffffffffffffffffffffffff021916908373ffffffffffffffffffffffffffffffffffffffff1602179055506101008201518160080160006101000a81548173ffffffffffffffffffffffffffffffffffffffff021916908373ffffffffffffffffffffffffffffffffffffffff160217905550610120820151816009015561014082015181600a01559050505050505050505050565b60015481565b6000835111611c7857600080fd5b60008211611c8557600080fd5b6000815111611c9357600080fd5b6003600081548092919060010191905055506040518060800160405280600354815260200184815260200182815260200183815250600660006003548152602001908152602001600020600082015181600001556020820151816001019080519060200190611d0392919061243a565b506040820151816002019080519060200190611d2092919061243a565b5060608201518160030155905050505050565b60025481565b611d416123b4565b600460008581526020019081526020016000206040518061016001604052908160008201548152602001600182018054600181600116156101000203166002900480601f016020809104026020016040519081016040528092919081815260200182805460018160011615610100020316600290048015611e035780601f10611dd857610100808354040283529160200191611e03565b820191906000526020600020905b815481529060010190602001808311611de657829003601f168201915b50505050508152602001600282018054600181600116156101000203166002900480601f016020809104026020016040519081016040528092919081815260200182805460018160011615610100020316600290048015611ea55780601f10611e7a57610100808354040283529160200191611ea5565b820191906000526020600020905b815481529060010190602001808311611e8857829003601f168201915b50505050508152602001600382018054600181600116156101000203166002900480601f016020809104026020016040519081016040528092919081815260200182805460018160011615610100020316600290048015611f475780601f10611f1c57610100808354040283529160200191611f47565b820191906000526020600020905b815481529060010190602001808311611f2a57829003601f168201915b505050505081526020016004820154815260200160058201548152602001600682018054600181600116156101000203166002900480601f016020809104026020016040519081016040528092919081815260200182805460018160011615610100020316600290048015611ffd5780601f10611fd257610100808354040283529160200191611ffd565b820191906000526020600020905b815481529060010190602001808311611fe057829003601f168201915b505050505081526020016007820160009054906101000a900473ffffffffffffffffffffffffffffffffffffffff1673ffffffffffffffffffffffffffffffffffffffff1673ffffffffffffffffffffffffffffffffffffffff1681526020016008820160009054906101000a900473ffffffffffffffffffffffffffffffffffffffff1673ffffffffffffffffffffffffffffffffffffffff1673ffffffffffffffffffffffffffffffffffffffff16815260200160098201548152602001600a8201548152505090508181610120015103816101200181815250503381610100019073ffffffffffffffffffffffffffffffffffffffff16908173ffffffffffffffffffffffffffffffffffffffff168152505060008160e0015190506000841161212957600080fd5b816004600087815260200190815260200160002060008201518160000155602082015181600101908051906020019061216392919061243a565b50604082015181600201908051906020019061218092919061243a565b50606082015181600301908051906020019061219d92919061243a565b506080820151816004015560a0820151816005015560c08201518160060190805190602001906121ce92919061243a565b5060e08201518160070160006101000a81548173ffffffffffffffffffffffffffffffffffffffff021916908373ffffffffffffffffffffffffffffffffffffffff1602179055506101008201518160080160006101000a81548173ffffffffffffffffffffffffffffffffffffffff021916908373ffffffffffffffffffffffffffffffffffffffff160217905550610120820151816009015561014082015181600a01559050506000831161228457600080fd5b6002600081548092919060010191905055506040518060a001604052808681526020018273ffffffffffffffffffffffffffffffffffffffff1681526020013373ffffffffffffffffffffffffffffffffffffffff168152602001858152602001848152506005600060025481526020019081526020016000206000820151816000015560208201518160010160006101000a81548173ffffffffffffffffffffffffffffffffffffffff021916908373ffffffffffffffffffffffffffffffffffffffff16021790555060408201518160020160006101000a81548173ffffffffffffffffffffffffffffffffffffffff021916908373ffffffffffffffffffffffffffffffffffffffff16021790555060608201518160030155608082015181600401559050505050505050565b60405180610160016040528060008152602001606081526020016060815260200160608152602001600081526020016000815260200160608152602001600073ffffffffffffffffffffffffffffffffffffffff168152602001600073ffffffffffffffffffffffffffffffffffffffff16815260200160008152602001600081525090565b828054600181600116156101000203166002900490600052602060002090601f016020900481019282601f1061247b57805160ff19168380011785556124a9565b828001600101855582156124a9579182015b828111156124a857825182559160200191906001019061248d565b5b5090506124b691906124ba565b5090565b6124dc91905b808211156124d85760008160009055506001016124c0565b5090565b9056fea265627a7a72315820b3851c224feea5d694455cd270e48b115d1ea8554f6691e7bf074550f9b6427064736f6c63430005100032",
  "source": "pragma solidity ^0.5.0;\r\n\r\ncontract Investment {\r\n    string public name;\r\n    uint public farmerCount = 0;\r\n    uint public dealCount = 0;\r\n    uint public insuranceCount = 0;\r\n\r\n    struct Insurance {\r\n        uint insuranceId;\r\n        string farmerName;\r\n        string typeOfInsurance;\r\n        uint premium;\r\n    }\r\n        struct Farmer{\r\n        uint farmerId;\r\n        string farmerName;\r\n        string landLocation;\r\n        string crop;\r\n        uint256 quantity;\r\n        uint256 expectedPrice;\r\n        string expDate;\r\n        address payable owner;\r\n        address payable investor;\r\n        uint holding;\r\n        uint costToProduce;\r\n    }\r\n\r\n        struct Agreement{\r\n        uint farmerID;\r\n        address farmerAddress;\r\n        address investorAddress;\r\n        uint256 amount;\r\n        uint256 holdingPercent;\r\n    }\r\n\r\n\r\n\r\n    mapping(uint => Farmer) public farmers;\r\n    mapping(uint => Agreement) public deals;\r\n    mapping(uint => Insurance) public insurances;\r\n\r\n    function createInsurance(\r\n                        string memory _farmerName,\r\n                        uint premium,\r\n                        string memory _insuranceType\r\n                        ) public  {\r\n        \r\n        //Require a valid name\r\n        require(bytes(_farmerName).length > 0);\r\n        // Require a valid price\r\n        require(premium > 0);\r\n        // Require a valid quantity\r\n        require(bytes(_insuranceType).length > 0);\r\n        //Increment product count\r\n        insuranceCount ++;\r\n        // Create the farmer\r\n        insurances[insuranceCount] = Insurance(insuranceCount, _farmerName,_insuranceType, premium);\r\n    }\r\n\r\n\r\n\r\n\r\n    function createFarmer(\r\n                        string memory _farmerName,\r\n                        string memory _farmerLandLocation,\r\n                        string memory _farmerCrop,\r\n                        uint _farmerQuantity,\r\n                        uint _farmerExpectedPrice,\r\n                        string memory _farmerExpiryDate,\r\n                        uint holding,\r\n                        uint _costToProduce) public  {\r\n        \r\n        //Require a valid name\r\n        require(bytes(_farmerName).length > 0);\r\n        // Require a valid price\r\n        require(_farmerExpectedPrice > 0);\r\n        // Require a valid quantity\r\n        require(_farmerQuantity > 0);\r\n        // Require a crop\r\n        require(bytes(_farmerCrop).length > 0);\r\n        // require cost to produce to be greater than 0\r\n        require(_costToProduce > 0);\r\n        //Increment product count\r\n        farmerCount ++;\r\n        // Create the farmer\r\n        farmers[farmerCount] = Farmer(farmerCount, _farmerName, _farmerLandLocation, \r\n                                    _farmerCrop, _farmerQuantity, _farmerExpectedPrice,\r\n                                    _farmerExpiryDate, msg.sender, msg.sender, holding, _costToProduce);\r\n    }\r\n\r\n        function createAgreement(\r\n                        uint _farmerId,\r\n                        uint _amount,\r\n                        uint _holding) public  {\r\n        \r\n               // Fetch the product\r\n        Farmer memory _farmer = farmers[_farmerId];\r\n\r\n        _farmer.holding = _farmer.holding - _holding;\r\n        _farmer.investor = msg.sender;\r\n        // Fetch the owner\r\n        address payable _farmerAddress = _farmer.owner;\r\n        // Require a valid amount\r\n        require(_amount > 0);\r\n\r\n        farmers[_farmerId] = _farmer;\r\n        // Require a valid holding\r\n        require(_holding > 0);\r\n\r\n        dealCount++;\r\n        // Create the agreement\r\n        deals[dealCount] = Agreement(_farmerId, _farmerAddress, msg.sender, \r\n                                    _amount, _holding);\r\n    }\r\n\r\n        function purchaseProduct(uint _id) public payable {\r\n        // Fetch the product\r\n        Farmer memory _farmer = farmers[_id];\r\n        // Fetch the owner\r\n        address payable _seller = _farmer.owner;\r\n        // Make sure the product has a valid id\r\n        require(_farmer.farmerId > 0 && _farmer.farmerId <= farmerCount);\r\n        // Require that there is enough Ether in the transaction\r\n        // require(msg.value >= _product.price);\r\n        // Require that the product has not been purchased already\r\n        // require(!_product.purchased);\r\n        // Require that the buyer is not the seller\r\n        require(_seller != msg.sender);\r\n        // Transfer ownership to the buyer\r\n        // Mark as purchased\r\n        _farmer.investor = msg.sender;\r\n        // Update the product\r\n        farmers[_id] = _farmer;\r\n        // Pay the seller by sending them Ether\r\n        address(_seller).transfer(msg.value);\r\n    }\r\n    function repay(uint _id) public payable {\r\n        // Fetch the product\r\n        Farmer memory _farmer = farmers[_id];\r\n        // Fetch the owner\r\n        address payable _seller = _farmer.investor;\r\n        // Make sure the product has a valid id\r\n        require(_farmer.farmerId > 0 && _farmer.farmerId <= farmerCount);\r\n        // Require that there is enough Ether in the transaction\r\n        // require(msg.value >= _product.price);\r\n        // Require that the product has not been purchased already\r\n        // require(!_product.purchased);\r\n        // Require that the buyer is not the seller\r\n        // Transfer ownership to the buyer\r\n        //_product.owner = msg.sender;\r\n        // Mark as purchased\r\n        //_product.purchased = true;\r\n        // Update the product\r\n        // Pay the seller by sending them Ether\r\n        address(_seller).transfer(msg.value);\r\n        // Trigger an event\r\n    }\r\n}\r\n\r\n    \r\n\r\n",
  "sourcePath": "C:\\MscAC\\Blockchain\\2125\\Code\\src\\contracts\\Investment.sol",
  "compiler": {
    "name": "solc",
    "version": "0.5.16+commit.9c3226ce.Emscripten.clang"
  },
  "schemaVersion": "3.4.5",
  "updatedAt": "2022-04-04T20:56:15.235Z",
  "networkType": "ethereum",
  "devdoc": {
    "methods": {}
  },
  "userdoc": {
    "methods": {}
  }
}