{
  "contractName": "NewFarmExchange",
  "abi": [
    {
      "constant": true,
      "inputs": [],
      "name": "getFarmerCount",
      "outputs": [
        {
          "internalType": "uint256",
          "name": "",
          "type": "uint256"
        }
      ],
      "payable": false,
      "stateMutability": "view",
      "type": "function"
    },
    {
      "constant": true,
      "inputs": [],
      "name": "getFarmers",
      "outputs": [
        {
          "internalType": "contract Farmer[]",
          "name": "",
          "type": "address[]"
        }
      ],
      "payable": false,
      "stateMutability": "view",
      "type": "function"
    },
    {
      "constant": false,
      "inputs": [
        {
          "internalType": "string",
          "name": "name_",
          "type": "string"
        },
        {
          "internalType": "uint256",
          "name": "costToProduce_",
          "type": "uint256"
        },
        {
          "internalType": "uint256",
          "name": "quantity_",
          "type": "uint256"
        },
        {
          "internalType": "string",
          "name": "cropName_",
          "type": "string"
        },
        {
          "internalType": "string",
          "name": "landLocation_",
          "type": "string"
        },
        {
          "internalType": "uint256",
          "name": "holding_",
          "type": "uint256"
        }
      ],
      "name": "createFarmer",
      "outputs": [],
      "payable": false,
      "stateMutability": "nonpayable",
      "type": "function"
    }
  ],
  "bytecode": "0x60806040526000805534801561001457600080fd5b50610c26806100246000396000f3fe608060405234801561001057600080fd5b50600436106100415760003560e01c8063789f8d4014610046578063bed163ba146100a5578063c4a8b5d5146102ac575b600080fd5b61004e6102ca565b6040518080602001828103825283818151815260200191508051906020019060200280838360005b83811015610091578082015181840152602081019050610076565b505050509050019250505060405180910390f35b6102aa600480360360c08110156100bb57600080fd5b81019080803590602001906401000000008111156100d857600080fd5b8201836020820111156100ea57600080fd5b8035906020019184600183028401116401000000008311171561010c57600080fd5b91908080601f016020809104026020016040519081016040528093929190818152602001838380828437600081840152601f19601f82011690508083019250505050505050919291929080359060200190929190803590602001909291908035906020019064010000000081111561018357600080fd5b82018360208201111561019557600080fd5b803590602001918460018302840111640100000000831117156101b757600080fd5b91908080601f016020809104026020016040519081016040528093929190818152602001838380828437600081840152601f19601f8201169050808301925050505050505091929192908035906020019064010000000081111561021a57600080fd5b82018360208201111561022c57600080fd5b8035906020019184600183028401116401000000008311171561024e57600080fd5b91908080601f016020809104026020016040519081016040528093929190818152602001838380828437600081840152601f19601f820116905080830192505050505050509192919290803590602001909291905050506103a0565b005b6102b46105a6565b6040518082815260200191505060405180910390f35b6060806000546040519080825280602002602001820160405280156102fe5781602001602082028038833980820191505090505b50905060008090505b600054811015610398576001600082815260200190815260200160002060009054906101000a900473ffffffffffffffffffffffffffffffffffffffff1682828151811061035157fe5b602002602001019073ffffffffffffffffffffffffffffffffffffffff16908173ffffffffffffffffffffffffffffffffffffffff16815250508080600101915050610307565b508091505090565b60008686868686866000546040516103b7906105af565b8080602001888152602001878152602001806020018060200186815260200185815260200184810384528b818151815260200191508051906020019080838360005b838110156104145780820151818401526020810190506103f9565b50505050905090810190601f1680156104415780820380516001836020036101000a031916815260200191505b50848103835288818151815260200191508051906020019080838360005b8381101561047a57808201518184015260208101905061045f565b50505050905090810190601f1680156104a75780820380516001836020036101000a031916815260200191505b50848103825287818151815260200191508051906020019080838360005b838110156104e05780820151818401526020810190506104c5565b50505050905090810190601f16801561050d5780820380516001836020036101000a031916815260200191505b509a5050505050505050505050604051809103906000f080158015610536573d6000803e3d6000fd5b509050600080815480929190600101919050555080600160008054815260200190815260200160002060006101000a81548173ffffffffffffffffffffffffffffffffffffffff021916908373ffffffffffffffffffffffffffffffffffffffff16021790555050505050505050565b60008054905090565b610635806105bd8339019056fe608060405234801561001057600080fd5b50604051610635380380610635833981810160405260e081101561003357600080fd5b810190808051604051939291908464010000000082111561005357600080fd5b8382019150602082018581111561006957600080fd5b825186600182028301116401000000008211171561008657600080fd5b8083526020830192505050908051906020019080838360005b838110156100ba57808201518184015260208101905061009f565b50505050905090810190601f1680156100e75780820380516001836020036101000a031916815260200191505b5060405260200180519060200190929190805190602001909291908051604051939291908464010000000082111561011e57600080fd5b8382019150602082018581111561013457600080fd5b825186600182028301116401000000008211171561015157600080fd5b8083526020830192505050908051906020019080838360005b8381101561018557808201518184015260208101905061016a565b50505050905090810190601f1680156101b25780820380516001836020036101000a031916815260200191505b50604052602001805160405193929190846401000000008211156101d557600080fd5b838201915060208201858111156101eb57600080fd5b825186600182028301116401000000008211171561020857600080fd5b8083526020830192505050908051906020019080838360005b8381101561023c578082015181840152602081019050610221565b50505050905090810190601f1680156102695780820380516001836020036101000a031916815260200191505b5060405260200180519060200190929190805190602001909291905050508681600082511161029757600080fd5b81600090805190602001906102ad929190610347565b5033600260006101000a81548173ffffffffffffffffffffffffffffffffffffffff021916908373ffffffffffffffffffffffffffffffffffffffff1602179055508060018190555050508560038190555084600481905550836005908051906020019061031c929190610347565b508260069080519060200190610333929190610347565b5081600781905550505050505050506103ec565b828054600181600116156101000203166002900490600052602060002090601f016020900481019282601f1061038857805160ff19168380011785556103b6565b828001600101855582156103b6579182015b828111156103b557825182559160200191906001019061039a565b5b5090506103c391906103c7565b5090565b6103e991905b808211156103e55760008160009055506001016103cd565b5090565b90565b61023a806103fb6000396000f3fe608060405234801561001057600080fd5b50600436106100415760003560e01c80630e2562d91461004657806317d7de7c14610090578063ab9dbd0714610113575b600080fd5b61004e610131565b604051808273ffffffffffffffffffffffffffffffffffffffff1673ffffffffffffffffffffffffffffffffffffffff16815260200191505060405180910390f35b61009861015b565b6040518080602001828103825283818151815260200191508051906020019080838360005b838110156100d85780820151818401526020810190506100bd565b50505050905090810190601f1680156101055780820380516001836020036101000a031916815260200191505b509250505060405180910390f35b61011b6101fd565b6040518082815260200191505060405180910390f35b6000600260009054906101000a900473ffffffffffffffffffffffffffffffffffffffff16905090565b606060008054600181600116156101000203166002900480601f0160208091040260200160405190810160405280929190818152602001828054600181600116156101000203166002900480156101f35780601f106101c8576101008083540402835291602001916101f3565b820191906000526020600020905b8154815290600101906020018083116101d657829003601f168201915b5050505050905090565b60008090509056fea265627a7a72315820432188ea36747d6281967c4520aec6bc97d4c544c6106ea4e66cf01fed5da2d964736f6c63430005100032a265627a7a723158206ecaf1059dd0a67f48732c07ff23b59d7a40dc5053b96eef22f980fe99563a6564736f6c63430005100032",
  "source": "pragma solidity ^0.5.0; \r\n\r\ncontract NewFarmExchange { \r\n    uint private farmerCount = 0;\r\n    // uint private processorCount = 0;\r\n    // uint private cropCount = 0; \r\n    // uint private productCount = 0; \r\n    // uint private customerCount = 0; \r\n    mapping(uint => Farmer) private farmers; \r\n    // mapping(uint => Processor) private processors; \r\n    // mapping(uint => Ownable) private crops; \r\n    // mapping(uint => Ownable) private products;\r\n    // mapping(uint => Ownable) private customers; \r\n\r\n    //mapping(uint => ProcessedItem) public processedItems;\r\n    //mapping(uint => MarketProduct) public marketProducts; \r\n\r\n    function getFarmerCount() public view returns (uint) {return farmerCount; }\r\n\r\n\r\n\r\n    function getFarmers() public view returns (Farmer[] memory){\r\n    Farmer[] memory ret = new Farmer[](farmerCount);\r\n    for (uint i = 0; i < farmerCount; i++) {\r\n        ret[i] = farmers[i];\r\n    }\r\n    return ret;\r\n}\r\n    \r\n\r\n    function createFarmer(string memory name_, uint costToProduce_, uint quantity_, string memory cropName_, string memory landLocation_, uint holding_) public  {\r\n        Farmer f = new Farmer(name_, costToProduce_, quantity_, cropName_, landLocation_, holding_, farmerCount);\r\n        farmerCount++;\r\n        farmers[farmerCount] = f;      \r\n      \r\n    } \r\n\r\n//     function createProcessor(string memory name_) public {\r\n//         processorCount++;\r\n//         Processor processor = new Processor(name_, processorCount);\r\n//         processors[processorCount] = processor;    \r\n//     }\r\n\r\n//     function createCustomer(string memory name_) public {\r\n//         customerCount++;\r\n//         Account customer = new Customer(name_, customerCount);\r\n//         customers[customerCount] = customer; \r\n//     }\r\n\r\n//     function createCrop(uint farmerID, string memory name_,  uint price_, uint quantity_) public {\r\n//         cropCount++; \r\n//         Account owner = farmers[farmerID]; \r\n//         Ownable c = new Ownable(name_, owner, price_, quantity_, cropCount, false, this); \r\n//         crops[cropCount] = c;   \r\n//     } \r\n\r\n//     function createProduct(uint processorID, string memory name_, uint price_, uint quantity_) public { \r\n//         productCount++;\r\n//         Account owner= processors[processorID]; \r\n//         Ownable p = new Ownable(name_, owner, price_, quantity_, productCount, true, this); \r\n//         products[productCount] = p; \r\n//     } \r\n\r\n//     function purchaseCrop(uint cropID,  uint processorID, uint quantity) public {                               //need to call create Processor first to get an processor ID optionally we could use account\r\n//         Ownable crop = crops[cropID]; \r\n//         crop.purchase(quantity, processors[processorID]); \r\n//     }\r\n\r\n//     function purchaseProduct(uint productID, uint customerID, uint quantity) public {\r\n//         Ownable product = products[productID];\r\n//         product.purchase(quantity, customers[customerID]); \r\n// }\r\n\r\n}\r\ncontract Ownable { \r\n     //address creator; //important for tracking who supplies the product in real life but how to implement it? \r\n     uint private id; \r\n     address payable owner; \r\n     uint private price; \r\n     string private name;  \r\n     uint private quantity; \r\n     bool private readyForMarket;  \r\n     NewFarmExchange farm; \r\n\r\n    constructor(string memory name_, address payable owner_, uint price_, uint quantity_, uint id_, bool readyForMarket_, NewFarmExchange farm_) public { \r\n                                   //set the exchange \r\n        owner = owner_;\r\n        require(bytes(name_).length > 0); \r\n        name = name_;  \r\n        owner = owner_;\r\n        require(price_ > 0);\r\n        price = price_; \r\n        require(quantity_ > 0);\r\n        quantity = quantity_; \r\n        id = id_; \r\n        readyForMarket = readyForMarket_;\r\n        farm = farm_;\r\n    }\r\n    function getID() public view returns (uint) {return id; }\r\n    function getOwner() public view returns (address) {return owner; } \r\n    function getPrice() public view returns (uint) {return price; }\r\n    function getName() public view returns (string memory)  {return name; }\r\n    function getQuantity() public view returns (uint) {return quantity;}\r\n    // function purchase(uint quantity_, address payable buyer) external { \r\n    //     require(quantity_ > 0 && quantity_ < quantity); \r\n    //     if(msg.sender == owner)  return;  //can't purchase your own product \r\n    //     require(msg.value >= (price * quantity)); \r\n    //     address(owner).transfer(msg.value); \r\n    //     if(quantity == quantity_) {\r\n    //         owner = buyer;  //exchange ownership when all is bought out; \r\n    //     }\r\n    //     quantity -= quantity_;   //partial buying \r\n    //     if(readyForMarket) {\r\n    //         //create a new ownable with requested quantity for the new owner; \r\n    //         farm.createProduct(name, getID(), price, quantity_); //should we set the price to zero? \r\n    //     } else {\r\n    //         farm.createCrop(name, buyer.getID(), price, quantity_);\r\n    //     }     \r\n    // } \r\n}\r\n\r\ncontract Account {\r\n    string private name; \r\n    uint private id; \r\n    address payable private accountAddress; \r\n    constructor(string memory name_, uint id_) internal {\r\n        require(bytes(name_).length > 0); \r\n        name = name_;\r\n        accountAddress = msg.sender;\r\n        id = id_; \r\n    }\r\n    function getAccountAddress() public view returns(address) {return accountAddress; } \r\n    function getName() public view returns(string memory)  {return name; } \r\n    function getID() public pure returns(uint ID) {return ID; }\r\n} \r\n\r\ncontract Farmer is Account {\r\n    uint private costToProduce; \r\n    uint quantity;  \r\n    string private cropName;  \r\n    string private landLocation;\r\n    uint private holding; \r\n    constructor(string memory name_, uint costToProduce_, uint quantity_, string memory cropName_, string memory landLocation_, uint holding_, uint id_) Account(name_, id_) public {\r\n        costToProduce = costToProduce_;\r\n        quantity = quantity_;\r\n        cropName = cropName_;\r\n        landLocation = landLocation_;\r\n        holding = holding_; \r\n    } \r\n} \r\n\r\n// contract Processor is Account{ \r\n//     uint quantity;  \r\n//     constructor(string memory name_, uint costToProduce_, uint quantity_, string memory cropName_, string memory landLocation_, uint holding_, uint id_) Account(name_, id_) public {\r\n//         quantity = quantity_;\r\n//     } \r\n\r\n// contract Customer is Account{  \r\n//      constructor(string memory name_, uint id_) Account(name_, id_) public {\r\n//     } \r\n\r\n// }\r\n\r\n// contract Investor is Account{  \r\n//      constructor(string memory name_, uint id_) Account(name_, id_) public {\r\n//     } \r\n\r\n",
  "sourcePath": "C:\\MscAC\\Blockchain\\2125\\Code\\src\\contracts\\NewFarmExchange.sol",
  "compiler": {
    "name": "solc",
    "version": "0.5.16+commit.9c3226ce.Emscripten.clang"
  },
  "schemaVersion": "3.4.5",
  "updatedAt": "2022-03-27T04:53:50.204Z",
  "devdoc": {
    "methods": {}
  },
  "userdoc": {
    "methods": {}
  }
}