{
  "contractName": "Ownable",
  "abi": [
    {
      "inputs": [
        {
          "internalType": "string",
          "name": "name_",
          "type": "string"
        },
        {
          "internalType": "address payable",
          "name": "owner_",
          "type": "address"
        },
        {
          "internalType": "uint256",
          "name": "price_",
          "type": "uint256"
        },
        {
          "internalType": "uint256",
          "name": "quantity_",
          "type": "uint256"
        },
        {
          "internalType": "uint256",
          "name": "id_",
          "type": "uint256"
        },
        {
          "internalType": "bool",
          "name": "readyForMarket_",
          "type": "bool"
        },
        {
          "internalType": "contract NewFarmExchange",
          "name": "farm_",
          "type": "address"
        }
      ],
      "payable": false,
      "stateMutability": "nonpayable",
      "type": "constructor"
    },
    {
      "constant": true,
      "inputs": [],
      "name": "getID",
      "outputs": [
        {
          "internalType": "uint256",
          "name": "",
          "type": "uint256"
        }
      ],
      "payable": false,
      "stateMutability": "view",
      "type": "function"
    },
    {
      "constant": true,
      "inputs": [],
      "name": "getOwner",
      "outputs": [
        {
          "internalType": "address",
          "name": "",
          "type": "address"
        }
      ],
      "payable": false,
      "stateMutability": "view",
      "type": "function"
    },
    {
      "constant": true,
      "inputs": [],
      "name": "getPrice",
      "outputs": [
        {
          "internalType": "uint256",
          "name": "",
          "type": "uint256"
        }
      ],
      "payable": false,
      "stateMutability": "view",
      "type": "function"
    },
    {
      "constant": true,
      "inputs": [],
      "name": "getName",
      "outputs": [
        {
          "internalType": "string",
          "name": "",
          "type": "string"
        }
      ],
      "payable": false,
      "stateMutability": "view",
      "type": "function"
    },
    {
      "constant": true,
      "inputs": [],
      "name": "getQuantity",
      "outputs": [
        {
          "internalType": "uint256",
          "name": "",
          "type": "uint256"
        }
      ],
      "payable": false,
      "stateMutability": "view",
      "type": "function"
    }
  ],
  "bytecode": "0x608060405234801561001057600080fd5b506040516105bf3803806105bf833981810160405260e081101561003357600080fd5b810190808051604051939291908464010000000082111561005357600080fd5b8382019150602082018581111561006957600080fd5b825186600182028301116401000000008211171561008657600080fd5b8083526020830192505050908051906020019080838360005b838110156100ba57808201518184015260208101905061009f565b50505050905090810190601f1680156100e75780820380516001836020036101000a031916815260200191505b5060405260200180519060200190929190805190602001909291908051906020019092919080519060200190929190805190602001909291908051906020019092919050505085600160006101000a81548173ffffffffffffffffffffffffffffffffffffffff021916908373ffffffffffffffffffffffffffffffffffffffff160217905550600087511161017c57600080fd5b866003908051906020019061019292919061026a565b5085600160006101000a81548173ffffffffffffffffffffffffffffffffffffffff021916908373ffffffffffffffffffffffffffffffffffffffff160217905550600085116101e157600080fd5b84600281905550600084116101f557600080fd5b836004819055508260008190555081600560006101000a81548160ff02191690831515021790555080600560016101000a81548173ffffffffffffffffffffffffffffffffffffffff021916908373ffffffffffffffffffffffffffffffffffffffff1602179055505050505050505061030f565b828054600181600116156101000203166002900490600052602060002090601f016020900481019282601f106102ab57805160ff19168380011785556102d9565b828001600101855582156102d9579182015b828111156102d85782518255916020019190600101906102bd565b5b5090506102e691906102ea565b5090565b61030c91905b808211156103085760008160009055506001016102f0565b5090565b90565b6102a18061031e6000396000f3fe608060405234801561001057600080fd5b50600436106100575760003560e01c80630115949c1461005c57806317d7de7c1461007a578063893d20e8146100fd57806398d5fdca14610147578063ab9dbd0714610165575b600080fd5b610064610183565b6040518082815260200191505060405180910390f35b61008261018d565b6040518080602001828103825283818151815260200191508051906020019080838360005b838110156100c25780820151818401526020810190506100a7565b50505050905090810190601f1680156100ef5780820380516001836020036101000a031916815260200191505b509250505060405180910390f35b61010561022f565b604051808273ffffffffffffffffffffffffffffffffffffffff1673ffffffffffffffffffffffffffffffffffffffff16815260200191505060405180910390f35b61014f610259565b6040518082815260200191505060405180910390f35b61016d610263565b6040518082815260200191505060405180910390f35b6000600454905090565b606060038054600181600116156101000203166002900480601f0160208091040260200160405190810160405280929190818152602001828054600181600116156101000203166002900480156102255780601f106101fa57610100808354040283529160200191610225565b820191906000526020600020905b81548152906001019060200180831161020857829003601f168201915b5050505050905090565b6000600160009054906101000a900473ffffffffffffffffffffffffffffffffffffffff16905090565b6000600254905090565b6000805490509056fea265627a7a723158205dd3ac5b0c96570f06d8904f9bcd7fdc8b6f5c49b937f52d7663424aeaf1d2b164736f6c63430005100032",
  "source": "pragma solidity ^0.5.0; \r\n\r\ncontract NewFarmExchange { \r\n    uint private farmerCount = 0;\r\n    // uint private processorCount = 0;\r\n    // uint private cropCount = 0; \r\n    // uint private productCount = 0; \r\n    // uint private customerCount = 0; \r\n    mapping(uint => Farmer) private farmers; \r\n    // mapping(uint => Processor) private processors; \r\n    // mapping(uint => Ownable) private crops; \r\n    // mapping(uint => Ownable) private products;\r\n    // mapping(uint => Ownable) private customers; \r\n\r\n    //mapping(uint => ProcessedItem) public processedItems;\r\n    //mapping(uint => MarketProduct) public marketProducts; \r\n\r\n    function getFarmerCount() public view returns (uint) {return farmerCount; }\r\n\r\n\r\n\r\n    function getFarmers() public view returns (Farmer[] memory){\r\n    Farmer[] memory ret = new Farmer[](farmerCount);\r\n    for (uint i = 0; i < farmerCount; i++) {\r\n        ret[i] = farmers[i];\r\n    }\r\n    return ret;\r\n}\r\n    \r\n\r\n    function createFarmer(string memory name_, uint costToProduce_, uint quantity_, string memory cropName_, string memory landLocation_, uint holding_) public  {\r\n        Farmer f = new Farmer(name_, costToProduce_, quantity_, cropName_, landLocation_, holding_, farmerCount);\r\n        farmerCount++;\r\n        farmers[farmerCount] = f;      \r\n      \r\n    } \r\n\r\n//     function createProcessor(string memory name_) public {\r\n//         processorCount++;\r\n//         Processor processor = new Processor(name_, processorCount);\r\n//         processors[processorCount] = processor;    \r\n//     }\r\n\r\n//     function createCustomer(string memory name_) public {\r\n//         customerCount++;\r\n//         Account customer = new Customer(name_, customerCount);\r\n//         customers[customerCount] = customer; \r\n//     }\r\n\r\n//     function createCrop(uint farmerID, string memory name_,  uint price_, uint quantity_) public {\r\n//         cropCount++; \r\n//         Account owner = farmers[farmerID]; \r\n//         Ownable c = new Ownable(name_, owner, price_, quantity_, cropCount, false, this); \r\n//         crops[cropCount] = c;   \r\n//     } \r\n\r\n//     function createProduct(uint processorID, string memory name_, uint price_, uint quantity_) public { \r\n//         productCount++;\r\n//         Account owner= processors[processorID]; \r\n//         Ownable p = new Ownable(name_, owner, price_, quantity_, productCount, true, this); \r\n//         products[productCount] = p; \r\n//     } \r\n\r\n//     function purchaseCrop(uint cropID,  uint processorID, uint quantity) public {                               //need to call create Processor first to get an processor ID optionally we could use account\r\n//         Ownable crop = crops[cropID]; \r\n//         crop.purchase(quantity, processors[processorID]); \r\n//     }\r\n\r\n//     function purchaseProduct(uint productID, uint customerID, uint quantity) public {\r\n//         Ownable product = products[productID];\r\n//         product.purchase(quantity, customers[customerID]); \r\n// }\r\n\r\n}\r\ncontract Ownable { \r\n     //address creator; //important for tracking who supplies the product in real life but how to implement it? \r\n     uint private id; \r\n     address payable owner; \r\n     uint private price; \r\n     string private name;  \r\n     uint private quantity; \r\n     bool private readyForMarket;  \r\n     NewFarmExchange farm; \r\n\r\n    constructor(string memory name_, address payable owner_, uint price_, uint quantity_, uint id_, bool readyForMarket_, NewFarmExchange farm_) public { \r\n                                   //set the exchange \r\n        owner = owner_;\r\n        require(bytes(name_).length > 0); \r\n        name = name_;  \r\n        owner = owner_;\r\n        require(price_ > 0);\r\n        price = price_; \r\n        require(quantity_ > 0);\r\n        quantity = quantity_; \r\n        id = id_; \r\n        readyForMarket = readyForMarket_;\r\n        farm = farm_;\r\n    }\r\n    function getID() public view returns (uint) {return id; }\r\n    function getOwner() public view returns (address) {return owner; } \r\n    function getPrice() public view returns (uint) {return price; }\r\n    function getName() public view returns (string memory)  {return name; }\r\n    function getQuantity() public view returns (uint) {return quantity;}\r\n    // function purchase(uint quantity_, address payable buyer) external { \r\n    //     require(quantity_ > 0 && quantity_ < quantity); \r\n    //     if(msg.sender == owner)  return;  //can't purchase your own product \r\n    //     require(msg.value >= (price * quantity)); \r\n    //     address(owner).transfer(msg.value); \r\n    //     if(quantity == quantity_) {\r\n    //         owner = buyer;  //exchange ownership when all is bought out; \r\n    //     }\r\n    //     quantity -= quantity_;   //partial buying \r\n    //     if(readyForMarket) {\r\n    //         //create a new ownable with requested quantity for the new owner; \r\n    //         farm.createProduct(name, getID(), price, quantity_); //should we set the price to zero? \r\n    //     } else {\r\n    //         farm.createCrop(name, buyer.getID(), price, quantity_);\r\n    //     }     \r\n    // } \r\n}\r\n\r\ncontract Account {\r\n    string private name; \r\n    uint private id; \r\n    address payable private accountAddress; \r\n    constructor(string memory name_, uint id_) internal {\r\n        require(bytes(name_).length > 0); \r\n        name = name_;\r\n        accountAddress = msg.sender;\r\n        id = id_; \r\n    }\r\n    function getAccountAddress() public view returns(address) {return accountAddress; } \r\n    function getName() public view returns(string memory)  {return name; } \r\n    function getID() public pure returns(uint ID) {return ID; }\r\n} \r\n\r\ncontract Farmer is Account {\r\n    uint private costToProduce; \r\n    uint quantity;  \r\n    string private cropName;  \r\n    string private landLocation;\r\n    uint private holding; \r\n    constructor(string memory name_, uint costToProduce_, uint quantity_, string memory cropName_, string memory landLocation_, uint holding_, uint id_) Account(name_, id_) public {\r\n        costToProduce = costToProduce_;\r\n        quantity = quantity_;\r\n        cropName = cropName_;\r\n        landLocation = landLocation_;\r\n        holding = holding_; \r\n    } \r\n} \r\n\r\n// contract Processor is Account{ \r\n//     uint quantity;  \r\n//     constructor(string memory name_, uint costToProduce_, uint quantity_, string memory cropName_, string memory landLocation_, uint holding_, uint id_) Account(name_, id_) public {\r\n//         quantity = quantity_;\r\n//     } \r\n\r\n// contract Customer is Account{  \r\n//      constructor(string memory name_, uint id_) Account(name_, id_) public {\r\n//     } \r\n\r\n// }\r\n\r\n// contract Investor is Account{  \r\n//      constructor(string memory name_, uint id_) Account(name_, id_) public {\r\n//     } \r\n\r\n",
  "sourcePath": "C:\\MscAC\\Blockchain\\2125\\Code\\src\\contracts\\NewFarmExchange.sol",
  "compiler": {
    "name": "solc",
    "version": "0.5.16+commit.9c3226ce.Emscripten.clang"
  },
  "schemaVersion": "3.4.5",
  "updatedAt": "2022-04-04T14:01:13.800Z",
  "devdoc": {
    "methods": {}
  },
  "userdoc": {
    "methods": {}
  }
}