{
  "contractName": "ProcessorRole",
  "abi": [
    {
      "constant": true,
      "inputs": [
        {
          "internalType": "address",
          "name": "",
          "type": "address"
        }
      ],
      "name": "processors",
      "outputs": [
        {
          "internalType": "bool",
          "name": "",
          "type": "bool"
        }
      ],
      "payable": false,
      "stateMutability": "view",
      "type": "function"
    },
    {
      "constant": false,
      "inputs": [],
      "name": "addProcessor",
      "outputs": [],
      "payable": false,
      "stateMutability": "nonpayable",
      "type": "function"
    },
    {
      "constant": true,
      "inputs": [],
      "name": "onlyProcessor",
      "outputs": [],
      "payable": false,
      "stateMutability": "view",
      "type": "function"
    }
  ],
  "bytecode": "0x608060405234801561001057600080fd5b506101bb806100206000396000f3fe608060405234801561001057600080fd5b50600436106100415760003560e01c8063458f88da146100465780637888ca5a14610050578063965e064a1461005a575b600080fd5b61004e6100b6565b005b61005861010f565b005b61009c6004803603602081101561007057600080fd5b81019080803573ffffffffffffffffffffffffffffffffffffffff169060200190929190505050610166565b604051808215151515815260200191505060405180910390f35b60016000803373ffffffffffffffffffffffffffffffffffffffff1673ffffffffffffffffffffffffffffffffffffffff16815260200190815260200160002060006101000a81548160ff021916908315150217905550565b6000803373ffffffffffffffffffffffffffffffffffffffff1673ffffffffffffffffffffffffffffffffffffffff16815260200190815260200160002060009054906101000a900460ff1661016457600080fd5b565b60006020528060005260406000206000915054906101000a900460ff168156fea265627a7a723158206e7b723386180364d9b285362cc8a3ba560d495d83f189502ca3b324a457b5cf64736f6c63430005100032",
  "source": "// SPDX-License-Identifier: MIT\r\npragma solidity ^0.5.0;\r\n\r\n\r\n// Define a contract 'ProcessorRole' to manage this role \r\ncontract ProcessorRole {\r\n\r\n    mapping(address => bool) public processors;\r\n\r\nfunction  addProcessor() public {\r\n    processors[msg.sender] = true;\r\n}\r\n\r\nfunction  onlyProcessor()  public view {\r\n  require(processors[msg.sender]);\r\n}\r\n\r\n}",
  "sourcePath": "C:\\MscAC\\Blockchain\\2125\\Code\\src\\contracts\\ProcessorRole.sol",
  "compiler": {
    "name": "solc",
    "version": "0.5.16+commit.9c3226ce.Emscripten.clang"
  },
  "schemaVersion": "3.4.5",
  "updatedAt": "2022-04-04T20:56:30.672Z",
  "devdoc": {
    "methods": {}
  },
  "userdoc": {
    "methods": {}
  }
}