{
  "contractName": "Rating",
  "abi": [
    {
      "constant": true,
      "inputs": [],
      "name": "farmerCount",
      "outputs": [
        {
          "internalType": "uint256",
          "name": "",
          "type": "uint256"
        }
      ],
      "payable": false,
      "stateMutability": "view",
      "type": "function"
    },
    {
      "constant": true,
      "inputs": [
        {
          "internalType": "uint256",
          "name": "",
          "type": "uint256"
        }
      ],
      "name": "farmerRatings",
      "outputs": [
        {
          "internalType": "uint256",
          "name": "farmerId",
          "type": "uint256"
        },
        {
          "internalType": "uint256",
          "name": "ratingFarmer",
          "type": "uint256"
        },
        {
          "internalType": "uint256",
          "name": "numberOfRatings",
          "type": "uint256"
        }
      ],
      "payable": false,
      "stateMutability": "view",
      "type": "function"
    },
    {
      "constant": true,
      "inputs": [],
      "name": "processorCount",
      "outputs": [
        {
          "internalType": "uint256",
          "name": "",
          "type": "uint256"
        }
      ],
      "payable": false,
      "stateMutability": "view",
      "type": "function"
    },
    {
      "constant": true,
      "inputs": [
        {
          "internalType": "uint256",
          "name": "",
          "type": "uint256"
        }
      ],
      "name": "processorRatings",
      "outputs": [
        {
          "internalType": "uint256",
          "name": "processorId",
          "type": "uint256"
        },
        {
          "internalType": "uint256",
          "name": "ratingProcessor",
          "type": "uint256"
        },
        {
          "internalType": "uint256",
          "name": "numberOfRatings",
          "type": "uint256"
        }
      ],
      "payable": false,
      "stateMutability": "view",
      "type": "function"
    },
    {
      "constant": false,
      "inputs": [
        {
          "internalType": "uint256",
          "name": "_farmerId",
          "type": "uint256"
        },
        {
          "internalType": "uint256",
          "name": "_farmerRating",
          "type": "uint256"
        }
      ],
      "name": "createFarmerRating",
      "outputs": [],
      "payable": false,
      "stateMutability": "nonpayable",
      "type": "function"
    }
  ],
  "bytecode": "0x608060405260008055600060015534801561001957600080fd5b50610370806100296000396000f3fe608060405234801561001057600080fd5b50600436106100575760003560e01c80631b77491b1461005c578063371ff5b51461007a578063a76074a4146100b2578063b7502e9b14610102578063bd45b39714610152575b600080fd5b610064610170565b6040518082815260200191505060405180910390f35b6100b06004803603604081101561009057600080fd5b810190808035906020019092919080359060200190929190505050610176565b005b6100de600480360360208110156100c857600080fd5b81019080803590602001909291905050506102c0565b60405180848152602001838152602001828152602001935050505060405180910390f35b61012e6004803603602081101561011857600080fd5b81019080803590602001909291905050506102ea565b60405180848152602001838152602001828152602001935050505060405180910390f35b61015a610314565b6040518082815260200191505060405180910390f35b60015481565b6000821161018357600080fd5b6000811161019057600080fd5b6000548211156102015760008081548092919060010191905055506040518060600160405280838152602001828152602001600181525060026000805481526020019081526020016000206000820151816000015560208201518160010155604082015181600201559050506102bc565b61020961031a565b6002600084815260200190815260200160002060405180606001604052908160008201548152602001600182015481526020016002820154815250509050600081602001518260400151029050600182604001510182604001818152505060008260400151828161027657fe5b0490508083602001818152505082600260008781526020019081526020016000206000820151816000015560208201518160010155604082015181600201559050505050505b5050565b60036020528060005260406000206000915090508060000154908060010154908060020154905083565b60026020528060005260406000206000915090508060000154908060010154908060020154905083565b60005481565b6040518060600160405280600081526020016000815260200160008152509056fea265627a7a72315820d6b955d84d1bf68aae774bb6c50541128f7b40cf40351c35ee93e69cdd4cb12e64736f6c63430005100032",
  "source": "pragma solidity ^0.5.0;\r\n\r\n\r\ncontract Rating  {\r\n\r\nuint public farmerCount = 0;\r\n    \r\nuint public processorCount = 0;\r\n\r\nmapping(uint => FarmerRating) public farmerRatings;\r\nmapping(uint => ProcessorRating) public processorRatings;\r\n\r\n\r\n\r\nstruct FarmerRating {\r\n\r\nuint  farmerId;\r\n\r\nuint ratingFarmer;\r\n\r\nuint numberOfRatings;\r\n\r\n}\r\n\r\nstruct ProcessorRating {\r\n\r\nuint processorId;\r\n\r\nuint ratingProcessor;\r\n\r\nuint numberOfRatings;\r\n}\r\n\r\n    function createFarmerRating(\r\n                        uint _farmerId,\r\n                        uint _farmerRating) public  {\r\n        \r\n        //Require a valid name\r\n        require( _farmerId > 0);\r\n\r\n        // Require a valid price\r\n        require(_farmerRating > 0);\r\n\r\n        if (_farmerId > farmerCount) {\r\n            farmerCount++;\r\n            farmerRatings[farmerCount] = FarmerRating(_farmerId, _farmerRating, 1);\r\n        } else {\r\n                FarmerRating memory _rating = farmerRatings[_farmerId];\r\n                \r\n                uint rateCalculation = _rating.numberOfRatings * _rating.ratingFarmer;\r\n                _rating.numberOfRatings = _rating.numberOfRatings + 1;\r\n                uint finalRate = rateCalculation/_rating.numberOfRatings;\r\n                _rating.ratingFarmer = finalRate;\r\n                farmerRatings[_farmerId] = _rating;\r\n            \r\n    }\r\n\r\n}\r\n}",
  "sourcePath": "C:\\MscAC\\Blockchain\\2125\\Code\\src\\contracts\\Rating.sol",
  "compiler": {
    "name": "solc",
    "version": "0.5.16+commit.9c3226ce.Emscripten.clang"
  },
  "schemaVersion": "3.4.5",
  "updatedAt": "2022-04-02T20:32:16.983Z",
  "devdoc": {
    "methods": {}
  },
  "userdoc": {
    "methods": {}
  }
}